:020000040800F2
:10000000980E0020D5010008BF200008D11D00086F
:10001000BD200008550600087522000800000000F9
:10002000000000000000000000000000C3200008E5
:100030005706000800000000C1200008C520000885
:10004000EF010008EF010008EF010008EF010008D0
:10005000EF010008EF010008EF010008EF010008C0
:10006000EF010008EF010008EF010008EF010008B0
:10007000EF010008EF010008EF010008EF010008A0
:10008000EF010008EF010008EF010008EF01000890
:10009000EF010008EF010008EF010008EF01000880
:1000A000EF010008EF010008EF010008EF01000870
:1000B000EF0100081D210008EF010008EF01000812
:1000C000EF010008EF010008EF010008EF01000850
:1000D000EF010008EF010008EF010008EF01000840
:1000E000EF010008EF010008EF01000800F002F83E
:1000F00000F061F80AA090E8000C82448344AAF161
:100100000107DA4501D100F056F8AFF2090EBAE85E
:100110000F0013F0010F18BFFB1A43F0010318473B
:10012000A8300000C83000000A444FF0000C10F85E
:10013000013B13F0070408BF10F8014B1D1108BF65
:1001400010F8015B641E05D010F8016B641E01F805
:10015000016BF9D113F0080F1EBF10F8014BAD1C55
:100160000C1B09D16D1E58BF01F801CBFAD505E073
:1001700014F8016B01F8016B6D1EF9D59142D6D3CD
:10018000704700000023002400250026103A28BFF5
:1001900078C1FBD8520728BF30C148BF0B607047F9
:1001A000642900F07380002070471FB500F08EF9BD
:1001B0001FBD10B510BD00F012FA1146FFF7F5FF94
:1001C00002F0E1FF00F030FA03B4FFF7F2FF03BCE6
:1001D00000F03AFA0948804709480047FEE7FEE781
:1001E000FEE7FEE7FEE7FEE7FEE7FEE7FEE7FEE7E7
:1001F00004480549054A064B70470000D520000811
:10020000ED00000898080020980E0020980A0020B1
:10021000980A00200FB41CB5074B06AA7B44694618
:100220000090059800F0C3F90020694600F0D2F96B
:100230001CBC5DF814FB0000B503000070B504465B
:1002400085690068C10601D5302600E02026C00778
:1002500007D070BDD4E9012130469047206A401C88
:1002600020626D1EF6D570BD70B5044685690078B4
:10027000C00707D170BDD4E9012120209047206A32
:10028000401C20626D1EF6D570BD00002DE9F041C6
:100290000646002410687529314616A510D0AFF324
:1002A0000080002802DA404213A507E031688A077F
:1002B00001D512A502E0490704D511A5012401E0EA
:1002C000AFF3008000210A2206F1240709E0B0FB09
:1002D000F2FCB0FBF2F302FB1C00303078541846FD
:1002E000491C0028F3D123462A463046BDE8F04198
:1002F00000F0FEB8000000002D0000002B00000000
:10030000200000002DE9F0474FF0000A894604461E
:10031000C0F820A02046E1688847002876D025282C
:1003200006D0D4E901219047206A401C2062F1E701
:10033000E168204600258847C4F81CA0064600272F
:10034000C4F818A02A2E09D0304602F015FF38B3A1
:1003500004EB8708303EC8F8186019E059F8041B10
:10036000204604EB87029161E1688847012F064629
:1003700018D1E069002820DA25F020051DE0D8F822
:10038000180000EB800006EB40003038C8F8180079
:100390002046E1688847064602F0EEFE0028EED1CE
:1003A000012F0AD02E2E08D12046E16888477F1CF5
:1003B0000646022F45F02005C4DBA069002803DAB9
:1003C000404245F00105A061E80701D025F0100585
:1003D000B6B1A6F14100192802D8203645F40065CF
:1003E0004A463146204625604D46FFF7D9FE58B1B2
:1003F000012806D0ED1D25F0070000F1080989E766
:1004000004E005F1040985E730468AE7206ABDE883
:10041000F08710B5203AC0F00B80B1E81850203AB0
:10042000A0E81850B1E81850A0E81850BFF4F5AF94
:100430005FEA027C24BFB1E81850A0E8185044BF1E
:1004400018C918C0BDE810405FEA827C24BF51F88B
:10045000043B40F8043B08BF7047D20728BF31F87F
:10046000023B48BF11F8012B28BF20F8023B48BFD0
:1004700000F8012B70474FF0000200B51346944678
:100480009646203922BFA0E80C50A0E80C50B1F1EC
:100490002001BFF4F7AF090728BFA0E80C5048BF00
:1004A0000CC05DF804EB890028BF40F8042B08BF9E
:1004B000704748BF20F8022B11F0804F18BF00F89A
:1004C000012B7047704770477047000070B5064CAD
:1004D0007C44064D7D4403E0206820448047241D71
:1004E000AC42F9D170BD0000142D0000142D0000A5
:1004F0002DE9F0470D4699469246044600F124083E
:100500000168880604D5E06921F01001216000E04F
:100510000120A84201DD471B00E00027A1697A19EC
:1005200002EB0900081AA0612078C00602D4204618
:10053000FFF784FE002608E0D4E901211AF806003E
:100540009047206A401C761C20624E45F4DB2078E0
:10055000C0060AD52046FFF771FE06E0D4E9012166
:1005600030209047206A401C2062381EA7F1010706
:10057000F4DC07E0D4E9012118F805009047206A6F
:10058000401C2062281EA5F10105F3DC2046FFF780
:100590006BFE2078000602D50220BDE8F08701201E
:1005A000FBE7000001694A1C02610878704700B54A
:1005B0008FB0CDE901310021059105497944CDE99C
:1005C000031011466846FFF79DFE0FB000BD000006
:1005D000E5FFFFFF0A6802F8010B0A6070477546E5
:1005E00000F02CF8AE4605006946534620F007009F
:1005F000854618B020B5FFF7FBFDBDE820404FF061
:1006000000064FF000074FF000084FF0000B21F0FC
:100610000701AC46ACE8C009ACE8C009ACE8C009C9
:10062000ACE8C0098D46704710B50446AFF30080B2
:100630002046BDE81040FFF7C7BD000000487047E6
:10064000340800207047000001491820ABBEFEE7C7
:1006500026000200FEE770477047000070B50446B0
:1006600000F008F90546601C02D0044800780444F4
:1006700000F000F9401BA042FAD370BD300000200A
:100680002DE9F84FDFF8B891002409F1040A0AF1C6
:10069000040B23460F270BF1040EC9E00125A540EA
:1006A0002A40AA427DD1674ED1F804C0ACEB0608BF
:1006B000B44532D014DCBCF1030F3AD009DCBCF1F4
:1006C000000F2AD0BCF1010F1CD0BCF1020F31D1B8
:1006D0001DE0BCF1110F17D0BCF1120F2AD119E0A7
:1006E000B8F5881F19D006DCB8F5803F15D0B8F5ED
:1006F000801F1FD111E0B8F5001F0ED0B8F5041F00
:1007000018D10AE0CB6815E0CB681B1D12E0CB685E
:1007100008330FE0CB680C330CE08B682BB1012B56
:100720004FF0080303D0456104E0042302E00561B3
:1007300000E00023FF2A01D8064601E000F104068C
:100740004FEA840501D9A5F12005D6F8008007FA03
:1007500005FC28EA0C0803FA05F548EA0508C6F87E
:1007600000804D68ED0062D5374DAE6946F0010658
:10077000AE61AD6924F0030605F001050095334D27
:1007800006EB050CDCF80850A607360F07FA06F84A
:1007900025EA0805DFF8B880404503D14FF000088E
:1007A00017E044E0DFF8AC80404502D14FF001088B
:1007B0000FE0DFF8A480404502D14FF0020808E0C6
:1007C000DFF89880404502D14FF0030801E04FF078
:1007D000040808FA06F848EA0508CCF808804D68CD
:1007E000D9F80060ED034D4601D5164300E096436D
:1007F0002E604D68DAF80060AD03554601D516430A
:1008000000E096432E604D68DBF80060ED025D4627
:1008100001D5164300E096432E604D68DEF8006077
:10082000AD02754601D5164300E096432E60641C68
:100830000D682A46E5407FF431AFBDE8F88F00002F
:1008400000040140000011100010024000000140AF
:1008500000080140000C014000100140001401405C
:100860008068084000D0012070470AB101617047DC
:100870000904FBE701488068704700003000002051
:1008800070B504001BD094F83D00002520B984F811
:100890003C50204600F002FB242084F83D002068F4
:1008A000016821F00101016000F058FC4D4A6168C7
:1008B000914201D84C4900E04C49884201D20120C4
:1008C00070BD4B492368B0FBF1F15E6826F03F062E
:1008D0000E435E606368934206D94FF496735943A2
:1008E0004FF47A73B1FBF3F12368491C1E6A26F0BA
:1008F0003F06314319626168914210D84900401E99
:10090000B0FBF1F2521CC2F30B02042A01D2042004
:1009100022E0B0FBF1F0401CC0F30B001CE0A36828
:10092000F3B301EBC10202EB0116421EB2FBF6F279
:10093000521C42F48042120549D093B301EBC1022C
:1009400002EB0111401EB0FBF1F0401CC0F30B00A4
:1009500040F4804040F400402168CA694CF6FF73BF
:100960009A431043C861D4E90701084321680A6823
:1009700022F0C00210430860D4E90301014320685B
:10098000826848F2FF339A4311438160D4E905013C
:1009900008432168CA6822F0FF021043C86001E0E2
:1009A0000EE016E02068016841F001010160256455
:1009B000202084F83D00256384F83E50002070BD5F
:1009C00001EB4106421EB2FBF6F2521CB3E70120D6
:1009D000C2E701EB4101401EB0FBF1F0401CC0F347
:1009E0000B00B7E7A086010080841E0000093D00CF
:1009F00040420F002DE9FF4F81B089460446FFF7C2
:100A000039FF054694F83D004FF0010820287AD1BF
:100A1000192301224B492046009502F0DCF90028F9
:100A200071D194F83C0001286DD0012084F83C007D
:100A300020680168C90703D1016841F00101016024
:100A40002068016821F400610160242084F83D00E1
:100A5000002626643C48E0624FF0011B20272068F6
:100A6000016841F4807101600095002259462046DA
:100A7000049B02F0B0F9002856D1216809F0FE006D
:100A80000861FFF7F7FE2168054648694969C0F328
:100A90004000C1F380214FF0A00A0FE0FFF7EAFE0B
:100AA000411B0498814200D808B984F83DA0216810
:100AB00048694969C0F34000C1F3802194F83D20A2
:100AC000A02A02D008B90029E8D084F83D70206837
:100AD0004169C943890717D4016841F40071016075
:100AE0002068416980691923012216492046009532
:100AF00002F071F9C0B984F83D7084F83C600020C0
:100B000005B0BDE8F08F1BE0016841F400710160A1
:100B100021686FF480604861192301220949204649
:100B2000009502F058F908B10120E9E7039808F1AF
:100B30000108804593D384F83D7084F83C60F3E766
:100B40000220DDE7020010000000FFFF2DE9FF4F4B
:100B500083B09A46DDE9119793460446DDF840805C
:100B6000FFF788FE054694F83D0020286FD1192331
:100B700001227B492046009502F02DF90028F5D18D
:100B800094F83C00012862D0012084F83C002068E1
:100B90000168C90703D1016841F0010101602168C2
:100BA000086820F400600860222084F83D0040209E
:100BB00084F83E0000262664C4F82480A4F82A9015
:100BC000608D20856748E062CDE9007553465A463E
:100BD0002046049902F02AF800287DD1208DDFF804
:100BE000888168B1012814D0022820D020680168CB
:100BF00041F4806101602068416980690090A0E053
:100C00002068416981690091016841F400710160C7
:100C100097E02068016821F48061016072B6206865
:100C2000416981690091016841F400710CE021681B
:100C3000086840F40060086072B620684169816904
:100C40000091016821F48061016062B679E084E07E
:100C500003284FD801280BD002283B464FF0000252
:100C60004146204600950ED002F0B5F8A0BB0FE03B
:100C70002A463946204602F02EF968BB20680069F2
:100C8000616A087054E002F0A6F828BB72B61AE058
:100C90002068016821F48061016072B620680069F3
:100CA000616A0870606A401C6062208D401E208569
:100CB000608D401E60853B460022414620460095DF
:100CC00002F089F840B92068016841F400710160C0
:100CD00020680069616A00E012E00870606A401CE8
:100CE0006062218D491E2185618D491E618562B634
:100CF00021681BE02A463946204602F0ECF818B17C
:100D0000012007B0BDE8F08F20680069616A0870B3
:100D1000606A401C6062218D491E2185618D491EDB
:100D2000618521684A69D24352070AD40969017072
:100D3000606A401C6062208D401E2085608D401ED0
:100D40006085208D002883D1202084F83D0084F820
:100D50003E6084F83C600020D3E70220D1E7000029
:100D6000020010000000FFFF040001002DE9FF4F0A
:100D700083B09A46DDE9119793460446DDF840803A
:100D8000FFF778FD054694F83D0020287FD1192310
:100D9000012240492046009502F01DF8002876D136
:100DA00094F83C00012872D0012084F83C002068AF
:100DB0000168C90703D1016841F0010101602068A1
:100DC000016821F400610160212084F83D00402089
:100DD00084F83E0000262664C4F82480A4F82A90F3
:100DE000608D20852C48E062CDE9007553465A4657
:100DF0002046049901F08EFF70B930E02A4639464A
:100E0000204602F042F858B1206C042804D1206832
:100E1000016841F400710160012007B0BDE8F08F66
:100E2000606A216800780861606A401C6062218DF8
:100E3000491E89B22185628D521E628522685369DE
:100E4000DB435B070BD469B100781061606A401C1A
:100E50006062208D401E2085608D401E6085208D43
:100E60000028CBD12A463946204601F0E8FF002869
:100E7000CAD154F83D0B016841F400710160202093
:100E800004F81E09E67766770020C6E7FFE7022030
:100E9000C3E70000020010000000FFFF10B586B09D
:100EA0000021009101910291039100680F4988424D
:100EB0001AD10F4CA06940F00800A061A0696946F2
:100EC00000F008000490C020009012200190032040
:100ED00003900848FFF7D4FBE06940F40010E0619C
:100EE000E06900F40010049006B010BD005400400A
:100EF00000100240000C0140024881680278114451
:100F00008160704730000020074810B5016841F04B
:100F100010010160032000F079F8002000F006F8CD
:100F200000F024F8002010BD0020024070B50D4DE7
:100F300004464FF47A712878B1FBF0F00A49096849
:100F4000B1FBF0F000F0E2FA48B9102C07D2002211
:100F50002146501E00F03AF800206C6070BD012060
:100F600070BD0000300000203C0000200E4808B595
:100F7000816941F001018161816901F00101009104
:100F8000C16941F08051C161C06900F0805000909A
:100F9000062000F03BF80548416821F0E06141F08F
:100FA0000071416008BD00000010024000000140D7
:100FB000002809DB00F01F02012191404009800058
:100FC00000F1E020C0F8001170470000F0B40E4BB3
:100FD0001B680C46C3F30223C3F10705042D00D997
:100FE0000425191D072901D2002300E0DB1E01267C
:100FF00006FA05F1491E214099409E40761E164092
:101000003143F0BC02F087B80CED00E0064900F077
:10101000070208684FF6FF03184040EA0220034A1F
:1010200010430860704700000CED00E00000FA0576
:101030002DE9F0470F46050061D0434E306800F0BF
:101040000700B84209D2306820F00700384330600A
:10105000306800F00700B84251D128683B4C810746
:1010600012D5400703D5606840F4E06060602878DE
:10107000000703D5606840F4605060606068A9684C
:1010800020F0F000084360602878C00728D0686826
:10109000012810D02168022810D0890700292EDAF3
:1010A000616821F0030101436160FFF7E3FB8046C3
:1010B00041F288390DE021688903EFE78901EDE706
:1010C000FFF7D8FBA0EB0801494502D90320BDE892
:1010D000F0876068696800F00C00B0EB810FEFD119
:1010E000306800F00700B8420BD9306820F00700E4
:1010F00038433060306800F00700B84201D001206A
:10110000E5E72878400705D56068E96820F4E060E5
:10111000084360602878000706D56068296920F4D4
:10112000605040EAC100606000F028F86168084A39
:10113000C1F30311515CC8400649086006480068C5
:10114000FFF7F4FE0020C2E700200240001002403A
:10115000B03100083C00002034000020044805495C
:1011600000684968044AC1F30221515CC8407047D5
:101170003C00002000100240C031000812A185B0E0
:101180000FC98DE80F0014A0144A0068049051683C
:10119000134811F00C0312D0042B10D0082B0ED1E1
:1011A000C1F38343C9031DF803000AD5516804AA9B
:1011B000C1F34041515C0A4A5043B0FBF1F005B025
:1011C000704708494843FAE702030405060708097F
:1011D0000A0B0C0D0E0F101001020000001002404F
:1011E00000127A0000093D002DE9F84F040070D08C
:1011F0002078C04DC00749D06868C0F3810001283D
:1012000007D06868C0F38100022809D16868C0036C
:1012100006D52868800339D560680028E7D035E016
:101220006068B0F5803F0BD010B1B0F5A02F11D0A1
:10123000286820F480302860286820F4802002E0AC
:10124000286840F480302860606890B1FFF712FB96
:1012500006460AE0286840F480202860F0E700BFD6
:10126000FFF708FB801B642873D828688003F7D534
:101270000CE0FFF7FFFA064605E000BFFFF7FAFAB9
:10128000801B6428F0D828688003F7D420789A4E11
:1012900080074FF001094FF0000839D5686810F059
:1012A0000C0F07D06868C0F38100022809D1686874
:1012B000C00306D42868800714D52069012808D106
:1012C00010E02069B0B1C6F80090FFF7D3FA0746E6
:1012D00005E00AE1FFF7CEFAC01B0228C4D828684F
:1012E0008007F7D52868616920F0F80040EAC1005E
:1012F00028600DE0C6F80080FFF7BCFA074604E05E
:10130000FFF7B8FAC01B022823D828688007F7D453
:10131000207800072CD57948A169D9B1C0F8009090
:10132000FFF7A8FA074604E0FFF7A4FAC01B02285B
:101330000FD8686A8007F7D571484FF4FA510068F2
:10134000B0FBF1F0009000BF0098411E0091FAD26E
:101350000EE080E0C0F80080FFF78CFA074604E05A
:10136000FFF788FAC01B022875D8686A8007F7D48F
:101370002078400760D5E8690027C00008D4E869F4
:1013800040F08050E861E869012700F0805000904B
:101390005C480168C90513D40168834641F4807133
:1013A0000160FFF767FA824606E000BFFFF762FAC6
:1013B000A0EB0A0064284ED8DBF80000C005F5D584
:1013C000E06801280AD008B1052813D0286A20F067
:1013D00001002862286A20F0040002E0286A40F038
:1013E00001002862E06841F2883B98B1FFF742FAB9
:1013F00082460BE0286A40F004002862EEE700BF56
:10140000FFF738FAA0EB0A0159455AD8286A800735
:10141000F6D50CE0FFF72EFA824605E0FFF72AFA30
:10142000A0EB0A0159454CD8286A8007F6D41FB1B1
:10143000E86920F08050E861E06988B36968C1F329
:101440008101022944D00228C6F8608004D0FFF749
:1014500011FA044638E034E0FFF70CFA074604E0DE
:10146000FFF708FAC01B02282BD828688001F7D4A0
:10147000206AB0F5803F05D16868A16820F400308B
:1014800008436860D4E908010843696821F47411CD
:1014900008436860C6F86090FFF7ECF9044606E080
:1014A00025E000BFFFF7E6F9001B022809D82868ED
:1014B0008001F7D51BE000BFFFF7DCF9001B022815
:1014C00002D90320BDE8F88F28688001F4D40EE02B
:1014D0000128F7D06868226A00F48031914204D173
:1014E000616A00F47010884201D00120EAE7002010
:1014F000E8E700000010024000004242800442423F
:101500003C0000200070004000F064BF10B5401E99
:10151000B0F1807F01D3012010BD4FF0E024606165
:101520000F21601701F0F7FD0020A0610720206166
:10153000002010BD10B5FFF7E7FF10BD70477047E2
:1015400010B590F83C20012A22D0012280F83C20DE
:10155000CA688C6822F4407222434C6822F480628C
:1015600022430C6822F4006222430C6922F4805268
:1015700022434C6922F400522243C969002322F419
:1015800080420A4301684A6480F83C30002010BD64
:10159000022010BD70B588B00E46040004D094F847
:1015A0003D00002518B107E0012008B070BD84F8A7
:1015B0003C50204600F04CF8022084F83D00211DEC
:1015C000206800F0B1FDB36831680322206800F0A4
:1015D00025FE2068816921F00C0181612068816904
:1015E0007268114381612068416841F08001416067
:1015F0002068816821F0700181602068816841F075
:10160000400181602068816821F0070181602068C5
:10161000816841F00401816070200595049506956C
:10162000039502950090F06801906946206800F0EB
:10163000C9FD2068416821F070014160206841685F
:1016400041F050014160012084F83D000020ACE7EA
:10165000704710B5044600680122002100F09AFD91
:101660002068816801F00701062903D0016841F074
:1016700001010160002010BD70B590F83C20012AE6
:1016800019D0012400F83C4F0222427050F83C3C33
:101690005A689D6822F070060A684968324325F04E
:1016A000800529435A6050F83C2C91604470002119
:1016B0000170084670BD022070BD10B50446006878
:1016C000042201F038FD2068416C41F4004141647E
:1016D0002068816801F00701062903D0016841F004
:1016E00001010160002010BD10B504460068002211
:1016F00001F021FD2068036A41F211110B4240F212
:10170000444206D1036A134203D1436C23F40043DD
:1017100043642068036A0B4206D1016A114203D177
:10172000016821F001010160002010BD10B5040026
:1017300003D094F83D0010B107E0012010BD002057
:1017400084F83C00204600F00DF8022084F83D00AB
:10175000211D206800F0E8FC012084F83D000020F5
:1017600010BD000010B586B00024009401940294CE
:101770000394204A0168204891422FD1C16941F069
:101780000201C161C16901F002010491816941F066
:1017900004018161816901F004010491816941F0D2
:1017A000080181618069694600F008000490C0204A
:1017B00000901248FEF764FF0120CDE9000469465D
:1017C0000F480294FEF75CFF012200211D20FFF765
:1017D000FDFB1D20FFF7ECFB06B010BD094A91424E
:1017E000FAD1C16941F00401C161C06900F004008F
:1017F0000490F1E70004004000100240000801409E
:10180000000C0140000800400168CA6842F0010273
:10181000CA600068816801F00701062903D00168E9
:1018200041F0010101600020704770B5044690F856
:101830003C00012817D0012584F83C50022084F890
:101840003D002068826822F0770222F47F428260A5
:101850000868502830D00DDC20284DD005DC98B326
:1018600010283BD148E0022070BD302844D04028E9
:1018700034D139E0602828D0702806D0B0F5805FD8
:101880002CD0B0F5005F29D10AE0CB68D1E9012165
:10189000206800F08CFC2068816841F0770109E045
:1018A000CB68D1E90121206800F081FC20688168C3
:1018B00041F48041816011E0CA684968206801F004
:1018C00007FC5021206807E016E0CA6849682068D4
:1018D00001F00FFC6021206801F0F2FB84F83D501C
:1018E000002084F83C0070BDCA684968206801F097
:1018F000EFFB40212068EFE7226801461046EBE746
:101900002DE9F0410D46040003D094F83D0018B1D4
:1019100008E00120BDE8F081002084F83C0020466A
:1019200000F03AF8022084F83D002068816844F213
:10193000070291438160211D206800F0F5FB2268B9
:1019400090689169166A2B68AF69034340F20330CF
:10195000814341EA0721A868EF6908434FF6FC413B
:101960008843E96840EA0720014328692F6A00019B
:1019700040EA0730084369686D6926F0220646EAA6
:101980000515294393602268906120680162012057
:1019900084F83D000020BDE700B585B0002100912E
:1019A0000191029103910068B0F1804F16D10C486B
:1019B000C16941F00101C161C16901F001010491F6
:1019C000816941F0040181618069694600F0040089
:1019D0000490032000900348FEF752FE05B000BDBE
:1019E000001002400008014010B50446006891B1A3
:1019F000042904D00122002100F0CCFB2068012240
:101A00005FF0040100F0C6FB2068016841F00101AD
:101A10000160002010BD01220021F3E7704770B57E
:101A20000446006801694FF00005C943890715D4D1
:101A3000C168C943890711D4E91E016101202077DB
:101A4000206880698007204602D0FFF7E7FF04E0A6
:101A500000F0D2F8204600F067F925772068016988
:101A6000C943490717D4C168C943490713D46FF064
:101A700004010161022020772068806910F4407F12
:101A8000204602D0FFF7CAFF04E000F0B5F8204678
:101A900000F04AF9257720680169C943090716D47F
:101AA000C168C943090712D46FF00801016104201D
:101AB00020772068C0698007204602D0FFF7AEFF7C
:101AC00004E000F099F8204600F02EF92577206810
:101AD0000169C943C90617D4C168C943C90613D4EB
:101AE0006FF010010161082020772068C06910F4B0
:101AF000407F204602D0FFF791FF04E000F07CF821
:101B0000204600F011F9257720680169C943C9070B
:101B100008D1C168C943C90704D1891E01612046A3
:101B200000F04AF920680169C943090609D4C1686F
:101B3000C943090605D46FF0800101612046FFF713
:101B4000FDFC20680169C943490609D4C168C9433D
:101B5000490605D46FF040010161204600F02EF9DE
:101B600020680169C94389060BD4C168C943890645
:101B700007D46FF0200101612046BDE87040FFF7F7
:101B8000DEBC70BD30B585B000210091019102919D
:101B9000039100681449884224D11448816941F0B6
:101BA00008018161816901F008010491816941F0B6
:101BB000040181618069022400F0040004904FF464
:101BC0006040CDE900040325694603950848FEF707
:101BD00057FD4FF4E060CDE90004694603950548E0
:101BE000FEF74EFD05B030BD002C01400010024054
:101BF000000C014000080140704770B5044690F8A1
:101C00003C000D4601280DD0012684F83C600220DE
:101C100084F83D0042B1042A18D0082A2AD00C2AA0
:101C20004DD139E0022070BD206801F0D3F9206861
:101C3000816941F0080181612068816921F0040116
:101C40008161206881692A69114311E0206800F0F0
:101C5000B9FA2068816941F4006181612068816975
:101C600021F480618161206881692A6941EA022149
:101C7000816124E0206801F0D5F92068C16941F054
:101C80000801C1612068C16921F00401C1612068B7
:101C9000C1692A69114311E0206801F0EFF9206859
:101CA000C16941F40061C1612068C16921F48061AA
:101CB000C1612068C1692A6941EA0221C16184F8D1
:101CC0003D60002084F83C0070BD10B5040003D0D6
:101CD00094F83D0010B107E0012010BD002084F809
:101CE0003C00204600F00CF8022084F83D00211D45
:101CF000206800F019FA012084F83D00002010BD92
:101D000008B500680649884208D10648816941F44F
:101D100000618161806900F40060009008BD0000EE
:101D2000002C0140001002407047000010B504462E
:101D30000068012200F02EFA09492068884203D188
:101D4000416C41F4004141642068816801F0070161
:101D5000062903D0016841F001010160002010BD97
:101D6000002C014010B504460068002200F012FA71
:101D7000104B41F2111120688A10984209D1036A70
:101D80000B4206D1036A134203D1436C23F4004390
:101D900043642068036A0B4206D1016A114203D1F1
:101DA000016821F001010160012084F83D0000205C
:101DB00010BD0000002C014070470000034900687E
:101DC0000968884201D100F049BB7047A007002094
:101DD000FEE7000070B586B000241C480094019412
:101DE00002940394816941F020018161816901F0CD
:101DF00020010491816941F004018161816901F050
:101E000004010491816941F0080181618069104EEB
:101E100000F008004FF48055049000222946304617
:101E2000FEF723FD0320CDE9024000950125694618
:101E300001953046FEF724FCE8038DE83100694641
:101E40000448FEF71DFC06B070BD00000010024003
:101E5000000C0140000801400D4810B50B4901601D
:101E60000C49416000214FF480428160C0E90312B7
:101E700041618161C1610162FEF702FD002803D06A
:101E8000BDE81040FEF7E8BB10BD00000054004064
:101E9000CC060020801A060010B592B000240F94E2
:101EA0001C2168461094FEF7E6FA202107A8FEF7E9
:101EB000E2FA2A482849C0E9001440F60F61C0E957
:101EC0000241046144618461FFF7FFFE08B1FEF73F
:101ED000C3FB0F940FA921481094FFF7CDFB08B165
:101EE000FEF7BAFB6020CDE9000404200294CDE99E
:101EF0000340800105904000069000226946174883
:101F0000FFF77BFE08B1FEF7A7FB042269461348E2
:101F1000FFF773FE08B1FEF79FFB082269460F48E2
:101F2000FFF76BFE08B1FEF797FB079405200894B6
:101F3000CDE909404FF40050CDE90B4007A907480F
:101F40000E94FFF7FDFA08B1FEF786FB0348FFF792
:101F500019FE12B010BD0000002C01402007002027
:101F600010B58CB024216846FEF785FA0024164887
:101F700009944FF080410A9401600321C0E90114E3
:101F80004FF6FF72C0E90324846100910120CDE97E
:101F900001400F21CDE90341CDE90540CDE90741DD
:101FA00069460948FFF7ACFC08B1FEF755FB0994F8
:101FB00009A905480A94FFF75FFB002801D0FEF746
:101FC0004BFB0CB010BD00006007002010B58AB0BC
:101FD00000241F48049405940694079403940094E5
:101FE0000194029408941949099401604721C0E9B9
:101FF000011440F2E731C0E9031480218161FFF749
:1020000095FB08B1FEF728FB4FF48050049004A91B
:102010000F48FFF70AFC08B1FEF71EFB009401947D
:10202000029469460A480394FFF7B4FA08B1FEF730
:1020300013FB5020CDE9080408A90548FFF71CFB55
:10204000002801D0FEF708FB0AB010BD00040040D4
:10205000A007002010B586B0002417480094019412
:102060000294039404941349059401604721C0E944
:10207000011440F2E731C0E903148461FFF756FB15
:1020800008B1FEF7E9FA4FF48050009069460A481B
:10209000FFF7CBFB08B1FEF7DFFA049404A906486A
:1020A0000594FFF7E9FA002801D0FEF7D5FA06B04B
:1020B00010BD000000080040E0070020FEE7704768
:1020C0007047704710B5FEF717FFBDE81040FFF7E7
:1020D00031BA00000D48016841F00101016041681A
:1020E0000B4A1140416001680A4A114001600168D1
:1020F00021F480210160416821F4FE0141604FF428
:102100001F0181600449C00308607047001002404D
:102110000000FFF8FFFFF6FE08ED00E00148FFF7C2
:102120007EBC0000A0070020F0B50268164B174CDB
:10213000174D4FF08047984205D0B84203D0A042D7
:1021400001D0A84203D122F070064A683243984277
:1021500005D0B84203D0A04201D0A84203D122F456
:102160004074CA6822434C6922F080022243026014
:102170008A68C2620A688262984201D10969016371
:1021800001214161F0BD0000002C0140000400402D
:102190000008004010B501F01F030121046A9940B6
:1021A0008C430462016A9A401143016210BD10B56C
:1021B000846842EA032224F47F440A432243826073
:1021C00010BD000030B5026A22F010020262026AFD
:1021D000436884690D6824F4E64444EA05248D6864
:1021E00022F0200242EA05120B4DA8420ED1CD6822
:1021F00022F0800242EA05124D6923F4406343EA6B
:1022000085038D6922F0400243EA850343608461BF
:1022100049688163026230BD002C014070B5046AD8
:1022200024F0010404628469056A0F4EB04208D0AC
:10223000B0F1804F05D00D4EB04202D00C4EB042EE
:1022400003D124F00304144301E044F001041A070D
:1022500024F0F00444EA126225F00A0301F00A01B6
:1022600019438261016270BD002C014000040040EE
:1022700000080040FEE7000010B54FF47A70FEF74A
:10228000EDF91D4800F0BBFC1CA200211A4800F02B
:10229000A1FC0A23052278211B48FEF7ABFB00288E
:1022A00028D11A48FFF7B0FA3C211948FFF79CFBE8
:1022B000114801210C3000F01CFB0F4801210C30AB
:1022C00000F028F91348FFF7C4F912480068C16804
:1022D00041F05001C16008480C3000F065FA064832
:1022E0000A210C3000F010F90348BDE810400C3012
:1022F00000F0CEBA10BD0000500600205465737483
:10230000696E672E2E2E0000CC060020E00700200C
:1023100060070020A00700202DE9F0410024094EAD
:10232000274600BF04EB440006EB8005687810B137
:10233000A86880476F70641CE4B2042CF2D3BDE837
:10234000F08100000000002070477047084810B579
:10235000017881F001010170064800F0DBF80548C2
:1023600000F022FABDE81040024800F091BA0000E7
:10237000440600205C06002010B5124800F0E8FA80
:102380000021104800F0D8FA10B10020FFF7DEFF5E
:102390000D480068416A0D48416082688A4206D053
:1023A0003222B1FBF2F302FB13114160816000792C
:1023B000401DC1B2064800F0A7F8BDE8104004482F
:1023C00000F066BAC0060020600700204406002026
:1023D0005C06002010B500200B4A012400EB4001F0
:1023E00012F8213053B102EB81014B885B1E1B04B4
:1023F0001B0C4B8002D18B884B804C70401CC0B2B0
:102400000428EBD310BD00000000002030B58FB0D1
:1024100028216846FEF72FF814210AA8FEF72BF8AA
:1024200001210804CDE90010002402940225049142
:10243000CDE907504FF4E01009906846FEF7D4FE4E
:102440000F20CDE90A056802CDE90C4002210AA857
:102450000E94FEF7EDFD0FB030BD000010B504483E
:1024600000F0A2F9BDE81040014800F011BA0000E8
:102470005C06002010B5164800F007FA024615A1C8
:102480001748FDF7C7FE164A0221164800F0A2FBC6
:102490000F4800F03CF8024613A11148FDF7BAFEC0
:1024A0000F4A04210F4800F095FB094800F035F869
:1024B000074800F0E7F902460FA10948FDF7AAFE18
:1024C000BDE81040064A0621064800F083BB000024
:1024D0005C060020443A20253264252500000000D7
:1024E000200800205006002056656C2848616C6C5E
:1024F000293A20253464000043573A2025316400EE
:1025000000000000FFF708BF80F858107047B0F8CF
:102510005A00704780F8611070470021A0F85A10E7
:1025200070472DE9F04104464FF461604143642057
:10253000B1FBF0F085B24FF4616700212068FFF72E
:1025400011FC00212068FFF7CFF86026C4E9086578
:10255000042204F120012068FFF74FFB04212068CA
:10256000FFF7E4FB04212068FFF7A7F8C4E90F6731
:10257000082204F13C012068FFF73FFB2068BDE81A
:10258000F0410821FFF799B82DE9F04104464FF4D6
:10259000616041436420B1FBF0F085B24FF46167A4
:1025A00008212068FFF7DEFB08212068FFF79CF870
:1025B0006026C4E901650022211D2068FFF71DFB8C
:1025C00000212068FFF7B2FB00212068FFF775F8B3
:1025D000C4E90867042204F120012068FFF70DFB1D
:1025E00004212068FFF7BEFB2068BDE8F04104210C
:1025F000FFF763B82DE9F04104464FF461604143B1
:102600006420B1FBF0F085B24FF4616704212068CB
:10261000FFF7A8FB04212068FFF766F86026C4E9ED
:1026200001650022211D2068FFF7E7FA00212068DC
:10263000FFF77CFB00212068FFF73FF8C4E90F6734
:10264000082204F13C012068FFF7D7FA082120682E
:10265000FFF788FB2068BDE8F0410821FFF72DB89F
:102660002DE9F04104464FF4616041436420B1FB21
:10267000F0F085B24FF4616704212068FFF772FB28
:1026800004212068FFF730F86026C4E90F650822AE
:1026900004F13C012068FFF7B0FA08212068FFF739
:1026A00045FB08212068FFF708F8C4E9016700220C
:1026B000211D2068FFF7A1FA00212068FFF752FBD7
:1026C0002068BDE8F0410021FEF7F7BF2DE9F04199
:1026D00004464FF4616041436420B1FBF0F085B2E1
:1026E0004FF4616708212068FFF73CFB0821206850
:1026F000FEF7FAFF6026C4E90865042204F1200110
:102700002068FFF77AFA04212068FFF70FFB042105
:102710002068FEF7D2FFC4E901670022211D20686E
:10272000FFF76BFA00212068FFF71CFB2068BDE86B
:10273000F0410021FEF7C1BF2DE9F04104464FF4FE
:10274000616041436420B1FBF0F085B24FF46167F2
:1027500000212068FFF706FB00212068FEF7C4FF78
:102760006026C4E90F65082204F13C012068FFF7E8
:1027700044FA08212068FFF7D9FA08212068FEF7FB
:102780009CFFC4E90867042204F120012068FFF7D8
:1027900034FA04212068FFF7E5FA2068BDE8F0412B
:1027A0000421FEF78ABF00000F4A002113685B0670
:1027B00000D504211268120601D541F002010B4A2E
:1027C0001268D20701D041F00101094A92F90030A4
:1027D0008B4205D0B0F85A305B1CA0F85A3011700B
:1027E00080F859107047000008080140080C0140AB
:1027F0004006002010B50446072929D2DFE801F081
:1028000028101C16040A22002046BDE8104011467C
:10281000FFF726BF2046BDE810401146FFF756BF20
:102820002046BDE810401146FFF77BBE2046BDE8BC
:1028300010401146FFF7DEBE2046BDE810401146AD
:10284000FFF7A2BE2046BDE810401146FFF774BF57
:1028500000212068FFF786FA00212068FEF744FF78
:1028600004212068FFF77EFA04212068FEF73CFF70
:1028700008212068FFF776FA2068BDE8104008219B
:10288000FEF732BF90F86100704790F8580070472B
:1028900010B5044690F8600088B194F8610094F88F
:1028A000582010B194F8591004E094F85900C0F180
:1028B0000700C1B22046BDE81040FFF79BBF0021D2
:1028C0002068FFF74FFA00212068FEF70DFF042172
:1028D0002068FFF747FA04212068FEF705FF08216A
:1028E0002068FFF73FFA2068BDE810400821FEF796
:1028F000FBBE80F860107047074A0260002280F833
:102900006020012380F8613080F85910A0F85A2027
:102910001E2180F8581070472007002010B50024B1
:102920004FF400410348FDF79BFF00B90124204606
:1029300010BD000000080140012203688A401342D4
:1029400023EA0203036001D0012070470020704792
:102950002DE9F0410446FFF7E1FF002103460D4653
:1029600001204A1C16469A4205D104EB41073A89D8
:10297000521C3A8107E004EB410200FA01F715818D
:102980002268BA43226004EB41021789142F05D153
:10299000276800FA01FC47EA0C0727601789322FE5
:1029A00005D91581226800FA01F18A432260F1B24B
:1029B0000229D6D3BDE8F081016041607047000074
:1029C00070B58CB004461C2215A103A8FDF721FDAB
:1029D0000A221C2103A88DE80700227A217801230E
:1029E0006068FEF7C3F915A0012600680A900AA8DE
:1029F000CDE9000664250295227A21783346606885
:102A0000FEF7A4F80DF12900CDE900060295227A1F
:102A1000217801236068FEF799F80CB070BD0000C2
:102A2000AE0010D580A83FD300B0408D14A1C8DA05
:102A30001281FFD9F1DB302000A4A6AF030400000F
:102A40001FB507A10A2309680391032203A98DE892
:102A50000E00027A017840680123FEF787F91FBD56
:102A6000AE8D10002DE9FF4F0026921C88460446CB
:102A7000D0B2102187B001EB101100F00F003746E3
:102A80004FF00A0B4FF00109CDE904010DF10C0ADA
:102A9000CDE900A908F1B0008DF80C00CDF808B020
:102AA0005D46227A217801236068FEF75FF9059878
:102AB0008DF80C00CDF800A0CDE90195227A21789F
:102AC00001236068FEF752F904988DF80C00CDF8E8
:102AD00000A0CDE90195227A217801236068FEF7F4
:102AE00045F900250A98012306EB00111048084417
:102AF000A0F5805090F8000ECDE900A98DF80C00EB
:102B0000CDF808B0627A21786068FEF72FF9761C5C
:102B10006D1CEDB2F6B2082DE4D37F1C08F1010064
:102B2000FFB200F0FF08022FB0D30BB0BDE8F08F6A
:102B3000400000202DE9F047044686B024A00DF1A6
:102B4000100900680490B0208DF80C000DF1110AF6
:102B50004FF00A080125464603A88DE86100227A55
:102B6000217801236068FEF701F9CDF800A0CDE9D6
:102B70000156227A217801236068FEF7F7F8CDF834
:102B80000090CDE901564F46227A217801236068F2
:102B9000FEF7ECF8B94600264FEA0807CDF800909A
:102BA000CDE90157627A217801236068FEF7DEF8EB
:102BB000761CF6B2842EF1D39DF80C00401CC0B2F6
:102BC0008DF80C00B828C6D306B0BDE8F087000029
:102BD000001000002DE9F04115460E46074600247E
:102BE00008E0E006020E314638466D1CFFF73AFF5A
:102BF000641CE4B22B78002BF3D1BDE8F08110B552
:102C00000446FFF71DFF2046FFF794FF2046BDE86E
:102C10001040FFF7D5BE000001700349416000215C
:102C20000172402141727047CC0600202DE9F84F17
:102C30000446006889460B9D01689846174641F492
:102C4000806101602068016841F480710160009535
:102C50004FF0011A0022514620460A9B00F0BBF8B3
:102C6000002853D1216809F0FE0008610AF1010B28
:102C70002B46594620460A9A00F060F9F0BB2068BE
:102C80004169806900902A4620460A9900F0FDF8C3
:102C900040B1206C042839D12068016841F40071EA
:102CA000016033E0FEB2B8F1010F09D02168380AA3
:102CB00008612A4620460A9900F0E7F80028E8D182
:102CC000206806612A4620460A9900F0DEF80028AE
:102CD000DFD12068016841F4807101600095002215
:102CE000514620460A9B00F076F838B9216809F071
:102CF000FF0040F0010008612B4600E006E0594665
:102D000020460A9A00F01AF9002800D00120BDE8F8
:102D1000F88F00002DE9F843044600680D46DDE910
:102D2000089701689846164641F4807101604B4649
:102D300000224FF001112046009700F04CF8E0B956
:102D4000216805F0FE0008613B464A4615492046C9
:102D500000F0F4F888B920684169806900903A462B
:102D60004946204600F091F850B1206C042804D167
:102D70002068016841F4007101600120BDE8F8831A
:102D8000F5B2B8F1010F09D02168300A08613A465E
:102D90004946204600F079F80028E6D12068056110
:102DA0000020EBE70200010001684A69D2435205A6
:102DB0000FD46FF480624A61002140F8301F202256
:102DC00042738173026942F00402026101730120BF
:102DD0007047002070472DE9F0471E4690460D468B
:102DE0000446C1F30747DDF8209008E0701C06D0C8
:102DF000FDF740FDA0EB0900B0420FD876B1206886
:102E0000012F18D0806925EA00000004000C14D0BE
:102E100000214145EAD00020BDE8F087002044F8B9
:102E2000300F20216173A073216941F020012161DD
:102E300020730120F0E74069E5E70121E9E770B57B
:102E400016460D4604460DE02046FFF7ADFF08B1DB
:102E5000012070BD681C05D0FDF70CFD801BA84249
:102E600007D835B120684069C0434007ECD4002042
:102E700070BD002044F8300F20216173A0732169D8
:102E800041F0200121612073E2E770B516460D463E
:102E900004460DE02046FFF787FF08B1012070BD12
:102EA000681C05D0FDF7E6FC801BA84207D835B1A9
:102EB00020684069C0430006ECD4002070BD0020AB
:102EC00044F8300F20216173A073216941F0200183
:102ED00021612073E2E72DE9F041002590460E467E
:102EE0000446202717E04069C043C0060CD454F8BC
:102EF000301B6FF01000486144F810596777A577D0
:102F0000206A2062257717E0FDF7B4FCA0EB0800EB
:102F1000B04208D83EB120684169C9434906E2D4AD
:102F20000020BDE8F08144F8305F6773A573206925
:102F300040F02000206125730120F2E72DE9F047E1
:102F40009A4691460E46044600254FF02008C1F3EC
:102F5000074725E020684069C043400514D4206835
:102F6000016841F40071016021686FF4806048617C
:102F7000256384F83D8084F83E50206C40F00400C6
:102F8000206484F83C501FE0B9F1FF3F08D0FDF702
:102F900071FCA0EB0A0149450CD8B9F1000F09D02A
:102FA0002068012F13D0806926EA00000004000C7D
:102FB0000BD0CFE744F8305F84F80D80A57320690B
:102FC00040F02000206125730120BDE8F0874069B2
:102FD000EAE7000030B5026A22F001020262026AEA
:102FE0004368846924F073050C682C4322F00205C1
:102FF0008A682A430A4DA8420BD122F00805CA6804
:1030000023F440732A434D6922F004021D438B6967
:103010002B434360846149684163026230BD000014
:10302000002C014030B5026A22F480720262036A09
:103030004268C46923F4007324F073050C682C43C0
:103040008D6843EA05230C4DA8420ED1CD6823F4C8
:10305000006343EA05234D6922F4405242EA051217
:103060008D6923F4806342EA05124260C4614968B5
:10307000C163036230BD0000002C014030B5026A1C
:1030800022F480520262046A4268C3690D6823F424
:10309000E64343EA05238D6824F4005444EA0534EA
:1030A000064DA84204D14D6922F4804242EA8512BD
:1030B0004260C36149680164046230BD002C014074
:1030C000826822F070020A4342F007018160704773
:1030D00010B5036A046A24F001040462846924F0D0
:1030E000F00444EA021423F00A020A4384610262F3
:1030F00010BD10B5036A23F0100303628369046AEC
:1031000023F4704343EA023224F0A00343EA01119E
:103110008261016210BD0907090E002804DB00F17D
:10312000E02080F80014704700F00F0000F1E0206C
:1031300080F8141D704710B501F01F030421046AC4
:1031400099408C430462016A9A401143016210BDA8
:1031500010B578210748FFF75FFD064800210C30C5
:10316000FFF7CAFB03480021BDE810407030FFF7AD
:1031700023BC00005006002030380A2801D201206C
:10318000704700207047FDF7BFFEFFF73FF9FEF7DD
:1031900021FEFEF71BFFFEF7E3FEFEF75DFEFEF7E6
:1031A0007BFEFEF757FFFFF767F8FFF7ABF9FCE789
:1031B00000000000000000000102030406070809E7
:1031C0000000000001020304EC31000800000020B0
:1031D0005006000028010008A8350008500600200D
:1031E000480800008401000869FFFFFF1201126413
:1031F0003205137923130801120132143A4B0C3AA9
:10320000640C5A490C32FA2B75240C2182100313DA
:1032100024F45538FCFC38430D0D230E1E931E0E6E
:103220002C20F8F803112C020F0F03111008387C22
:10323000444747CC9810080306041C1C07031330AE
:10324000301580C06030150C060301130C0C1008FB
:1032500080D87CE4BCD8401D070F080804197D996C
:103260004D5145F0F80C041C03070C1F2145040CBC
:10327000F8F01B080C4F11100980A0E0C0C0E0A0BE
:10328000801F020301010302113E80E0E0808031D3
:10329000191FB149594A80010114198E5189A03171
:1032A0001808F8FC04C424FCF8A01E0908080F073D
:1032B000473C18FCFC7F1B080FB319861684C464B6
:1032C0003C182A0E2019421808080C444444FCB843
:1032D000A63A08303FC0E0B098FCFC702931117864
:1032E000087C7C4444C4C484201808F0F84C44444E
:1032F000C08060491030080C0C0484C47C3C430F2F
:103300000F4BB8FC5069201A38401A449019803C81
:10331000080C07E263303063060659103B080E10B4
:1033200029CE331808160103060C084A4001114A39
:10333000020119271C1830608019B939F21E181CB7
:1033400004C4E4D031330D0D2808F0F808C8C8F8DB
:10335000F080150B0B0B014808E0F0988C98F0E01A
:103360009E19051B04FCA119A029DD49D0160C04E7
:10337000040C181B0307E12B0C06201B040C40292E
:103380002029B029304CE40C1C30BB0C0E10411924
:10339000404D84848C984013070F1BFCFCAE7BFCD3
:1033A000FC7021295239E05932491119A0297F298D
:1033B0000D2DC0F03C0C1E113B010F60792E2970C1
:1033C0009EFCFC3870385029109AE01029C029B0B2
:1033D000298069B07C447C386E2808F8FC04040419
:1033E000FCF8703D0E3C3F27203BC4FC20394010C8
:1033F00008183C6444C49C184C060E08911D1C0C13
:10340000FCFCE069B0196B390529B0292069102846
:10341000080103060C0603010B2A80051008030FA0
:103420000E030E0F033C0C3CF0D01A0C0C24030FBF
:103430000C7F3C7CC0C07C3C5010081C0C84C464D5
:103440003C1C3C0E0F09E0294D3A04F229F12119E8
:10345000DE63C0802C0103072019BF297411197F76
:1034600019B31A08763B060CDBD15A2001213B0325
:10347000074F8126A0A0A0E0C029C0190411194D52
:103480001B20606219CC39D01BC0E0354B6040E096
:10349000130C042D80C060247069304BC0E041697A
:1034A000206F40F8FC440C18CE2129401904111F4C
:1034B000276F48487F3FAE1DFCFC40203039AD29C6
:1034C00004115420ECEC693259121D307040403127
:1034D000193019732A201E2D01030E0CF049EF59E3
:1034E000301EE0E060C06050194B1902120F195CE9
:1034F0002A2060395C190439C069A019D069206D8F
:10350000407F7F48E029A019202D487F7F40203C44
:10351000602060A0398E100840E0A020206040109C
:1035200008040C09090B0E04472020F8FC20201980
:103530003219F02BE0E084390E1A0804490D2904F1
:103540003F03070C0C07030B29052E070F0C070C74
:10355000804B60C0D0191D7C070C08201008474F15
:103560004848683F1F1E606020A0E0201F0C0E0B23
:1035700009080CF05F4040F8BC040471399363BC47
:10358000BC29E221270404BCF8404039DE19072C8D
:103590000C040C9881196D1A3073112F070704045D
:0835A00004072221A301010030
:04000005080000ED02
:00000001FF
