:020000040800F2
:1000000060070020890100082D0400088103000812
:1000100029040008390200087B0C000800000000D9
:10002000000000000000000000000000E1080008DF
:100030003D02000800000000B5040008F5090008B2
:10004000A3010008A3010008A3010008A301000800
:10005000A3010008A3010008A3010008A3010008F0
:10006000A3010008A3010008A3010008A3010008E0
:10007000A3010008A3010008A3010008A3010008D0
:10008000A3010008A3010008A3010008A3010008C0
:10009000A3010008A3010008A3010008A3010008B0
:1000A000A3010008A3010008A3010008A3010008A0
:1000B000A3010008A3010008A3010008A301000890
:1000C000A3010008A3010008A3010008A301000880
:1000D000A3010008590A0008A3010008A3010008B1
:1000E000A3010008A3010008A301000800F002F822
:1000F00000F03AF80AA090E8000C82448344AAF188
:100100000107DA4501D100F02FF8AFF2090EBAE885
:100110000F0013F0010F18BFFB1A43F0010318473B
:100120008C240000AC240000103A24BF78C878C1A9
:10013000FAD8520724BF30C830C144BF04680C60ED
:10014000704700000023002400250026103A28BF35
:1001500078C1FBD8520728BF30C148BF0B60704739
:100160001FB51FBD10B510BD00F033F81146FFF7E5
:10017000F7FF01F061FB00F051F803B4FFF7F2FF65
:1001800003BC00F07CFD0000094880470948004797
:10019000FEE7FEE7FEE7FEE7FEE7FEE7FEE7FEE737
:1001A000FEE7FEE704480549054A064B7047000094
:1001B000F9090008ED000008600100206007002038
:1001C000600300206003002070477047704770474D
:1001D0007047754600F02CF8AE4605006946534658
:1001E00020F00700854618B020B5FFF7DBFFBDE81B
:1001F00020404FF000064FF000074FF000084FF08E
:10020000000B21F00701AC46ACE8C009ACE8C0091E
:10021000ACE8C009ACE8C0098D46704710B504468B
:10022000AFF300802046BDE81040FFF7A6BF0000F6
:10023000004870470001002000BFFEE7704701B58D
:1002400002E00098401E009000980028F9D108BDF7
:100250002DE9F0410246002500260020002300245D
:10026000002791F803C00CF00F0591F803C00CF0C3
:10027000100CBCF1000F03D091F802C04CEA050548
:1002800091F800C0BCF1000F31D0146800202BE0C1
:100290004FF0010C0CFA00F3B1F800C00CEA0306B1
:1002A0009E4220D183004FF00F0C0CFA03F7BC43A1
:1002B00005FA03FC4CEA040491F803C0BCF1280FD2
:1002C00006D14FF0010C0CFA00FCC2F814C00AE091
:1002D00091F803C0BCF1480F05D14FF0010C0CFAA6
:1002E00000FCC2F810C0401C0828D1D31460B1F83B
:1002F00000C0BCF1FF0F34DD546800202EE000F197
:10030000080C4FF0010808FA0CF3B1F800C00CEA31
:1003100003069E4221D183004FF00F0C0CFA03F725
:10032000BC4305FA03FC4CEA040491F803C0BCF199
:10033000280F05D100F1080C08FA0CF8C2F8148057
:1003400091F803C0BCF1480F07D100F1080C4FF041
:10035000010808FA0CF8C2F81080401C0828CED317
:100360005460BDE8F0810246002093680B400BB159
:10037000012000E000207047416170470161704733
:1003800000BFFEE708B50121042000F0A5F8012117
:10039000082000F0A1F80120ADF800008DF802005F
:1003A00048208DF8030069460148FFF751FF08BD5A
:1003B0000008014070B504460D4629462046FFF767
:1003C000D2FF98B94CF25030FFF739FF294620464A
:1003D000FFF7C9FF40B900BF29462046FFF7C3FF1A
:1003E0000028F9D0002070BD0120FCE70120FAE7C9
:1003F00008B50121102000F06FF84FF40050ADF85F
:10040000000010208DF8030003208DF802006946DB
:100410000448FFF71DFF4FF400510248FFF7AEFFFD
:1004200008BD00000010014000BFFEE7704700005B
:1004300070B5002100230F22C47804B3154C246842
:1004400004F4E064C4F5E064210AC1F10403CA4085
:10045000447804FA03F184781440214309010E4CD6
:100460000678A155047804F01F050124AC400578F6
:100470006D11AD0005F1E025C5F8004109E00478F3
:1004800004F01F050124AC40044D0678761145F8B0
:10049000264070BD0CED00E000E400E080E100E0EB
:1004A00002490143024A1160704700000000FA054A
:1004B0000CED00E07047000029B1064AD269024302
:1004C000044BDA6104E0034AD2698243014BDA61EA
:1004D000704700000010024029B1064A92690243A9
:1004E000044B9A6104E0034A92698243014B9A618A
:1004F000704700000010024030B5002100220024A7
:1005000000232D4D6D6805F00C0121B1042905D0A3
:10051000082923D105E0294D056022E0274D05601B
:100520001FE0254D6D6805F47012234D6D6805F4CC
:100530008034022505EB92421CB9214D55430560DC
:100540000BE01D4D6D6805F400351DB11C4D554384
:10055000056002E0194D5543056002E0174D056046
:1005600000BF00BF144D6D6805F0F0010909154D7D
:100570006B5C0568DD4045600F4D6D6805F4E0611A
:10058000090A104D6B5C4568DD4085600A4D6D6859
:1005900005F46051C90A0B4D6B5C4568DD40C560D0
:1005A000054D6D6805F44041890B074D6B5CC568CE
:1005B000B5FBF3F5056130BD0010024000127A0072
:1005C00000093D00180000202800002000B587B079
:1005D00001210820FFF780FF01218803FFF76CFF4E
:1005E0004FF46040ADF8180018208DF81B00032070
:1005F0008DF81A0006A91848FFF72AFE4FF460414B
:100600001548FFF7BBFE0020ADF804004FF48270E0
:10061000ADF806000020ADF808000220ADF80A0091
:100620000120ADF80C004002ADF80E003820ADF806
:1006300010000020ADF812000720ADF8140001A949
:10064000064800F065F80121044800F047F8FF2053
:1006500000F006F807B000BD000C01400038004073
:1006600070B50546002405E0601CC4B2C82C01DD4D
:10067000002070BD02210E4800F03CF80028F3D0A5
:1006800029460B4800F042F8002405E0601CC4B283
:10069000C82C01DD0020ECE70121054800F02AF814
:1006A0000028F3D0024800F02EF8C0B2E1E70000C5
:1006B0000038004010B50446074800884FF6C7715F
:1006C0000840054908800846008820430880012129
:1006D000014800F003F810BD0038004021B1028845
:1006E00042F04002028004E002884FF6BF731A40D5
:1006F000028070470246002013890B400BB1012095
:1007000000E000207047014688897047818170476A
:1007100010B50022028802F441520B884C88234312
:100720008C882343CC8823430C8923434C8923435F
:100730008C892343CC8923431A430280838B4FF255
:10074000FF74234083830B8A038210BD10B5002001
:1007500061490860782000F0B7FA01205F49C1F8CC
:100760008401782000F0B0FA112001F059F87820C7
:1007700000F0AAFA362001F053F8002001F044F806
:100780003A2001F04DF8652001F03EF8B22001F06A
:1007900047F80C2001F038F80C2001F035F8002063
:1007A00001F032F8332001F02FF8332001F02CF85B
:1007B000B72001F035F8722001F026F8BB2001F0D7
:1007C0002FF83D2001F020F8C02001F029F82C205E
:1007D00001F01AF8C22001F023F8012001F014F80A
:1007E000C32001F01DF8192001F00EF8C42001F01B
:1007F00017F8202001F008F8C62001F011F80F20AA
:1008000001F002F8D02001F00BF8A42000F0FCFF6A
:10081000A12000F0F9FFE02001F002F8D02000F064
:10082000F3FF042000F0F0FF0D2000F0EDFF112099
:1008300000F0EAFF132000F0E7FF2B2000F0E4FFB8
:100840003F2000F0E1FF542000F0DEFF4C2000F0DC
:10085000DBFF182000F0D8FF0D2000F0D5FF0B20A3
:1008600000F0D2FF1F2000F0CFFF232000F0CCFFCC
:10087000E12000F0D5FFD02000F0C6FF042000F0FA
:10088000C3FF0C2000F0C0FF112000F0BDFF1320BB
:1008900000F0BAFF2C2000F0B7FF3F2000F0B4FFBB
:1008A000442000F0B1FF512000F0AEFF2F2000F0F7
:1008B000ABFF1F2000F0A8FF1F2000F0A5FF2020A5
:1008C00000F0A2FF232000F09FFF212000F0A8FFEE
:1008D000292000F0A5FF10BD848121420080214223
:1008E000704710B500F002F810BD00000CB50020F4
:1008F000019000903348006840F48030314908602E
:1009000000BF3048006800F4003000900198401C9F
:100910000190009818B90198B0F5A06FF1D129485D
:10092000006800F4003010B10120009001E00020C8
:1009300000900098012843D12348006840F010003F
:10094000214908600846006820F003000860084656
:10095000006840F0020008601A4840681949486081
:100960000846406848600846406840F48060486037
:100970000846406820F47C1048600846406840F40F
:10098000E81048600846006840F08070086000BFCA
:100990000C48006800F000700028F9D00948406851
:1009A00020F00300074948600846406840F0020014
:1009B000486000BF0348406800F00C000828F9D1E7
:1009C0000CBD00000010024000200240042808D1A5
:1009D0004FF0E021096941F004014FF0E02211617C
:1009E00007E04FF0E021096921F004014FF0E02217
:1009F000116170477047000010B51348006840F05F
:100A000001001149086008464068104908400E4935
:100A10004860084600680E4908400B4908600846CF
:100A2000006820F4802008600846406820F4FE003A
:100A300048604FF41F008860FFF753FF4FF00060DD
:100A40000449086010BD0000001002400000FFF8DB
:100A5000FFFFF6FE08ED00E010B540F225511D48FD
:100A600000F04AF810B31B4800F002F9C4B21A486B
:100A7000008800F40040C8B91748008800F480409E
:100A800060B10A2C03D000201349088020E01248EE
:100A9000008840F400401049088019E00D2C06D170
:100AA0000D48008840F480400B49088010E00A4857
:100AB0000088C0F30D0009490C5407480088401C09
:100AC0000549088008460088C72801DD0020088005
:100AD00010BD000000380140340000203800002024
:100AE00021B1828942F40052828104E082894DF66C
:100AF000FF731A408281704770B5024600240023BC
:100B00000025002040F66A16B14200D100BFC1F3B3
:100B1000421501F01F03012606FA03F3012D02D14D
:100B20009689334006E0022D02D1168A334001E057
:100B3000968A33400C12012606FA04F416883440D3
:100B400013B10CB1012000E0002070BDF0B50346E8
:100B5000002400260025002040F66A17B94200D183
:100B600000BF1846C1F3421401F01F06012707FA1F
:100B700006F5012C01D10C3004E0022C01D110301B
:100B800000E014301AB107682F43076002E00768DD
:100B9000AF430760F0BD00002DE9F04786B0054681
:100BA0000E460024A24600BFA1460027B08900B12E
:100BB00000BF2F462C8A4CF6FF700440F088044397
:100BC0002C82AC894EF6F3100440B088318908437A
:100BD000718908430443AC81AC8A4FF6FF4004405E
:100BE000B0890443AC8201A8FFF786FC1F48874206
:100BF00002D1DDF810A001E0DDF80CA0A88900F416
:100C0000004040B10AEBCA0000EB0A10316849000D
:100C1000B0FBF1F807E00AEBCA0000EB0A103168FC
:100C20008900B0FBF1F86420B8FBF0F00401200962
:100C3000642101FB1089A88900F4004040B13220F2
:100C400000EBC900B0FBF1F000F00700044308E03E
:100C5000322000EB09106421B0FBF1F000F00F002E
:100C600004432C8106B0BDE8F08700000038014045
:100C700001468888C0F30800704700BFFEE70146C0
:100C800000BF704710B56FF00400FFF79FFE0A48E1
:100C900000680A49B0FBF1F009490870084600787D
:100CA00000EB4001C1EBC0104FF6FF7101EAC0003C
:100CB0000449088010BD00000400002000127A00E2
:100CC0002C0000202E0000200146114A12884A43C1
:100CD0004FF0E0235A6100229A611A46126942F0ED
:100CE00001021A6100BF4FF0E022106900F001021A
:100CF0001AB100F48032002AF5D04FF0E0221269D8
:100D000022F001024FF0E0231A6100229A6170473D
:100D10002E0000202DE9FF4F83B081460E46174676
:100D2000DDE910AB129CB9F80800B0420FDDB9F84C
:100D30000A00B8420BDD062000FB0460401E0028BC
:100D400005D4082000FB0470401E002802D507B01F
:100D5000BDE8F08F002552E0052D02D10020029061
:100D600007E0069800EB800027490844405D40B248
:100D700002904FF000083DE0029800F00100C0B181
:100D8000012C09D107EB080002B2701901B25346D9
:100D9000484600F01FFA26E008FB047082B205FB0B
:100DA000046081B223464846CDE9004A00F08CFB3E
:100DB00019E0D34517D0012C09D107EB080002B286
:100DC000701901B25B46484600F004FA0BE008FBDC
:100DD000047082B205FB046081B223464846CDE927
:100DE000004B00F071FB02984010029008F10100E6
:100DF0004FFA80F8B8F1080FBEDB681C45B2062D2B
:100E0000AADB00BFA3E70000B02000082DE9FF5FC8
:100E10000D4616469846C8F101000FFA80F94FF0CA
:100E2000010A4FEA480040420FFA80FB002744467F
:100E300006EB080002B229460E9B009800F0CAF9A2
:100E4000A6EB080002B229460E9B009800F0C2F9FA
:100E500005EB080001B232460E9B009800F0BAF98B
:100E6000A5EB080001B232460E9B009800F0B2F9E3
:100E700056E0B9F1000F09DB601E04B20BF102006D
:100E80000FFA80FB09EB0B000FFA80F9781C07B210
:100E90000AF102000FFA80FA09EB0A000FFA80F952
:100EA000301902B2E81901B20E9B009800F092F9D5
:100EB000301902B2E81B01B20E9B009800F08AF9CB
:100EC000301B02B2E81901B20E9B009800F082F9C3
:100ED000301B02B2E81B01B20E9B009800F07AF9B9
:100EE000F01902B2281901B20E9B009800F072F9B5
:100EF000F01902B2281B01B20E9B009800F06AF9AB
:100F0000F01B02B2281901B20E9B009800F062F9A2
:100F1000F01B02B2281B01B20E9B009800F05AF998
:100F2000A742A6DBBDE8FF9F2DE9FF4F81B00E462B
:100F300017469846DDF83890C8F101000FFA80FA9C
:100F40004FF0010B4FEA4800404200B200900024ED
:100F5000454662E0BAF1000F09DB681E05B2009851
:100F6000801C00B20090009850440FFA80FA601C78
:100F700004B20BF102000FFA80FB0AEB0B000FFA30
:100F800080FA09F0040078B1781902B2301901B280
:100F90000F9B019800F01EF9381902B2701901B2C6
:100FA0000F9B019800F016F909F0020078B1781B48
:100FB00002B2301901B20F9B019800F00BF9381BF7
:100FC00002B2701901B20F9B019800F003F909F009
:100FD000080078B1381902B2701B01B20F9B01985A
:100FE00000F0F8F8781902B2301B01B20F9B01989B
:100FF00000F0F0F809F0010078B1381B02B2701B64
:1010000001B20F9B019800F0E5F8781B02B2301B8B
:1010100001B20F9B019800F0DDF8AC429ADB05B0FD
:10102000BDE8F08F2DE9F84305460C4616461F46ED
:10103000DDF820802889A04202DD6889B04201DC09
:10104000BDE8F883E019401E2989884202DB28891F
:10105000001B07B2F0B20090E019401EC3B2F2B21A
:10106000E1B2284600F062FD01200949086007E06E
:101070004FEA2820FFF7F4FA08F0FF00FFF7F0FA34
:10108000381EA7F101010FB2F2D100BFD8E700006E
:10109000808121422DE9F84305460E4614461F463D
:1010A000DDF820802889B04202DD6889A04201DC99
:1010B000BDE8F883E019401E6989884202DB68892F
:1010C000001B07B2E019401EC0B2F3B2E2B2F1B2A7
:1010D0000090284600F02AFD01200949086007E039
:1010E0004FEA2820FFF7BCFA08F0FF00FFF7B8FA34
:1010F000381EA7F101010FB2F2D100BFD8E70000FE
:10110000808121422DE9FF4F81B00D4614461E46D5
:101110000E9F381B002801DD381B00E0E01B711B0F
:10112000002901DD711B00E0A91B884201DD0120BF
:1011300000E000200090009830B128462546044683
:1011400030463E46074600BFB54206DD28463546D6
:10115000064620463C46074600BF701B0FFA80F843
:10116000381B002801DD381B00E0E01B0FFA80FB74
:10117000404608EBD07149100FFA81F9BC4202DAFF
:101180004FF0010A01E04FF0FF3A1EE0009830B145
:101190002A4621460F9B019800F01CF805E02246E4
:1011A00029460F9B019800F015F8A9EB0B000FFAE8
:1011B00080F9B9F1000F06DA04EB0A0004B209EB7A
:1011C00008000FFA80F9681C05B2B542DEDD05B0F3
:1011D000BDE8F08FF8B506460C4615461F46002CB4
:1011E00007DB3089A04204DD002D02DB7089A842B4
:1011F00000DCF8BD681CC0B20090601CC3B2EAB24B
:10120000E1B2304600F092FC012005490860381236
:10121000FFF726FAF8B2FFF723FA00BFE9E700006C
:10122000808121422DE9F84381460D4616461F462E
:10123000DDE908843B463246294648460094FFF7DC
:10124000F1FE06EB0800401E02B23B462946484626
:101250000094FFF7E7FE434632462946484600948D
:10126000FFF718FFE819401E01B2434632464846D0
:101270000094FFF70FFFBDE8F8832DE9FC47824695
:101280000D4616469846DDE90A940C9F022000FBA5
:10129000148003B2281901B2324650460097FFF776
:1012A000C1FE022000FB148003B206EB0900401EC1
:1012B00002B2281901B250460097FFF7B3FE022090
:1012C00000FB149003B2301902B229465046009731
:1012D000FFF7E0FE022000FB149003B2301902B2C7
:1012E00005EB0800401E01B250460097FFF7D2FE02
:1012F0000120CDE90007301902B2281901B22346B6
:101300005046FFF711FE0220CDE90007301902B266
:1013100005EB0800001B401E01B223465046FFF7B4
:1013200003FE0420CDE9000706EB0900001B401E68
:1013300002B205EB0800001B401E01B223465046D6
:10134000FFF7F2FD0820CDE9000706EB0900001BBE
:10135000401E02B2281901B223465046FFF7E4FDB1
:10136000BDE8FC872DE9FC5F83460D4616461F4607
:10137000DDE90D9ADDF830800F9C3B463246294668
:101380005846CDE90084FFF7BDFE4B46424639463C
:101390005846CDE900A4FFF7B5FE2B465246494614
:1013A0005846CDE90064FFF7ADFEBDE8FC9F2DE98E
:1013B000FE430746884615461C460A9E6000401CB0
:1013C00003B2281B02B2414638460096FFF762FE80
:1013D0000020032123462A46CDE90106009141461B
:1013E000384600F002F8BDE8FE832DE9FF4F83B0D8
:1013F0000E4617469846DDE9119AC8F101000FFA2A
:1014000080FB012002904FEA4800404200B2019068
:101410000024454652E0BBF1000F09DB681E05B20F
:101420000198801C00B20190019858440FFA80FB8B
:10143000601C04B20298801C00B2029002985844CA
:101440000FFA80FB109800F00100C8B16800401C42
:10145000484403B2781B02B2301901B2CDF800A0A3
:101460000398FFF717FE6000401C484403B2381B86
:1014700002B2701901B2CDF800A00398FFF70AFE7E
:10148000109800F00200C8B16800401C484403B244
:10149000781B02B2301B01B2CDF800A00398FFF711
:1014A000F9FD6000401C484403B2381B02B2701BB7
:1014B00001B2CDF800A00398FFF7ECFDAC42AADB27
:1014C00007B0BDE8F08F00002DE9F84F06460C4646
:1014D00015461F46DDE90A893089A04202DD708980
:1014E000A84201DCBDE8F88FE019401E318988422E
:1014F00002DB3089001B87B205EB0800401E7189B2
:10150000884203DB7089401B1FFA80F805EB080056
:10151000401EC0B20090E019401EC3B2EAB2E1B270
:10152000304600F003FB4FEA292A09F0FF0B0120A7
:101530000A49086045460DE03C4607E05046FFF783
:101540008FF85846FFF78CF8601E84B2002CF5DC4B
:10155000681E85B2002DEFDC00BFC3E78081214209
:101560002DE9FE4F82460D4616461F46DDE90D4920
:10157000DDF830801FFA88F0CDE90009022000FB79
:10158000147083B2B2B2281981B25046FFF79CFFA3
:10159000022000FB1480401E00B20121CDE90109A8
:1015A0000091301902B2E819001B401E01B2234617
:1015B0005046FFF71AFF022000FB1480401E00B2C5
:1015C0000221CDE901090091301902B2281901B2B6
:1015D00023465046FFF709FFBDE8FE8F7CB5044661
:1015E0000D466089CDE90005238900221146204679
:1015F000FFF76AFF7CBD2DE9FF4F8BB0884691460F
:101600001D46DDE9184BA14506DD4846A1460446C6
:101610004046A846054600BF1A98844206DD1A983F
:101620001A9404465846AB46054600BFA14506DD60
:101630004846A14604464046A846054600BF1A98BB
:1016400081451CD146463746B54201DA2E4602E0B6
:10165000BD4200DD2F46B34501DA5E4602E0BB45E0
:1016600000DD5F461B980090B81B401C03B24A4641
:1016700031460B98FFF7D6FC0FB0BDE8F08FA5EB15
:10168000080000B20990A4EB090000B20890ABEB8F
:10169000080000B207901A98A0EB090000B206906B
:1016A000ABEB050000B205901A98001B00B2049045
:1016B0000020039002901A98844201D10A9402E01B
:1016C000601E00B20A90CA4629E00899039890FB70
:1016D000F1F0404406B20699029890FBF1F04044C4
:1016E00007B209990398084400B203900799029839
:1016F000084400B20290BE4203DD30463E46074633
:1017000000BF1B980090B81B401C03B252463146E4
:101710000B98FFF787FC0AF101000FFA80FA0A988C
:101720008245D2DDAAEB04000599484300B203903C
:10173000AAEB09000799484300B2029029E0DDE9CD
:10174000030190FBF1F0284406B20699029890FB41
:10175000F1F0404407B205990398084400B20390A1
:1017600007990298084400B20290BE4203DD304659
:101770003E46074600BF1B980090B81B401C03B2B2
:10178000524631460B98FFF74DFC0AF101000FFA63
:1017900080FA1A988245D2DD00BF6DE710B5044685
:1017A0000CB1212100E02021084600F039F810BDDD
:1017B000F8B504460F4615461E460020208060807E
:1017C000A080E08027816581267301210820FEF733
:1017D00083FE0320ADF8000010208DF803000320E5
:1017E0008DF8020069460748FEF732FD03210548DF
:1017F000FEF7C2FDFEF7EAFE0020FEF75BFFFEF7F4
:10180000A5FFF8BD000C014010B5044601200349B6
:1018100008602046FEF724FF10BD000080812142B1
:1018200010B504460020034908602046FEF718FF63
:1018300010BD00008081214288B0FFF723FA4FF4E9
:10184000A060FEF72DFE4FF4E13000F0E1FBFEF763
:10185000CFFDFEF797FD002430254FF478406A490C
:1018600008800023F022114604A8FFF7A1FF0221FF
:1018700004A800F09DF91F2104A8FFF7AFFE4FF464
:10188000FA70FFF721FABDF81A6006EBD670401027
:1018900002B2BDF8187007EBD770401001B24FF4D8
:1018A000FC6304A8FFF796FC4FF4FA70FFF70CFAFC
:1018B0004FF6E07104A800F098FA4FF4FA70FFF7C1
:1018C00003FA4FF478424FF4FC6104A800F0F9F9F0
:1018D0004FF4FA70FFF7F8F94FF4FC6104A800F038
:1018E000C3F94FF4FA70FFF7EFF94FF61F024FF606
:1018F000E07104A800F02EFA4FF4FA70FFF7E4F953
:10190000002104A8FFF76AFE1F220A2104A800F0A4
:1019100002FA4FF6FF720A2104A800F084F94FF48E
:10192000FA70FFF7D1F904A800F009FB4FF4FA7040
:10193000FFF7CAF904A800F03AFB4FF4FA70FFF77A
:10194000C3F904A800F066F84FF4FA70FFF7BCF989
:101950004AF2145104A8FFF741FE4FF4784078236F
:101960001A461946009004A8FFF721FD4FF6FF70B4
:10197000642378221146009004A8FFF718FD4FF465
:101980007840502378221146009004A8FFF70FFDFD
:101990001F203C2378221146009004A8FFF707FD82
:1019A00031E001211948FEF705FD01282BD1002463
:1019B00027E04FF400511648FEF7DEFC0020FFF749
:1019C000EDFE4FF4FA70FFF77FF90A201F214FF662
:1019D000FF72CDE9002102902819C3B2582262217A
:1019E00004A8FFF797F94FF400510948FEF7C6FC29
:1019F0000120FFF7D3FE4FF4FA70FFF765F9601C82
:101A0000C4B20A2CD5DBCCE700000020000801405E
:101A1000001001401FB5044600212046FFF7DEFDFF
:101A20004FF6FF7008213C224E23CDE900210290A1
:101A30000A2219212046FFF793FD4FF47840282110
:101A40005A223C23CDE90032CDE902102A23142288
:101A500019462046FFF7CFFD4FF4FA70FFF734F92F
:101A60004FF6FF7008213C224E23CDE90021029061
:101A70005A2219212046FFF773FD4FF4FC6005211F
:101A80002D221423CDE90021029062222721204635
:101A9000FFF766FD4FF4FC6005212D221423CDE9EC
:101AA00000210290622245212046FFF759FD4FF4A4
:101AB000FA70FFF709F91F2028215A223C23CDE9AB
:101AC0000032CDE902102A23142219462046FFF7DE
:101AD00092FD3220FFF7F8F84FF4784005212D22CF
:101AE0001423CDE900210290622227212046FFF72E
:101AF00037FD4FF4784005212D221423CDE9002134
:101B00000290622245212046FFF72AFD4FF4FC6037
:101B100028215A223C23CDE90032CDE902102A23A4
:101B2000142219462046FFF766FD1FBD2DE9F05F20
:101B300004460D4616461F46A08828441FFA80F822
:101B4000A08838441FFA80F9E08830441FFA80FAF0
:101B5000E1880A9808441FFA80FB2A20FFF760FEFC
:101B60004FEA2820FFF750FE08F0FF00FFF74CFE79
:101B70004FEA2920FFF748FE09F0FF00FFF744FE77
:101B80002B20FFF74DFE4FEA2A20FFF73DFE0AF01B
:101B9000FF00FFF739FE4FEA2B20FFF735FE0BF071
:101BA000FF00FFF731FE2C20FFF73AFEBDE8F09F63
:101BB00070B504460D463620FFF732FE2846E91779
:101BC00005EB91718910A5EB81012173207B30B168
:101BD00001280DD0022814D0032822D119E0C020FA
:101BE000FFF712FE2088A08060885030E08018E067
:101BF000A020FFF709FE2088E08060885030A08098
:101C00000FE00020FFF700FE2088A0806088E080C1
:101C100007E06020FFF7F8FD2088E0806088A08062
:101C200000BF00BF70BD2DE9F84305460C46904645
:101C3000002613E000270AE023463A4631462846AC
:101C4000CDF80080FFF7E2F807EB440007B268899F
:101C50002044B842F0DC06EB440006B22889204458
:101C6000B042E7DCBDE8F8832DE9FC4705460F46A6
:101C700000212846FFF7B2FC00241DE0CDE9004713
:101C8000B5F80A8008EBD8704010264604EBD673EE
:101C9000A0EB630002B2B5F808A00AEBDA704010BE
:101CA000A14604EBD973A0EB630001B2234628469A
:101CB000FFF7B8FAA01D04B22889A042DEDCBDE817
:101CC000FC872DE9F84304460F4690460021204644
:101CD000FFF784FC002609E00097208903B2324612
:101CE00000212046FFF79EF9701D06B26089B042C0
:101CF000F2DC00250AE0CDF80080608903B2002202
:101D000029462046FFF7C6F9681D05B22089A8427A
:101D1000F1DCBDE8F8832DE9F84305460C46904612
:101D2000264612E027460AE023463A463146284630
:101D3000CDF80080FFF73BFB07EB440007B2688952
:101D4000B842F1DC06EB440006B22889B042E9DC77
:101D5000BDE8F8832DE9FC5F05460F46904600215B
:101D60002846FFF73BFC2889401E04B239E0A0B2A8
:101D7000CDE90007B5F80AA00AEBDA704010264654
:101D800004EBD67CA0EB6C0082B2B5F808B00BEB8C
:101D9000DB704010A14604EBD97CA0EB6C0081B253
:101DA000A3B22846FFF790FBCDE90048B5F80A90AA
:101DB00009EBD970401004EBD673A0EB630002B2BC
:101DC000B5F808B00BEBDB704010A24604EBDA73F9
:101DD000A0EB630001B223462846FFF723FAA01FB9
:101DE00004B2062CC3DCBDE8FC9F2DE9FC4104468F
:101DF0000E4600212046FFF7F1FB00270CE060892A
:101E0000401E00B23B4600221146CDE900062046A6
:101E1000FFF778F9B81D07B22089B842EFDC00253A
:101E20000BE0CDE900562089401E03B20022114686
:101E30002046FFF767F9A81D05B26089A842F0DCCB
:101E400000212046FFF7CAFB00270EE06089401EF4
:101E500000B2CDE900062089401E01B23B460022B7
:101E60002046FFF74FF9B81D07B22089B842EDDCD4
:101E700000250BE0CDE900562089401E01B2002369
:101E80001A462046FFF73EF9A81D05B26089A84210
:101E9000F0DC00212046FFF7A1FB00270CE000202A
:101EA000CDE900066089401E02B23B460021204673
:101EB000FFF728F9B81D07B22089B842EFDC0025EA
:101EC0000DE0CDE900562089401E03B26089401E16
:101ED00002B200212046FFF715F9A81D05B260895E
:101EE000A842EEDC00212046FFF778FB00270EE039
:101EF0000020CDE900066089401E02B22089401E04
:101F000001B23B462046FFF7FDF8B81D07B2208915
:101F1000B842EDDC00250DE0CDE900566089401E99
:101F200002B22089401E01B200232046FFF7EAF8E2
:101F3000A81D05B26089A842EEDCBDE8FC812DE950
:101F4000FE4F0446642500212046FFF747FB00278B
:101F500029E04FF00008C1462089A0F1020A6089FB
:101F6000A0F1020B00261AE0A8B205220FFA8BF1AD
:101F70000FFA8AF3CDE9001202900FFA89F20FFAF4
:101F800088F12046FFF779F908F1020809F1030901
:101F9000AAF1040AABF1060B05F24C45761C102E93
:101FA000E2DD64357F1C042FD3DDBDE8FE8F2DE913
:101FB000FF4704464FF47847208900EBD0714FEA81
:101FC000610A6089451E0026B4F808900021204669
:101FD000FFF704FBB04616E0B8B229B20FFA89F257
:101FE0002BB2CDE90032CDE9021033B232B20FFA92
:101FF0008AF12046FFF7B6F92D1F361DA9F1040915
:10200000643708F10108B8F10F0FE5DDBDE8FF877F
:1020100010B586B00446012144F20400FEF75CFAD4
:102020004FF40070ADF8140003208DF8160018204E
:102030008DF8170005A91C48FEF70AF94FF48060D7
:10204000ADF8140004208DF8170005A91648FEF716
:10205000FFF825208DF8000003208DF801008DF891
:10206000020001208DF803006846FEF7E1F90194B3
:102070000020ADF80800ADF80A00ADF80C00ADF88E
:1020800010000C20ADF80E0001A90848FEF784FDF1
:10209000012240F225510548FEF758FD0121034871
:1020A000FEF71EFD06B010BD0008014000380140DB
:1020B00000000000003E5B4F5B3E3E6B4F6B3E1CE2
:1020C0003E7C3E1C183C7E3C181C577D571C1C5EF9
:1020D0007F5E1C00183C1800FFE7C3E7FF001824D0
:1020E0001800FFE7DBE7FF30483A060E262979297A
:1020F00026407F050507407F05253F5A3CE73C5AAF
:102100007F3E1C1C08081C1C3E7F14227F22145F8B
:102110005F005F5F06097F017F006689956A6060E6
:1021200060606094A2FFA29408047E040810207EE0
:10213000201008082A1C08081C2A08081E10101065
:10214000100C1E0C1E0C30383E3830060E3E0E06AB
:10215000000000000000005F0000000700070014FE
:102160007F147F14242A7F2A1223130864623649BD
:102170005620500008070300001C224100004122A5
:102180001C002A1C7F1C2A08083E080800807030AA
:102190000008080808080000606000201008040219
:1021A0003E5149453E00427F40007249494946211F
:1021B00041494D331814127F1027454545393C4A93
:1021C00049493141211109073649494936464949AA
:1021D000291E0000140000004034000000081422F2
:1021E0004114141414140041221408020159090660
:1021F0003E415D594E7C1211127C7F494949363E61
:10220000414141227F4141413E7F494949417F0946
:102210000909013E414151737F0808087F00417F51
:1022200041002040413F017F081422417F4040404F
:10223000407F021C027F7F0408107F3E4141413EE7
:102240007F090909063E4151215E7F091929462669
:102250004949493203017F01033F4040403F1F206D
:1022600040201F3F4038403F631408146303047844
:1022700004036159494D43007F4141410204081064
:1022800020004141417F040201020440404040409F
:10229000000307080020545478407F28444438380D
:1022A00044444428384444287F385454541800087F
:1022B0007E090218A4A49C787F0804047800447D59
:1022C00040002040403D007F1028440000417F40F6
:1022D000007C047804787C0804047838444444384A
:1022E000FC1824241818242418FC7C08040408482A
:1022F0005454542404043F44243C4040207C1C207B
:1023000040201C3C4030403C44281028444C9090D5
:10231000907C4464544C440008364100000077002F
:1023200000004136080002010204023C2623263C3C
:102330001EA1A161123A4040207A385454555921C7
:1023400055557941215454784121555478402054B1
:102350005579400C1E5272123955555559395454FD
:10236000545939555454580000457C410002457D6C
:10237000420001457C40F0292429F0F0282528F06E
:102380007C545545002054547C547C0A097F4932C2
:10239000494949323248484832324A4848303A413D
:1023A00041217A3A42402078009DA0A07D394444E2
:1023B00044393D4040403D3C24FF2424487E49436D
:1023C000662B2FFC2F2BFF0929F620C0887E0903DE
:1023D00020545479410000447D413048484A323805
:1023E0004040227A007A0A0A727D0D19317D262931
:1023F000292F28262929292630484D402038080829
:10240000080808080808382F10C8ACBA2F1028345C
:10241000FA00007B000008142A142222142A14084F
:10242000AA005500AAAA55AA55AA000000FF00104C
:102430001010FF00141414FF001010FF00FF101004
:10244000F010F0141414FC001414F700FF0000FF47
:1024500000FF1414F404FC141417101F10101F10A4
:102460001F1414141F00101010F0000000001F10A3
:102470001010101F10101010F010000000FF1010AE
:1024800010101010101010FF10000000FF140000BA
:10249000FF00FF00001F10170000FC04F4141417C5
:1024A00010171414F404F40000FF00F714141414AB
:1024B000141414F700F7141414171410101F101F1D
:1024C000141414F4141010F010F000001F101F006A
:1024D00000001F14000000FC140000F010F01010A9
:1024E000FF10FF141414FF141010101F0000000040
:1024F000F010FFFFFFFFFFF0F0F0F0F0FFFFFF0034
:1025000000000000FFFF0F0F0F0F0F384444384446
:102510007C2A2A3E147E02020606027E027E0263A6
:10252000554941633844443C04407E201E20060245
:102530007E020299A5E7A5991C2A492A1C4C720122
:10254000724C304A4D4D303048784830BC625A4663
:102550003D3E494949007E0101017E2A2A2A2A2A54
:1025600044445F444440514A444040444A5140003E
:1025700000FF0103E080FF000008086B6B083612C3
:10258000362436060F090F06000018180000001048
:1025900010003040FF0101001F01011E00191D172E
:1025A00012003C3C3C3C000000000000CC25000830
:1025B0000000002038000000280100080426000860
:1025C0003800002028070000440100080000FFFF39
:1025D00000A24A0400000000000000000102030401
:1025E00006070809000000000102030401020304B9
:1025F00006070809020406080000000000000000A9
:0426000000000000D6
:04000005080000ED02
:00000001FF
