:020000040800F2
:10000000001F0020C9010008ED050008E7040008F2
:10001000E9050008490300086F23000800000000FC
:10002000000000000000000000000000551F000854
:100030004D03000800000000570200086920000876
:10004000E3010008E3010008E3010008E301000800
:10005000E3010008E3010008E30100085103000880
:1000600079030008E3010008E3010008E301000848
:10007000E3010008E3010008E3010008E3010008D0
:10008000E3010008E3010008E3010008E3010008C0
:10009000E3010008E3010008E3010008E3010008B0
:1000A000E3010008E3010008E3010008E3010008A0
:1000B000E3010008E3010008E3010008E301000890
:1000C000E3010008E3010008E3010008E301000880
:1000D000E301000845210008E3010008E3010008EE
:1000E000E3010008E3010008E301000800F002F862
:1000F00000F05AF80AA090E8000C82448344AAF168
:100100000107DA4501D100F04FF8AFF2090EBAE865
:100110000F0013F0010F18BFFB1A43F0010318473B
:1001200050C3000070C300000A444FF0000C10F8E8
:10013000013B13F0070408BF10F8014B1D1108BF65
:1001400010F8015B641E05D010F8016B641E01F805
:10015000016BF9D113F0080F1EBF10F8014BAD1C55
:100160000C1B09D16D1E58BF01F801CBFAD505E073
:1001700014F8016B01F8016B6D1EF9D59142D6D3CD
:10018000704700000023002400250026103A28BFF5
:1001900078C1FBD8520728BF30C148BF0B607047F9
:1001A0001FB51FBD10B510BD00F0A0F81146FFF738
:1001B000F7FF03F08DFB00F0BEF803B4FFF7F2FF8A
:1001C00003BC02F01BFC00000948804709480047B7
:1001D000FEE7FEE7FEE7FEE7FEE7FEE7FEE7FEE7F7
:1001E000FEE7FEE704480549054A064B7047000054
:1001F00085200008ED00000800190020001F0020E5
:10020000001B0020001B0020EFF3108072B6704727
:1002100080F310887047204C204D25604FF000047B
:1002200084F309881E4C4FF0010525701D4C4FF0DA
:100230008055256062B6FEE730B41A4C4FF0805509
:10024000256030BC704730B4164C4FF080552560A7
:1002500030BC704700BF72B6EFF3098028B1203878
:1002600080E8F00F10490968086000B50F48804722
:100270005DF804EB0E480F490A7802700A480E49EF
:100280000A680260106890E8F00F203080F3098857
:100290004EF0040E62B6704720ED00E00000FFFF54
:1002A0003201002004ED00E038010020210F000899
:1002B00027010020280100204001002070477047DE
:1002C00070477047704710B500F008F8006810BD1F
:1002D00010B5044600F002F8046010BD00487047F5
:1002E0009C180020004870479C1800207546FFF7B6
:1002F000F9FFAE4605006946534620F007008546E3
:1003000018B020B5FFF76EFFBDE820404FF00006A3
:100310004FF000074FF000084FF0000B21F00701ED
:10032000AC46ACE8C009ACE8C009ACE8C009ACE830
:10033000C0098D46704710B50446AFF300802046D3
:10034000BDE81040FFF739BF00BFFEE7704700006F
:1003500010B500F0AFF90748006808B9012000E0C7
:10036000002004490860022000F014F800F0B4F9FD
:1003700010BD0000B401224210B5042000F010F8B6
:10038000012805D10A2002F0B9FB042000F002F890
:1003900010BD0000014908607047000014040140CE
:1003A000014600200022074B1B6803EA0102054BAF
:1003B00014331B680B4013B10AB1012000E0002088
:1003C00070470000000401402DE9F041024600257D
:1003D0000026002000230024002791F803C00CF021
:1003E0000F0591F803C00CF0100CBCF1000F03D006
:1003F00091F802C04CEA050591F800C0BCF1000F6D
:1004000031D0146800202BE04FF0010C0CFA00F3FF
:10041000B1F800C00CEA03069E4220D183004FF0E1
:100420000F0C0CFA03F7BC4305FA03FC4CEA040476
:1004300091F803C0BCF1280F06D14FF0010C0CFA63
:1004400000FCC2F814C00AE091F803C0BCF1480FE8
:1004500005D14FF0010C0CFA00FCC2F810C0401C92
:100460000828D1D31460B1F800C0BCF1FF0F34DD0F
:10047000546800202EE000F1080C4FF0010808FA43
:100480000CF3B1F800C00CEA03069E4221D18300B0
:100490004FF00F0C0CFA03F7BC4305FA03FC4CEACF
:1004A000040491F803C0BCF1280F05D100F1080C39
:1004B00008FA0CF8C2F8148091F803C0BCF1480F98
:1004C00007D100F1080C4FF0010808FA0CF8C2F847
:1004D0001080401C0828CED35460BDE8F0814161F3
:1004E00070470161704700BFFEE700001CB50121A5
:1004F000042001F01BFB0120ADF804008DF806007C
:1005000048208DF8070001A91948FFF75DFF012178
:10051000042001F00BFB0620ADF8040002208DF84A
:10052000060004208DF8070001A91148FFF74CFFD1
:100530000121082001F0FAFAC020ADF800000420E3
:100540008DF8030002208DF8020069460948FFF784
:100550003BFF0121042001F0D9FA022300220321EC
:10056000054801F0CBFD0121034801F0BBFD1CBD96
:1005700000080140000C0140000800400246052A26
:1005800004D0062A06D0072A0FD10AE0032900D199
:1005900006200AE0032900D10720042900D1052004
:1005A00003E0042900D1062000BF00BF704700000F
:1005B00008B50121102001F0B9FA4FF40050ADF850
:1005C000000010208DF8030003208DF8020069461A
:1005D0000448FFF7F9FE4FF400510248FFF781FF8E
:1005E00008BD00000010014000BFFEE7704700009A
:1005F00070B5002100230F22C47804B3154C246881
:1006000004F4E064C4F5E064210AC1F10403CA40C3
:10061000447804FA03F184781440214309010E4C14
:100620000678A155047804F01F050124AC40057834
:100630006D11AD0005F1E025C5F8004109E0047831
:1006400004F01F050124AC40044D0678761145F8EE
:10065000264070BD0CED00E000E400E080E100E029
:1006600002490143024A1160704700000000FA0588
:100670000CED00E010B500F015F800F0CBFF00F035
:10068000F3FF01F013F800F09BFF00F06DFF01F0A5
:10069000A7F801F04BF801F071F800F0A5FD00F0AB
:1006A00007F810BD00200149088070476C01002048
:1006B0007047000006480078012808D105480078F6
:1006C000FF2804D203480078401C02490870704794
:1006D000320100202501002010B500241A480078BE
:1006E000012830D1FFF790FD04461848007820B16A
:1006F00016480078401E1549087014480078F8B96B
:1007000013480078E0B901F0CDF812481249097891
:1007100050F82100114908600F4800781049097805
:1007200088420DD00D480068806B401C0B49096859
:1007300088630C480068401C0A490860FFF783FD85
:100740002046FFF765FD10BD320100202501002085
:1007500026010020740E0020280100204001002006
:10076000270100200C01002070B5054600260F4827
:10077000007808B1002070BDFFF746FD06460C4822
:100780000468006820B10A480068406808490860A9
:100790003046FFF73DFD3CB1012020700020208154
:1007A0006560204600F0D2FE2046E4E725010020E7
:1007B000100100202DE9F04105460F4614464FF088
:1007C00000082878012804D0012020700020BDE80E
:1007D000F0813648007818B1022020700020F6E73A
:1007E0003348007818B10D2020700020EFE7FFF7A4
:1007F0000BFD80466E6846B1002068604046FFF7FA
:1008000007FD002020703046E1E72A48006890F894
:10081000300040F002002749096881F830000020CC
:100820002449096881F8310022480068C7622846D7
:1008300000F04EFE4046FFF7EBFC00F0F9FFFFF73B
:10084000E3FC80461B48006890F8310020B1012885
:100850000DD002280AD105E016480068066A00207B
:1008600020700DE000260E20207009E000BF294610
:100870001048006800F016FE00260A20207000BF15
:1008800000BF00200B49096881F830000949096858
:1008900081F8310007490968C8610649096808629A
:1008A0004046FFF7B5FC304691E7000025010020E7
:1008B000260100203801002010B500240B480078E4
:1008C000012811D1FFF7A0FC04460948007840B97F
:1008D00008480078FF2804D206480078401C0549E3
:1008E00008702046FFF794FC10BD00003201002084
:1008F000250100202601002010B5002413480078AF
:10090000012821D1FFF780FC044611480078C0B1CE
:100910000F480078401E0E4908700846007860B9FC
:100920000C48007828B92046FFF772FC00F080FFE1
:100930000AE02046FFF76CFC06E02046FFF768FC63
:1009400002E02046FFF764FC10BD000032010020E9
:10095000260100202501002070B5054600260F481D
:10096000007808B1002070BDFFF74EFC06460C4829
:100970000468006820B10A480068406808490860B7
:100980003046FFF745FC3CB1032020702581002054
:100990006060204600F0DAFD2046E4E725010020F3
:1009A000100100202DE9F04105460E4614460027AF
:1009B0002878032803D001202070BDE8F081314859
:1009C000007810B102202070F7E72F48007810B1AE
:1009D0000D202070F1E7FFF717FC0746288940B18A
:1009E0002889401E28813846FFF712FC002020701D
:1009F000E3E72648006890F8300040F00100234902
:100A0000096881F8300000202049096881F8310028
:100A10001E480068C662284600F05AFD3846FFF7B7
:100A2000F7FB00F005FFFFF7EFFB074617480068EC
:100A300090F8310020B1012809D0022806D102E047
:100A4000002020700BE00E20207008E000BF294637
:100A50000E48006800F026FD0A20207000BF00BF8D
:100A600000200A49096881F830000849096881F8BE
:100A7000310006490968C8613846FFF7C9FB00BF65
:100A80009BE70000250100202601002038010020FE
:100A900070B5044600252078032801D0012070BDE0
:100AA000FFF7B2FB0546A07A60B100230122194688
:100AB000204600F0B5FC2846FFF7AAFB00F0B8FE80
:100AC0000020ECE720894FF6FF71884207D2208989
:100AD000401C20812846FFF79BFB0020DFE72846CB
:100AE000FFF796FB3320DAE710B50B48007890B992
:100AF00000F0D8FE094800780949087009480749FC
:100B0000097850F82100084908600846006807493C
:100B10000860FFF780FB10BD320100202801002093
:100B200027010020740E0020400100203801002021
:100B300010B50024022000F0F5F9FFF765FB04462C
:100B400000200B4908602046FFF762FB142000F0EC
:100B5000E9F9FFF759FB04460548006805490860B4
:100B60000120054908702046FFF752FB10BD000028
:100B7000340100201C0100202401002070470000E7
:100B80002DE9FE4F06460F4690461C464FF00009E1
:100B9000FFF73AFB81461F48007828B14846FFF727
:100BA00037FB3C20BDE8FE8F1B4850F8240060BB9B
:100BB0000120194941F824004846FFF729FB00238A
:100BC00042463946304600F009F98246002000903E
:100BD00001900346024651460290204600F078FEFE
:100BE000054635B90D48007801280CD100F020FEEB
:100BF00009E0FFF709FB81460020074941F824007E
:100C00004846FFF705FB2846CCE74846FFF700FBC0
:100C10002820C7E725010020740E002032010020A3
:100C20002DE9F04F85B081468A4693461C46DDE9A2
:100C30000F78129D00200390FFF7E6FA03902348F7
:100C4000007830B10398FFF7E3FA3C2005B0BDE827
:100C5000F08F1F4850F8240088BB01201C4941F840
:100C600024000398FFF7D4FA2A464146384600F09C
:100C70003FFF2B465A465146484600F0AFF80490D5
:100C80001198CDE9008002953A4620460E9B0499C2
:100C900000F01EFE064636B90E48007801280CD139
:100CA00000F0C6FD09E0FFF7AFFA03900020084905
:100CB00041F824000398FFF7ABFA3046C6E7FFE798
:100CC0000398FFF7A5FA2820C0E7000025010020BF
:100CD000740E002032010020704770472DE9F0416A
:100CE00006460F4614464FF000081548007818B124
:100CF00012202070BDE8F081FFF786FA8046FF2EB3
:100D000003D11048006890F832600F4850F8265020
:100D10002DB94046FFF77CFA43202070EAE7012D09
:100D200005D14046FFF774FA43202070E2E7EF64F4
:100D30004046FFF76DFA0020207000BFDAE70000A0
:100D40002501002038010020740E002070470000AB
:100D50002DE9F04707460D464FF0000A00202860B5
:100D60006860FFF751FA8246FF2F03D119480068E7
:100D700090F83270184850F827402CB95046FFF7C9
:100D800047FA4320BDE8F087012C04D15046FFF715
:100D90003FFA4320F6E7207C00F0010020B95046DE
:100DA000FFF736FA4520EDE70026D4F80C90D4F88A
:100DB00008805046FFF72CFA00E0761C58F8041B18
:100DC0000029FAD0B0002860A9EB06008000686016
:100DD0000020D7E738010020740E002070B50446CB
:100DE00010464FF080750560051F28462C606FF097
:100DF0000106051F28462E604FF01236051F2846B3
:100E00002E604FF00336051F28462E604FF0023645
:100E1000051F28462E607610051F28462E60051FE8
:100E2000284629604FF01136051F28462E604FF0E6
:100E30001036051F28462E604FF00936051F28463C
:100E40002E604FF00836051F28462E604FF00736FB
:100E5000051F28462E604FF00636051F28462E60D7
:100E60004FF00536051F28462E604FF00436051F4B
:100E700028462E6070BD00002DE9F04105464FF078
:100E80000008FFF7C1F98046FF2D05D12048006812
:100E900090F83250012608E01D48006890F83200B2
:100EA000A84201D1012600E000261A4850F825404A
:100EB0002CB94046FFF7ACF94820BDE8F081012C81
:100EC00004D14046FFF7A4F94320F6E794F83470C4
:100ED0001148C05D94F8351088430F49C85508463D
:100EE000C05D30B994F836100C48007888430B493F
:100EF000087094F8300040F0080084F83000404654
:100F0000FFF786F9012E01D100F092FC0020D4E712
:100F100038010020740E00202A0100202901002041
:100F20007047000070B5054600261748007800B1EC
:100F300070BD1648007800B1FAE71DB3FFF764F9F9
:100F400006461348006890F834401248005D104986
:100F5000096891F8351088430E4908550846005D28
:100F600040B90B48006890F836100B480078884369
:100F70000949087006480068C5623046FFF748F91D
:100F800000F056FC00BFD3E7250100202601002019
:100F9000380100202A0100202901002070B5002618
:100FA00000F072F8FFF730F9064631480068401C3F
:100FB0002F4908603046FFF72BF92E4800780128AA
:100FC00053D12D48007820B1012804D0022809D13E
:100FD00003E001250BE0002509E001250120264959
:100FE000087004E0012500202349087000BF00BFFD
:100FF00005B970BD2148046833E0FFF705F90646DE
:10100000E06A50B3E06A401EE062E06A28BB94F8F0
:10101000300000F0370040B114F8300F00F0C80085
:10102000207001206070303C02E0002084F8310024
:1010300094F8300000F0080078B93434A0781049F2
:10104000097808430E49087020780E49085C6178D9
:10105000084314F834190B4A505464693046FFF7BA
:10106000D7F894F832003F28C7D100BFC1E700008D
:1010700050010020320100204801002044010020DE
:10108000290100202A01002010B507480088401CD3
:101090000549088008460088022803D300200880FC
:1010A00000F036F810BD00006C0100202DE9F05F63
:1010B00006460F4690469946DDE90AAB0C9D13485B
:1010C000007820B18B2028700020BDE8F09FFFF74A
:1010D000F3FB00F069F804462CB9FFF70DFC8620FD
:1010E00028700020F1E7012084F82500A661E7615F
:1010F00084F82480C4F80490C4F808A0C4F820B090
:10110000FFF7FAFB002028702046DEE725010020CB
:1011100010B503480068FFF7BBFC0446204610BD2D
:101120006001002070B505460C462878642803D07D
:1011300089202070002070BD1A48007818B18B20DB
:1011400020700020F7E7FFF7B7FB95F82500E8B11E
:10115000012810D002280FD003281DD1284600F006
:101160003DF90021284600F0C3F8FFF7C5FB002039
:1011700020700120DFE700BF0021284600F0B8F80A
:10118000FFF7BAFB002020700120D4E7FFF7B4FB83
:10119000872020700020CEE7FFF7AEFB8D20207067
:1011A0000020C8E7250100200C48006808B900208D
:1011B00070470A480168094AC86810600020C86082
:1011C000086107480088401C054A108005480088CF
:1011D000401E044A10800846EAE70000640100202F
:1011E00056010020540100202DE9F0414FF42071F8
:1011F000224800F0EBFA4021214800F0E7FA0025F0
:1012000014E0681C86B205EB85001C4901EBC004A4
:1012100006EB860001EBC00764202070002084F8F4
:101220002500E76017A02062681C85B20F2DE8D367
:1012300005EB8500114901EBC004642020700020FB
:1012400084F82500E0600FA0206200200E490860AD
:101250000E49088010200E49088008480D49086092
:101260000120FFF779FB0C4908600020FFF774FBB1
:101270000A49086000F014F8BDE8F081DC13002092
:101280005C1800203F00000058010020560100209B
:1012900054010020640100205C0100206001002056
:1012A00000B587B00320002180220A4BCDE901322E
:1012B000CDE903104FF6FD701423074A009007484C
:1012C000FFF7AEFC06AA06A11420FFF707FD07B042
:1012D00000BD00005C160020581800205D130008B7
:1012E00075432F4F532D494920546D720000000063
:1012F00070B50B46032580F82550012B05D1154EFE
:10130000C5693668354445610CE085692DB9114ED3
:10131000C56936683544456104E00E4E8569366816
:1013200035444561057D05F007040B4D05EBC4010F
:101330000D682DB908600025C56001258D8006E087
:101340000A680860C26010618D886D1C8D80002560
:10135000056170BD580100205C18002008B500BF71
:1013600000BF6A4600211A480068FFF71BFBFFF721
:10137000A3FA18480068401C16490860084600781F
:1013800000F00708144800EBC8073C681AE0E6685C
:10139000104960690968884213D1204600F01EF8A0
:1013A00094F82400022804D101212046FFF7A0FF71
:1013B00002E0022084F82500656815B12046A16886
:1013C000A8473446002CE2D1FFF796FAC9E700009F
:1013D00060010020580100205C18002030B5057D18
:1013E00005F007040D4D05EBC4031D68854205D1CA
:1013F000C168196039B100250D6104E00169C26856
:10140000CA6002B11161012580F825500025C56030
:1014100005619D886D1E9D8030BD00005C18002018
:101420002DE9F04F05460F4690469946A87A19498E
:101430000E5C05F10B00805D11F800B00BEBC600EF
:1014400000F0FF0A144850F82A4000202034E060E1
:101450002760207C20EA0800207484F81190207C0A
:10146000203C00F0080068B994F836000B49097870
:1014700008430A4908700A48805D94F8351008430B
:10148000074988552946204600F00CF85046BDE82B
:10149000F08F0000BEC10008740E0020290100205A
:1014A0002A01002010B590F8342001F10B039B5C59
:1014B00090F83540A34301F10B04A35423469B5CF1
:1014C00023B98B7A90F83640A3438B7210BD00008D
:1014D00010B51B4A1268D061194A126892F834306C
:1014E00000F10B02D25C164B1B6893F835301A439F
:1014F000134B1B6893F8344000F10B031A55827AA2
:101500000F4B1B6893F836301A4382720C4A1268EC
:1015100092F834100B4A525C094B1B6893F8353033
:101520009A43084B5A541A46525C42B9044A12680C
:1015300092F83630044A12789A43034B1A7010BD61
:10154000380100202A010020290100200146002244
:101550008A72002005E0002301F10B021354421CA3
:10156000D0B20828F7D370472DE9F0415021114837
:1015700000F02CF900250DE0681C86B20D4800EB48
:10158000051400EB06170020207067600AA0E060D9
:10159000681C85B2042DEFD3064800EB051400202B
:1015A0002070606004A0E060024804490860BDE863
:1015B000F0810000240A00203F00000014010020F8
:1015C00070B5C821114800F001F900230FE0581C44
:1015D00085B203EB83000D4901EB800405EB850028
:1015E00001EB8006002020706660581C83B2092B36
:1015F000EDD303EB8300054901EB8004002020704C
:10160000606008460249086070BD00005C09002067
:101610001001002000200A4908600A4908700A49A0
:1016200008700A4908700A4908700A4908600A499E
:1016300008600A4908600A4908600A49087070474A
:101640005001002025010020260100203301002048
:10165000320100200C010020340100202001002074
:101660001C0100202401002000210A4A11700020E2
:1016700004E00021084A1154411CC8B20828F8D3DC
:101680000021064A1170064A1170064A1160064A86
:1016900011607047290100202A0100202701002045
:1016A00028010020400100203801002070B54FF4CF
:1016B0007C71194800F08AF84FF48071174800F0E7
:1016C00085F8002413E0601CC5B2C4EBC40000EB35
:1016D0004000114901EB8003C5EBC50000EB400061
:1016E00001EB80065E610EA0D864601CC4B20B2CB6
:1016F000E9D3C4EBC40000EB4000074901EB8003D1
:101700000020586106A0D8640020064908600248FD
:101710000549086070BD0000740F0020740E0020A1
:101720003F000000440100203C01002000B587B0CC
:101730000320002180220A4BCDE90132CDE90310BC
:101740004FF6FF703F23074A00900748FFF768FAFB
:1017500006AA06A13F20FFF7C1FA07B000BD0000AE
:10176000740C0020700E0020051A000875432F4FDE
:10177000532D49492049646C6500000000B587B0CD
:101780000320002180220A4BCDE90132CDE903106C
:101790004FF6FE703E23074A00900748FFF740FAD5
:1017A00006AA06A13E20FFF799FA07B000BD000087
:1017B000740A0020700C00202D1A000875432F4F6A
:1017C000532D4949205374617400000004E0002245
:1017D00000F8012B4A1E91B20029F8D17047000091
:1017E0002DE9F04178211048FFF7F0FF00240DE0CB
:1017F000601C86B204EB44000B4901EBC00506EB0C
:10180000460001EBC0072F60601C84B2042CEFD3AC
:1018100004EB4400044901EBC005002028600846A1
:1018200002490860BDE8F081641300204C010020EB
:1018300010B50024FEF7E8FC044613480078F8B918
:1018400012480078E0B900F02DF8114811490978E4
:1018500050F82100104908600E4800780F490978B7
:1018600088420DD00C480068806B401C0A4909680A
:1018700088630B480068401C09490860FEF7DCFCDF
:101880002046FEF7C5FC10BD2501002026010020E2
:10189000740E0020280100204001002027010020B4
:1018A0000C0100200649074A1278885C0649095C49
:1018B000034A515C01EBC001044A117070470000FB
:1018C000BEC10008290100202A01002028010020B3
:1018D0002DE9F84F05460F4690469946DDE90AABDB
:1018E00000200090FEF790FC00903F480468002C18
:1018F00074D0183454F8040C3B4908600098FEF783
:1019000087FC44F8187CA57600202076607660611C
:1019100044F814BC44F80CAC44F8108C0C9824F82F
:10192000080C24F8069C0020E077E810207705F0EA
:101930000700E076217F01208840A077E17E01202A
:101940008840607700206060E060A0602062A06254
:101950006062E062206325A06063183C002606E018
:10196000002104F1500040F82610701CC6B2002E71
:10197000F6D02046FFF702F92046FFF7ADF9FEF753
:1019800043FC00901A4840F825401A4800686061FE
:101990000020A0611748006810B1164800688461F3
:1019A000144804603434A078134909780843124974
:1019B000087020781149085C6178084314F83419DC
:1019C0000E4A50540E480078401C0D49087000988B
:1019D000FEF71EFC0020BDE8F88FFFE70098FEF739
:1019E00017FC4220F7E700003C0100203F00000008
:1019F000740E002044010020290100202A0100204B
:101A000033010020002400BF00BFFEF7FDFB0446A9
:101A100005480068401C044908602046FEF7F8FBB2
:101A2000FFF75BF9F1E7000034010020002400BF5C
:101A300002E02820FFF776FA194800780028F8D04D
:101A4000184800686421B0FBF1F0164908600846A8
:101A5000006828B9002014490870FF20FFF70CFA2D
:101A600000BFFEF7D1FB044610480068104908602B
:101A700000200E4908602046FEF7CAFB0C480068AB
:101A800008490968B0FBF1F0C0F16400064908702C
:101A9000FFF75CF900F00EF81420FFF743FAE0E7D7
:101AA000240100201C010020180100203401002026
:101AB000200100207CB5002514E069462846FFF788
:101AC00047F9064666B9094850F8254044B1012C4B
:101AD00006D0D4E9020100EB810060640198A064A3
:101AE000681CC5B23F2DE8D97CBD0000740E0020F3
:101AF00002F0010343B102F002032BB102E0491EE0
:101B0000002308C00029FAD17047000029B1064A15
:101B1000D2690243044BDA6104E0034AD26982438A
:101B2000014BDA61704700000010024029B1064AFB
:101B300092690243044B9A6104E0034A926982432A
:101B4000014B9A61704700000010024030B500213F
:101B50000022002400232D4D6D6805F00C0121B1F9
:101B6000042905D0082923D105E0294D056022E08C
:101B7000274D05601FE0254D6D6805F47012234D5B
:101B80006D6805F48034022505EB92421CB9214DA5
:101B9000554305600BE01D4D6D6805F400351DB122
:101BA0001C4D5543056002E0194D5543056002E0A8
:101BB000174D056000BF00BF144D6D6805F0F001C2
:101BC0000909154D6B5C0568DD4045600F4D6D687A
:101BD00005F4E061090A104D6B5C4568DD408560E5
:101BE0000A4D6D6805F46051C90A0B4D6B5C456880
:101BF000DD40C560054D6D6805F44041890B074D1A
:101C00006B5CC568B5FBF3F5056130BD00100240A3
:101C100000127A0000093D00EC000020FC000020CA
:101C200030B50146C1F30742C1F30723CCB2D20855
:101C30009B08E408D50205EB43152544A8B230BD46
:101C400000B587B001210820FFF770FF012188034C
:101C5000FFF75CFF4FF46040ADF8180018208DF8D6
:101C60001B0003208DF81A0006A91848FEF7ACFBEC
:101C70004FF460411548FEF734FC0020ADF8040035
:101C80004FF48270ADF806000020ADF80800022085
:101C9000ADF80A000120ADF80C004002ADF80E00CE
:101CA0003820ADF810000020ADF812000720ADF884
:101CB000140001A9064800F065F80121044800F06D
:101CC00047F8FF2000F006F807B000BD000C014007
:101CD0000038004070B50546002405E0601CC4B221
:101CE000C82C01DD002070BD02210E4800F03CF838
:101CF0000028F3D029460B4800F042F8002405E004
:101D0000601CC4B2C82C01DD0020ECE701210548AD
:101D100000F02AF80028F3D0024800F02EF8C0B2F4
:101D2000E1E700000038004010B50446074800888D
:101D30004FF6C771084005490880084600882043CF
:101D400008800121014800F003F810BD0038004070
:101D500021B1028842F04002028004E002884FF67E
:101D6000BF731A40028070470246002013890B405F
:101D70000BB1012000E000207047014688897047C0
:101D80008181704710B50022028802F441520B880D
:101D90004C8823438C882343CC8823430C892343DA
:101DA0004C8923438C892343CC8923431A430280E3
:101DB000838B4FF2FF74234083830B8A038210BD11
:101DC00010B5002061490860782000F097FE0120DE
:101DD0005F49C1F88401782000F090FE112001F0E5
:101DE00055FD782000F08AFE362001F04FFD0020DE
:101DF00001F040FD3A2001F049FD652001F03AFD77
:101E0000B22001F043FD0C2001F034FD0C2001F064
:101E100031FD002001F02EFD332001F02BFD332099
:101E200001F028FDB72001F031FD722001F022FD04
:101E3000BB2001F02BFD3D2001F01CFDC02001F076
:101E400025FD2C2001F016FDC22001F01FFD012010
:101E500001F010FDC32001F019FD192001F00AFD69
:101E6000C42001F013FD202001F004FDC62001F084
:101E70000DFD0F2001F0FEFCD02001F007FDA42095
:101E800001F0F8FCA12001F0F5FCE02001F0FEFCDF
:101E9000D02001F0EFFC042001F0ECFC0D2001F05B
:101EA000E9FC112001F0E6FC132001F0E3FC2B20FB
:101EB00001F0E0FC3F2001F0DDFC542001F0DAFCF1
:101EC0004C2001F0D7FC182001F0D4FC0D2001F0CB
:101ED000D1FC0B2001F0CEFC1F2001F0CBFC232015
:101EE00001F0C8FCE12001F0D1FCD02001F0C2FCDF
:101EF000042001F0BFFC0C2001F0BCFC112001F01B
:101F0000B9FC132001F0B6FC2C2001F0B3FC3F20FB
:101F100001F0B0FC442001F0ADFC512001F0AAFC1E
:101F20002F2001F0A7FC1F2001F0A4FC1F2001F0CE
:101F3000A1FC202001F09EFC232001F09BFC21202D
:101F400001F0A4FC292001F0A1FC10BD84812142F4
:101F500000802142704710B500F002F810BD00006B
:101F60000CB50020019000903348006840F48030A8
:101F70003149086000BF3048006800F4003000902C
:101F80000198401C0190009818B90198B0F5A06F15
:101F9000F1D12948006800F4003010B10120009010
:101FA00001E0002000900098012843D123480068F8
:101FB00040F01000214908600846006820F0030046
:101FC00008600846006840F0020008601A4840684F
:101FD000194948600846406848600846406840F42F
:101FE000806048600846406820F47C1048600846DD
:101FF000406840F4E81048600846006840F080708F
:10200000086000BF0C48006800F000700028F9D09C
:102010000948406820F003000749486008464068C6
:1020200040F00200486000BF0348406800F00C0028
:102030000828F9D10CBD0000001002400020024029
:10204000042808D14FF0E021096941F004014FF064
:10205000E022116107E04FF0E021096921F004015D
:102060004FF0E0221161704710B505480078012853
:1020700005D1FEF71FFBFEF791FFFEF72DFB10BD0C
:102080003201002010B51348006840F001001149EA
:10209000086008464068104908400E4948600846F4
:1020A00000680E4908400B4908600846006820F4A3
:1020B000802008600846406820F4FE0048604FF425
:1020C0001F008860FFF747FF4FF000600449086079
:1020D00010BD0000001002400000FFF8FFFFF6FEF8
:1020E00008ED00E021B1028842F00102028004E024
:1020F00002884FF6FE731A4002807047F0B50C4616
:1021000015461E460021002200230189028B038C04
:102110004FF6F877394021434FF6FC473A4040F2FA
:1021200001173A434FF6DD773B404FF6FF7707EA5A
:1021300006172F433B43018102830384F0BD014610
:10214000888C704710B5FEF7B5FA40F225511E484D
:1021500000F04CF810B31C4800F004F9C4B21B485E
:10216000008800F40040C8B91848008800F4804096
:1021700060B10A2C03D000201449088020E01348E5
:10218000008840F400401149088019E00D2C06D168
:102190000E48008840F480400C49088010E00B484D
:1021A0000088C0F30D000A490C5408480088401C00
:1021B0000649088008460088C72801DD00200880FD
:1021C000FEF78AFA10BD0000003801400801002027
:1021D0009208002021B1828942F40052828104E0F9
:1021E00082894DF6FF731A408281704770B50246AE
:1021F000002400230025002040F66A16B14200D1D9
:1022000000BFC1F3421501F01F03012606FA03F3D4
:10221000012D02D19689334006E0022D02D1168AA3
:10222000334001E0968A33400C12012606FA04F48A
:102230001688344013B10CB1012000E0002070BDBD
:10224000F0B50346002400260025002040F66A175A
:10225000B94200D100BF1846C1F3421401F01F0675
:10226000012707FA06F5012C01D10C3004E0022CFD
:1022700001D1103000E014301AB107682F43076015
:1022800002E00768AF430760F0BD00002DE9F047AA
:1022900086B005460E460024A24600BFA146002790
:1022A000B08900B100BF2F462C8A4CF6FF70044065
:1022B000F08804432C82AC894EF6F3100440B088B9
:1022C00031890843718908430443AC81AC8A4FF6D5
:1022D000FF400440B0890443AC8201A8FFF736FCFC
:1022E0001F48874202D1DDF810A001E0DDF80CA004
:1022F000A88900F4004040B10AEBCA0000EB0A10C4
:1023000031684900B0FBF1F807E00AEBCA0000EBC6
:102310000A1031688900B0FBF1F86420B8FBF0F0D6
:1023200004012009642101FB1089A88900F4004000
:1023300040B1322000EBC900B0FBF1F000F0070023
:10234000044308E0322000EB09106421B0FBF1F0F7
:1023500000F00F0004432C8106B0BDE8F0870000B8
:102360000038014001468888C0F30800704700BF6C
:10237000FEE7490050EAC12018BF04204A0D18BFEB
:1023800040F0010040F2FF72B2EB515F08BF40F035
:102390000200012808BF0520704700002DE9F74F13
:1023A000144694B00021C4E902111599079121F057
:1023B0000045C9498D4206DC1599C4E9000117B0F2
:1023C0000020BDE8F08FC549DFF814A3A9423CDD29
:1023D0000799C44E0029C44FC44A1599534619DDC4
:1023E00002F0B2FF554506D0C14AC24B02F0ACFF25
:1023F000C4E900010AE04FF0D352BE4B02F0A4FF43
:1024000032463B4602F0A0FFC4E9000117B00120AC
:10241000BDE8F08F02F09AFA554506D0B44AB54BA4
:1024200002F094FAC4E900010AE04FF0D352B14B34
:1024300002F08CFA32463B4602F088FAC4E9000109
:1024400017B04FF0FF30BDE8F08FAB49A9421599A6
:1024500078DB21F0004183468846A84AA84B02F069
:102460004DFD0022A74B02F071FA02F083FC0990A7
:1024700002F0DDFC06460F469C4A534602F03EFD44
:1024800043465A4602F06EFE80468A46984A994B69
:102490003046394602F032FD2A0D01250B924246A4
:1024A000534602F05FFE032DC4E9000139D00B98BA
:1024B000C1F30A51401A05EB45111139814230DA56
:1024C0009148C346784400EB0510CDF80CA00C9061
:1024D000D0E900233046394602F010FD02460B4693
:1024E000049106905846039902F02EFF80468A46D2
:1024F00002460B465846039902F026FF049B069AB3
:1025000002F022FF83460C9803913946D0E902235A
:10251000304602F0F3FC5A46039B02F015FF6D1C97
:10252000BDE707980028A2BF099817B0BDE8F08F53
:10253000616881F000416160099817B04042BDE8D0
:10254000F08FFFE784461598C1F31301C0F30A50DA
:10255000A0F2F5304FEA601800F01F06C6F1200027
:10256000139000200690079041F4801E05206D46D0
:1025700076B1664A08EB00017A4452F8213002EB4A
:102580008101B3404A68139922FA01F1194305E029
:102590005F4908EB0002794451F82210A1FB0E2795
:1025A000A1FB0C131A449A4234BF0123002303EB0E
:1025B000070A05EB8003D3E901B70F448F4234BF0C
:1025C0000121002193448B4411B1934502D903E0CA
:1025D000934501D2012100E00021C3E901B7514434
:1025E00045F82010011EA0F10100C1DC0298059FF2
:1025F00000F10050800F12900298DDE90356800030
:1026000002F015FC834628460D9102F027FC6FF07E
:102610001D0203F056FACDE90E01304602F01EFC11
:102620006FF03D0203F04DFA80468A46384602F0CC
:1026300015FC6FF05D0203F044FA0746424653462C
:10264000119102F083F9DDE90E2302F07FF95A4679
:102650000D9B02F07BF900250E465A4628460D9B3D
:1026600002F072FEDDE90E2302F06EFE4246534692
:1026700002F06AFE3A46119B02F074FDDFF898A062
:10268000244A534602F03AFC07468846234A244B24
:102690003146284602F032FC3A46434602F056F9EB
:1026A000074688464FF0A84253463146284602F076
:1026B00025FC3A46434602F049F9159A12F0004FBC
:1026C00004D0129A81F0004152421292C4E90001F2
:1026D000129817B0BDE8F08FFB21E93F7CD902408A
:1026E000FB21F93F7370032E8A19A33B000040546D
:1026F0003163621A61B4D03DFB21394183C8C96D91
:10270000305FE43F0000E03FB89E0000349E0000D0
:10271000169E0000182D4454FB21F93D3326A611C6
:10272000460B113C2DE9FF4D21F0004807460C46B1
:10273000B8F1795F08DA02F01DFB002801BF002024
:10274000324904B0BDE8F08D3A462346104619469A
:1027500002F0D4FB054602462D480E460B460621E4
:10276000784400F05DF82A46334602F0C7FBDDE905
:10277000022382468B463846214602F0BFFB0446C0
:102780000F4652465B462846314602F0B7FB2246CA
:102790003B4602F0D9FD07468A464FF0FF322846F5
:1027A000314603F08EF91B4A90450ADA3A46534601
:1027B00002F0CAFD04B00022BDE8F04D134B02F058
:1027C000D1BC154A4245A8BFA8F500154FF000043A
:1027D000B8BF124D22462B4602F0B6FD064688468B
:1027E00022462B460020094902F0AEFD04460D4664
:1027F0003A4653463046414602F0A6FD04B0224612
:102800002B46BDE8F04D02F0ADBC00000000F03FEB
:10281000E49B00003333D33F0000E93F0000D23F88
:102820002DE9F0414F1E00EBC7010446D1E900013C
:1028300015461E4637F006020DD02A46334602F0F2
:102840005DFB7F1E04EBC703D3E9002302F07EF893
:1028500037F00602F1D1022F25D0042F13D0062F16
:1028600018BFBDE8F0812A46334602F047FBD4E9A1
:102870000A2302F06BF82A46334602F03FFBD4E904
:10288000082302F063F82A46334602F037FBD4E906
:10289000062302F05BF82A46334602F02FFBD4E908
:1028A000042302F053F82A46334602F027FBD4E90A
:1028B000022302F04BF82A46334602F01FFBD4E90C
:1028C0000023BDE8F04102F041B800002DE9FF4DC2
:1028D000054621F0004084B00C46B0F1795F0BDA78
:1028E0002846FFF746FD042808BF00F07FF8284679
:1028F00008B02146BDE8F08D2A460B46104602F08E
:10290000FDFA06460F462A46234602F0F7FA8046AD
:1029100026488A4632463B4605217844FFF780FF29
:1029200083461098029160B3214A224B404651469B
:1029300002F0E4FACDE900015A4640465146029BB6
:1029400002F0DCFA82468846DDE906014FF0FF32EC
:1029500003F0B7F85246434602F0F6FC32463B46D7
:1029600002F0CCFADDE9062302F0EEFCDDE90023FB
:1029700002F0EAFC08B02A462346BDE8F04D02F01A
:10298000F1BB0B465A463046394602F0B7FA084AC0
:10299000084B01F0DBFF4246534602F0AFFA08B0A5
:1029A0002A462346BDE8F04D01F0D0BF2A9B000027
:1029B000495555555555C5BF002213461046014986
:1029C00002F080B80000F03F012203F07AB801F075
:1029D000BDBF002213461046114602F073B840F204
:1029E000013200204FF0E04103F06BB8024A0020B2
:1029F000110703F066B8000001FDFFFF014600BFAC
:102A00007047000000B5244B21F0004287B09A4285
:102A1000DCBF0022134629DD204B9A4208D140B981
:102A20004FF00100FDF754FCFFF7D3FF07B000BDE6
:102A300003DBFFF7C9FF07B000BD02AAFFF7AEFC3A
:102A400010F0030104BF0DF1080C9CE80F000DD03D
:102A5000012001290ED0022914D00DF1080C00909C
:102A60009CE80F00FFF732FF07B000BDFFF75AFEEA
:102A700007B000BD0DF1080C00909CE80F00FFF7B7
:102A800025FF05E00DF1080C9CE80F00FFF74AFE5A
:102A900007B081F0004100BDFB21E93F0000F07F5D
:102AA00010B56FF00400FFF7CBFA1048006810492A
:102AB000B0FBF1F00F4908700C4800680C49B0FBFE
:102AC000F1F441F28830444305200B4908804FF06F
:102AD000E020006940F002004FF0E0210861084664
:102AE0004461006940F00100086110BDD800002079
:102AF00000127A00000100200201002070B5044697
:102B00000F480078A0B10F48007888B90E480088B7
:102B1000844206DB0C48008894FBF0F5284600F060
:102B20001DF80948008894FBF0F100FB114084B2C5
:102B30004FF47A7104FB01F000F016F870BD00004C
:102B400032010020250100200201002010B5FDF710
:102B5000B3FE10BD10B5FDF7CFFE10BD10B5044695
:102B60002046FEF7DFF910BD2DE9F04707460026A5
:102B70004FF0E020D0F814901148007807FB00F8DF
:102B800000BFFFF7E3FF4FF0E020856911E04FF051
:102B9000E0208469AC420CD0AC4202D2281B06442F
:102BA00003E0A9EB0400284406442546464500D32B
:102BB00000E0ECE700BFFFF7CDFFBDE8F0870000C5
:102BC000000100202DE9F84305460C4616461F4635
:102BD000DDF820802889A04202DD6889B04201DC4E
:102BE000BDE8F883E019401E2989884202DB288964
:102BF000001B07B2F0B20090E019401EC3B2F2B25F
:102C0000E1B2284601F0F6FB01200949086007E01F
:102C10004FEA2820FFF75EF808F0FF00FFF75AF8A8
:102C2000381EA7F101010FB2F2D100BFD8E70000B2
:102C3000808121422DE9F84305460E4614461F4681
:102C4000DDF820802889B04202DD6889A04201DCDD
:102C5000BDE8F883E019401E6989884202DB688973
:102C6000001B07B2E019401EC0B2F3B2E2B2F1B2EB
:102C70000090284601F0BEFB01200949086007E0EA
:102C80004FEA2820FFF726F808F0FF00FFF722F8A8
:102C9000381EA7F101010FB2F2D100BFD8E7000042
:102CA000808121422DE9FF4F81B00D4614461E461A
:102CB0000E9F381B002801DD381B00E0E01B711B54
:102CC000002901DD711B00E0A91B884201DD012004
:102CD00000E000200090009830B1284625460446C8
:102CE00030463E46074600BFB54206DD284635461B
:102CF000064620463C46074600BF701B0FFA80F888
:102D0000381B002801DD381B00E0E01B0FFA80FBB8
:102D1000404608EBD07149100FFA81F9BC4202DA43
:102D20004FF0010A01E04FF0FF3A1EE0009830B189
:102D30002A4621460F9B019800F01CF805E0224628
:102D400029460F9B019800F015F8A9EB0B000FFA2C
:102D500080F9B9F1000F06DA04EB0A0004B209EBBE
:102D600008000FFA80F9681C05B2B542DEDD05B037
:102D7000BDE8F08FF8B506460C4615461F46002CF8
:102D800007DB3089A04204DD002D02DB7089A842F8
:102D900000DCF8BD681CC0B20090601CC3B2EAB28F
:102DA000E1B2304601F026FB0120054908603812E7
:102DB000FEF790FFF8B2FEF78DFF00BFE9E70000D5
:102DC000808121422DE9FF4F97B088461D46DDE9FD
:102DD0002749DDE925674FF07E5016901590149530
:102DE0003EE1149802F023F80022AB4BCDE902013A
:102DF00001F0ACFD4FF00052A84BCDE9040102F008
:102E00007DF8CDE90601FFF7FDFDCDE9080101F0F0
:102E10006BFD1390149802F00AF800229E4BCDE946
:102E2000020101F093FD4FF000529C4BCDE90401EB
:102E300002F064F8CDE9060101F05AFBCDE9080182
:102E400001F052FD1290404602F072FC0890301BD7
:102E500002F06EFC0690139902F0B6FC07900899F8
:102E600002F088FB099002F043FC80B2119019989F
:102E700002F05EFC0890381B02F05AFC0690129992
:102E800002F0A2FC0790089902F074FB099002F08E
:102E90002FFC80B21090404602F04AFC0890304669
:102EA00002F046FC0690139902F08EFC07900899F8
:102EB00002F060FB099002F01BFC80B20F901998A1
:102EC00002F036FC0890384602F032FC0690129967
:102ED00002F07AFC0790089902F04CFB099002F08E
:102EE00007FC80B20E90149802F022FC0090169914
:102EF00002F040FB019002F011FB0022664BCDE98D
:102F0000020101F023FD4FF00052644BCDE90401B2
:102F100001F0F4FFCDE90601FFF774FDCDE90801EA
:102F200001F0E2FC0D90149802F002FC009016995A
:102F300002F020FB019002F0F1FA0022564BCDE99D
:102F4000020101F003FD4FF00052544BCDE90401A2
:102F500001F0D4FFCDE9060101F0CAFACDE908017C
:102F600001F0C2FC0C90404602F0E2FB0890301BDE
:102F700002F0DEFB06900D9902F026FC07900899FE
:102F800002F0F8FA099002F097FB8246199802F0D5
:102F9000CFFB0890381B02F0CBFB06900C9902F097
:102FA00013FC0790089902F0E5FA099002F084FBFF
:102FB0008346404602F0BCFB0890304602F0B8FB66
:102FC00006900D9902F000FC0790089902F0D2FAE1
:102FD000099002F071FB0B90199802F0A9FB089080
:102FE000384602F0A5FB06900C9902F0EDFB079025
:102FF000089902F0BFFA099002F05EFB0A900FFAFE
:103000008BF00FFA8AF10E9A12B2CDE90209CDE9DE
:1030100000210F9803B2109802B2119801B21798CC
:1030200000F023F90A9800B20B9909B20FFA8BF25B
:103030000FFA8AF3CDE90209CDE900210E9802B218
:103040000F9801B2179800F010F9149802F070FB75
:103050008346159902F08EFA824602F02DFB1490F9
:10306000249802F065FB1190169902F0ADFB83469F
:10307000284602F05DFB5946129002F07BFA824628
:10308000149802F055FB5146139002F069FBFFF4CF
:10309000A8AE1BB0BDE8F08F0080564085EB913F95
:1030A0002DE9FE430746884615461C460A9E6000E9
:1030B000401C03B2281B02B2414638460096FFF777
:1030C000B9FD0020032123462A46CDE901060091DF
:1030D0004146384600F002F8BDE8FE832DE9FF4F77
:1030E00083B00E4617469846DDE9119AC8F10100F3
:1030F0000FFA80FB012002904FEA4800404200B2E4
:1031000001900024454652E0BBF1000F09DB681E28
:1031100005B20198801C00B20190019858440FFA42
:1031200080FB601C04B20298801C00B202900298DE
:1031300058440FFA80FB109800F00100C8B16800F5
:10314000401C484403B2781B02B2301901B2CDF8DA
:1031500000A00398FFF76EFD6000401C484403B2D6
:10316000381B02B2701901B2CDF800A00398FFF726
:1031700061FD109800F00200C8B16800401C48448E
:1031800003B2781B02B2301B01B2CDF800A0039845
:10319000FFF750FD6000401C484403B2381B02B2E8
:1031A000701B01B2CDF800A00398FFF743FDAC42BD
:1031B000AADB07B0BDE8F08F2DE9F84F06460C46B4
:1031C00015461F46DDE90A893089A04202DD708973
:1031D000A84201DCBDE8F88FE019401E3189884221
:1031E00002DB3089001B87B205EB0800401E7189A5
:1031F000884203DB7089401B1FFA80F805EB08004A
:10320000401EC0B20090E019401EC3B2EAB2E1B263
:10321000304601F0EFF84FEA292A09F0FF0B0120B0
:103220000A49086045460DE03C4607E05046FEF777
:1032300051FD5846FEF74EFD601E84B2002CF5DCB1
:10324000681E85B2002DEFDC00BFC3E780812142FC
:103250007CB504460D466089CDE90005238900222E
:1032600011462046FFF7A8FF7CBD2DE9FF4F8BB02C
:10327000884691461D46DDE9184BA14506DD4846C6
:10328000A14604464046A846054600BF1A98844217
:1032900006DD1A981A9404465846AB46054600BF08
:1032A000A14506DD4846A14604464046A8460546D7
:1032B00000BF1A9881451CD146463746B54201DA0F
:1032C0002E4602E0BD4200DD2F46B34501DA5E46E0
:1032D00002E0BB4500DD5F461B980090B81B401C18
:1032E00003B24A4631460B98FFF76CFC0FB0BDE8BD
:1032F000F08FA5EB080000B20990A4EB090000B222
:103300000890ABEB080000B207901A98A0EB0900F8
:1033100000B20690ABEB050000B205901A98001BB6
:1033200000B204900020039002901A98844201D1C8
:103330000A9402E0601E00B20A90CA4629E0089989
:10334000039890FBF1F0404406B20699029890FB76
:10335000F1F0404407B209990398084400B2039081
:1033600007990298084400B20290BE4203DD30463D
:103370003E46074600BF1B980090B81B401C03B296
:10338000524631460B98FFF71DFC0AF101000FFA77
:1033900080FA0A988245D2DDAAEB040005994843D9
:1033A00000B20390AAEB09000799484300B20290CB
:1033B00029E0DDE9030190FBF1F0284406B206990B
:1033C000029890FBF1F0404407B205990398084435
:1033D00000B2039007990298084400B20290BE42DE
:1033E00003DD30463E46074600BF1B980090B81BE1
:1033F000401C03B2524631460B98FFF7E3FB0AF13B
:1034000001000FFA80FA1A988245D2DD00BF6DE7FD
:103410002DE9F04F87B082460C469146504602F0A7
:103420004BF90590059802F083F90546514602F0E4
:1034300097FA049000222146059800F031F883465F
:10344000B9F1000F27D02E2004F80B00484601F0F8
:10345000EEFC02460B46CDE9000100200F4900F0CA
:10346000CFFA05460E46049802F058F807462A4659
:10347000334601F043FDCDE9020101F035FA049035
:10348000049802F019F9054604EB0B00411C4A466A
:10349000284600F005F807B0BDE8F08F0000244092
:1034A000F0B506460D46174600240CE00A2096FBB0
:1034B000F0F100FB11603030C2B22046641C2A5487
:1034C0000A2096FBF0F6002EF0D103E030222046D1
:1034D000641C2A54BC42F9DB2146284600F07CFFDC
:1034E000002028552046F0BDF8B504460F46154685
:1034F0001E46002020806080A080E08027816581BA
:10350000267301210820FEF711FB0320ADF800000F
:1035100010208DF8030003208DF80200694607484B
:10352000FCF752FF03210548FCF7D9FFFEF788FBA3
:103530000020FEF7F9FBFEF743FCF8BD000C01404C
:103540002DE9FC5F8146884615461F460C9C019577
:103550002046E31704EB5373DB1021464FEAE47C6B
:1035600004EB5C7C4FEAEC0CA4EBCC0CBCF1000F40
:1035700002D04FF0010C01E04FF0000C63442246F2
:1035800004EBD27C4FEA6C0C03FB0CF39BB2009370
:10359000A7F12000C7B2002662E0102C05D1334805
:1035A00000EB071010F806A01DE0182C07D107EB60
:1035B000C7002F4901EB800010F806A013E0202C73
:1035C00005D12C4800EB871010F806A00BE0302C3A
:1035D00007D107EBC700284901EB001010F806A03F
:1035E00001E0BDE8FC9F4FF0000B33E00AF08000E3
:1035F00040B1224803882AB20FFA88F14846FFF703
:10360000B9FB09E00D9838B91D4803882AB20FFAB2
:1036100088F14846FFF7AEFB4FF6FF7000EA4A0A12
:10362000681C85B2B9F80A00A84200DCD9E7019805
:10363000281AA0420AD1019D08F101001FFA80F862
:10364000B9F80800404500DCCBE706E00BF10100CB
:103650001FFA80FBBBF1080FC8DB00BF701C86B2ED
:103660000098864299DB00BFBBE70000C25F0008FC
:10367000B26500080E730008CE8A00080000002022
:10368000020000202DE9FF4F8FB00C4615469A46E8
:103690002646A9465B491D9802F096F8019001F074
:1036A0003DFF074600F024FFCDE90401504601F03C
:1036B000D5FBCDE90201DDE9042301F01FFCCDE9D2
:1036C0000801304601F0CAFBCDE90601DDE9082317
:1036D00001F03AFECDE90A0101F07CFB80B20E90C8
:1036E00048491D9802F070F8019001F017FFCDE9EC
:1036F0000201FFF787F907468846504601F0AEFB06
:103700003A464346CDE9040101F0F8FBCDE9080152
:10371000484601F0A3FBCDE90601DDE9082301F0ED
:1037200015F9CDE90A0101F055FB1FFA80FB354977
:103730001C9802F049F8019001F0F0FECDE9020179
:1037400000F0D6FE07468846504601F087FB3A4611
:103750004346CDE9040101F0D1FBCDE90801304633
:1037600001F07CFBCDE90601DDE9082301F0ECFD69
:10377000CDE90A0101F02EFB80B20D9021491C9881
:1037800002F022F8019001F0C9FECDE90201FFF735
:1037900039F9CDE90401504601F060FB0746DDE947
:1037A000042301F0ABFBCDE90801484601F056FBCC
:1037B000CDE90601DDE9082301F0C8F8CDE90A01E9
:1037C00001F008FB80B20C9000210C9800B2CDE90A
:1037D00000010D9803B20FFA89F231B20F98FFF78A
:1037E00061FA0FFA8BF11E98CDE900100E9803B222
:1037F0000FFA89F231B20F98FFF754FA13B0BDE80F
:10380000F08F0000295C8F3C2DE9FF4F83B00C4600
:1038100015469846DDE9127BDDE91096A24608EBD5
:1038200004001FFA80F809EB05001FFA80F916E082
:10383000444502DB5446E81985B24D4500DB14E0EF
:10384000CDE9007B33782A4621460398FFF778FEBE
:10385000384607EBD07104EB61018CB2761C3078EE
:103860007E2802DC30782028E2DA00BF07B0BDE80D
:10387000F08F000010B5044601200349086020467F
:10388000FEF728FA10BD00008081214210B50446E1
:103890000020034908602046FEF71CFA10BD000016
:1038A0008081214211E04FF400510848FCF717FED7
:1038B0004FF4FA70FFF722F94FF400510348FCF778
:1038C00010FE4FF4FA70FFF719F9ECE70010014011
:1038D00010B5FFF7E5F84FF4A060FCF7C1FE4FF418
:1038E000E13000F04FFFFCF763FEFCF7FFFD00F056
:1038F00099FFFCF7BFFE0A23044A00210448FDF7A4
:103900003FF9FDF7F1F8002010BD00006C02002027
:10391000DD45000886B0002405A82CA100222D4B0F
:10392000CDE90021029002220A210846FDF7BEFBE4
:103930002949086005A928480068FDF7F3FB43E022
:1039400005AA0A2125480068FCF734FF24490860CD
:103950000846016823480078FCF710FE21490870EA
:1039600005AA0A2120480068FCF724FF1F490870B7
:1039700008460078012802D002281ED10EE000205F
:1039800020211BA21023CDE90032CDE902104023F3
:1039900096226E211748FFF737FF0EE00020202106
:1039A00015A21023CDE90032CDE902104023962262
:1039B0006E211048FFF728FF00BF00BF09480078BC
:1039C0000E490870601CC4B2BAE70000746D723111
:1039D000000000005D4600089000002080000020EC
:1039E000D0000020BC00002084000020D400002073
:1039F000410000007008002042000000BD000020CF
:103A00002DE9F04D1D460C4698B0174621F00041B7
:103A100023F00043002814BF4FF0010C4FF0000CBE
:103A20000CEB440CFE4A0CEB02064FEA620C6645B6
:103A30002BD33E0018BF012606EB45061644F94A73
:103A4000964222D3F84A53EA070C02D0944205D199
:103A500048B918B000201146BDE8F08D002808BF15
:103A60004FF0000C01D04FF0010C0CEB440212F5AA
:103A7000001F0AD8002F14BF4FF0010C4FF0000CAC
:103A80000CEB450212F5001F07D918B03A462B4639
:103A90002146BDE8F04DFEF79ABF0022DFF88CA367
:103AA000002CB8BF534526DADFF884C36345A8BFAE
:103AB000022220DADFF870C39C451CDCDFF874C3F7
:103AC0000CEB235CBCF1140F08DDCCF1340627FAB3
:103AD00006FC0CFA06F6BE420DD108E05FB9CCF147
:103AE000140623FA06FC0CFA06F69E4203D10CF0EB
:103AF0000102C2F1020251EA000C19D1002D17DABD
:103B0000002C18BF022A01D0012A07D00220FCF79E
:103B1000DFFB18B0BDE8F04DFEF74EBF0220FCF70A
:103B2000D7FBFEF749FF18B081F00041BDE8F08DEA
:103B3000B7F1000C6CD1534525D104F1804212F548
:103B4000801201BF00280020B74918B008BFBDE8A7
:103B5000F08DB548884207DC002DA1BF604629469C
:103B600018B0BDE8F08D07E0281E05DA80F00041AE
:103B700018B06046BDE8F08DAF497944D1E9000145
:103B800018B0BDE8F08DDFF8A0C2634525D1002D47
:103B90001FDA19B1514512D1D8B909E0002840F017
:103BA000EC82A24A214618B062F31E01BDE8F08DF6
:103BB0000020214618B060F31E01BDE8F08D08DA40
:103BC00018B02346BDE8F04D02460020614600F0E3
:103BD00079BF18B02146BDE8F08D514518DAB5F12E
:103BE000804F0DD0A5F1005CBCF1FF5C10D1B4F1A9
:103BF000000C0DDB18B06146BDE8F04D00F0C8BC0C
:103C0000234618B00246BDE8F04D194601F076B9DA
:103C1000060024F0004C3BD1D9B1514533D1002CE2
:103C200006DD002DA1BF0020514618B0BDE8F08D83
:103C3000002C01DD002D1BDB002C13DA002D11DB25
:103C4000012A4FF0000014BF78497C4918B0BDE844
:103C5000F08D022A18BF002C0AD0012A08D1002CAE
:103C600006DA0AE0002CB8BF002D11DA012A04D0D0
:103C7000002018B00146BDE8F08D18B000204FF0CC
:103C80000041BDE8F08DA1F14050B0F17F601AD045
:103C9000012000EBE47050EA020421D0624C521E75
:103CA0004FF0000B104304BF4FF0000B644C65480D
:103CB00083427CDD644A654893421FDD884217DBFE
:103CC000002D25DB37E0002C00DA4AB1022A0CBFB8
:103CD00001204FF0FF3018B0BDE8F04D01F0A7B85B
:103CE0000120FCF7F5FA18B0BDE8F04DFEF771BE03
:103CF0004D4A8A4202DC002D0ADC1CE0814202DAD5
:103D0000002D18DA04E0484B994220DD002D12DD29
:103D10000220FCF7DDFAFEF762FE05460E460022A1
:103D200053465846214601F0E9F818B066F31E01E3
:103D30002846BDE8F08D0220FCF7CAFAFEF756FED1
:103D40000A46214618B062F31E01BDE8F08D00223C
:103D50003046614601F0F8FA80460E466FF00102E7
:103D600001F0AFFE4FF05532394B01F0FBF94246FE
:103D7000334601F0C3F80022364B01F0F3F98246D6
:103D80004246334604911046194601F0B7F85246B0
:103D9000049B01F0B3F88A4600904FF0C0422E4BCE
:103DA0004046314601F0AAF82C4A2B4B00E027E0B0
:103DB000CDE906015146009801F0A0F88246019134
:103DC000274A284B4046314601F098F85246019B5D
:103DD00001F0BAFA82460B4602460591DDE906017A
:103DE00000F0B4FDDDE9062300268846304601F0E8
:103DF000ABFA5246059B01F0B5F9024600F07EB9D8
:103E00000020B1F5801F07DA35223046614601F007
:103E100058FE06466FF0340000EB215024E000000D
:103E2000FFFF1F00FFFF0F000000F03F0000F07FCA
:103E30000000404301FCFFFFFA8700000000F0FF94
:103E40000000F0BF0000E0410000F043FFFFEF3F43
:103E50005555D53F0000E03F4715F73FFE822B65E3
:103E600044DF5DF80BAE543EA0F2FF300190C1F389
:103E7000130040F07F6141F040510291FE498842B9
:103E8000D8BF002004DDFD498142C8BF012001DD0B
:103E90000D9008E000200D900198401C01900298C0
:103EA000A0F5801002900299F54878440B910D9985
:103EB00000EBC100D0E900230F9330460A920B9922
:103EC00001F042FACDE90601DDE90A2130460F9BF7
:103ED00000F03CFD02460B460020EA4900F0F2FDEE
:103EE000059102460B460090DDE9060101F006F857
:103EF0001490E5488A464FF000087844029900681B
:103F000012904FF0005040EA61010D980F9B01EBB9
:103F1000804000F5002109910A9A129801F014FAE4
:103F200032460B9B01F01EF94246534600F0E6FF75
:103F30000646029140465146099B129A00F0DEFF68
:103F4000DDE9062301F00EF93246029B01F0FCF98F
:103F5000059B009A00F0D2FF0091149A04905346FA
:103F60001046194600F0CAFF06460246C7480B46EF
:103F7000029106217844FEF753FCCDE90510029B1F
:103F800032461046194600F0B9FFDDE9053200F06F
:103F9000B5FF05910646534640461946149A00F06F
:103FA000D5FC009B049A00F0A9FF3246059B00F067
:103FB000CDFCCDE90510424653461046194600F0A7
:103FC0009DFF0022B24B02910A9000F0BFFCDDE998
:103FD000053200F0BBFC0E464246AD4B404601F0B8
:103FE000B3F9029B0A9A01F0AFF9DDE9053201F05D
:103FF000B9F8424602910A9033461046514600F005
:104000007DFFCDE906015346149A02990A9800F003
:1040100075FF8A460290334642460099049800F0A4
:104020006DFF5346029A00F091FC82460B46024611
:104030000591DDE9060100F089FCDDE90623002099
:104040008846064601F080F95246059B01F08AF841
:10405000824609914FF060428E4B3046414600F057
:104060004DFF049006918C4A8A4B5046099900F006
:1040700045FF82460291894A894B3046414600F00D
:104080003DFF5246029B00F061FC864B7B440D9A3B
:1040900003EBC203D3E9002300F058FC0E90079114
:1040A000019800F0C4FE0591DDE9061382460E9AE0
:1040B000049800F04BFC7C4A7A440D9B02EBC3034E
:1040C000D3E900230093029200F040FC5246059B86
:1040D00000F03CFC0026884652463046059B01F025
:1040E00033F9009B029A01F02FF9069B049A01F024
:1040F0002BF9079B0E9A01F035F8024600200B467B
:1041000002903846294600F0F9FE824601912B467E
:1041100038461946029A01F017F93246434600F034
:10412000EDFE5246019B00F011FC07468A463246DE
:1041300043462946029800F0E1FE05460E463A46FF
:10414000534600F003FC594A8846914221DBA8EB14
:10415000020353EA000210D12A46334601F0F4F874
:10416000CDE90401524A534B3846514600F0EEFB6C
:10417000DDE9042300F0C0FF21D20220FCF7A8F8FB
:10418000FEF72DFC0A46214618B062F31E01BDE879
:10419000F08D494B28F000429A4210D3474A08EB71
:1041A000020353EA00027FF4C6AD2A46334601F00B
:1041B000CBF83A46534600F09FFF7FF6BCAD002295
:1041C000019228F000403E493E4A01EB20518242D4
:1041D00023DA481C4FF4801121FA00F040443A4A97
:1041E000C0F30A517A44394BA1F2FF31CB4020EAA7
:1041F0000303C0F3130040F48010C1F11401C84060
:1042000012680190B8F1000FBCBF404201902846EF
:10421000314601F099F805460E462A46334638469F
:10422000514600F093FB4FF000084246284B4046B1
:10423000059100F063FECDE90601264A264B404673
:10424000059900F05BFE009102902A4633464046F5
:10425000059901F079F83A46534600F083FF1F4A6A
:104260001F4B00F04BFE009B029A00F06FFB0746CD
:10427000884602460B4635E08E9803007AB60B005E
:10428000128400000000F03F7A8400007883000070
:104290000000084009C7EE3FFD033ADCF5015B145E
:1042A000E02F3EBE508200001482000000009040CB
:1042B000FE822B654715973C00CC904000346F3F41
:1042C00001FCFFFF0000E03F90810000FFFF0F00B6
:1042D000432EE63F396CA80C615C20BEEF39FAFE34
:1042E000422EE63FDDE9060100F030FBDDE9062362
:1042F00005460E4601F028F83A46434600F032FFE4
:104300000F462A46334600901046194600F0F6FD47
:10431000824602462E4888460B4605217844FEF721
:104320007FFA5246434600F0E9FD2A46334600F044
:1043300019FF80468A463B4628463146009A00F0DF
:10434000DDFD3B46009A00F001FB06910090002243
:104350004FF080434046514600F0F6FF0F460C9068
:10436000424653462846314600F0C8FD3B460C9A6B
:1043700000F0A8FB069B009A00F0E6FF2A463346B1
:1043800000F0E2FF0022134B00F0ECFE054601981E
:104390000E4601EB00510815002810DC2846314676
:1043A000019A01F08EFBFDF7E4FF042808BFFEF739
:1043B0001DFB28463146019A01F083FB05460B465A
:1043C00018B02A4658462146BDE8F04D00F096BD8B
:1043D000008000000000F03F30B50C460021621E56
:1043E00005E0435C855C45548354491C521E914250
:1043F000F7DB30BD2DE9F05F04460D4616461F463B
:10440000A08828441FFA80F8A08838441FFA80F951
:10441000E08830441FFA80FAE1880A9808441FFABD
:1044200080FB2A20FFF732FA4FEA2820FFF722FA12
:1044300008F0FF00FFF71EFA4FEA2920FFF71AFAEB
:1044400009F0FF00FFF716FA2B20FFF71FFA4FEADB
:104450002A20FFF70FFA0AF0FF00FFF70BFA4FEAE6
:104460002B20FFF707FA0BF0FF00FFF703FA2C20D1
:10447000FFF70CFABDE8F09F70B504460D463620F4
:10448000FFF704FA2846E91705EB91718910A5EBAF
:1044900081012173207B30B101280DD0022814D076
:1044A000032822D119E0C020FFF7E4F92088A0807A
:1044B00060885030E08018E0A020FFF7DBF920880A
:1044C000E08060885030A0800FE00020FFF7D2F934
:1044D0002088A0806088E08007E06020FFF7CAF9AC
:1044E0002088E0806088A08000BF00BF70BD000011
:1044F00000B5254B21F0004287B09A4203DC002230
:10450000134600922BE0214B9A4208D140B94FF05C
:104510000100FBF7DDFEFEF75CFA07B000BD03DB30
:10452000FEF752FA07B000BD02AAFDF737FF10F000
:1045300003014FF001000DD0012914D002291AD037
:104540000DF1080C9CE80F00FEF7ECF807B081F0C5
:10455000004100BD0DF1080C00909CE80F00FEF733
:10456000B5F907B000BD0DF1080C9CE80F00FEF78F
:10457000D9F807B000BD0DF1080C00909CE80F00C1
:10458000FEF7A4F9E2E70000FB21E93F0000F07F1D
:104590002DE9F04106460F4600F0F0FD041E0D46E1
:1045A00018BF0120284320F00040C0F17F6000F1D7
:1045B000E040C00F0ED0301C18BF0120384320F05F
:1045C0000040C0F17F6000F1E040C00F04BF012057
:1045D000FBF77EFE20462946BDE8F08170B5044613
:1045E000002500BF0020FCF7BFF814490860002038
:1045F000FCF7BAF8124908600020FCF7B5F8114939
:1046000008600020FCF7A8F90F490860FCF790FA51
:10461000FBF7FAFD054606230C4A00210C48FCF77F
:10462000AFFA04230B4A00210B48FCF7A9FA0A2031
:10463000FCF722FC2846FBF7EBFD70BD8000002054
:1046400088000020840000208C0000206C050020E1
:10465000A53800086C040020153900082DE9FF5F1B
:1046600081463C48006800F0E2FB07463A460B46AC
:104670000020394900F026FA054600F035F937499F
:10468000086050243648FDF75AFD00B235490880CD
:104690000846B0F9000001F04BF883462F48016846
:1046A000584601F091F8824600F038FF0746002294
:1046B0002D4B00F04BF9054600F016F92B49086028
:1046C000084601682A48006800F0C2FF32D04FF661
:1046D000FF7026490968264A12682346CDE9002161
:1046E0000290782211462348FEF7CCFF4FF6FF7068
:1046F0000A237822114600901E48FEF7D1FC1B4881
:1047000000681B49086000201B49088001221B49E2
:1047100016480068FEF77CFE00202021174A10236F
:10472000CDE90032CDE902104023C82255211148BD
:10473000FFF76AF812480068401C114908600846F3
:10474000006804490968884202D100200C490860C9
:10475000BDE8FF9FB000002000007240B4000020C0
:104760000008004098000020000042409400002013
:10477000AC00002070080020020000207E0800200D
:104780009C00002010B586B00446012144F20400CC
:10479000FDF7CCF94FF40070ADF8140003208DF84C
:1047A000160018208DF8170005A91C48FBF70CFE11
:1047B0004FF48060ADF8140004208DF8170005A9AF
:1047C0001648FBF701FE25208DF8000003208DF828
:1047D00001008DF8020001208DF803006846FBF708
:1047E00007FF01940020ADF80800ADF80A00ADF80D
:1047F0000C00ADF810000C20ADF80E0001A908481F
:10480000FDF744FD012240F225510548FDF718FD52
:1048100001210348FDF7DEFC06B010BD0008014091
:1048200000380140F0B585B00023F0221146294838
:10483000FEF75AFE02212748FFF71EFE4FF6FF70D3
:104840002549088000202549088000212148FEF7DD
:10485000FFFC24241E26002513E0214951F82500E1
:10486000FDF7DEF907467820019005FB0443024678
:104870000146CDE90367009402901648FEF7A2FABC
:104880006D1C082DE9DB1748FDF7CAF90746022021
:1048900078210191CDE903070291E00024230A4623
:1048A00000900C48FEF78EFA0E48FDF7B9F907465E
:1048B0000222C6F17800C6F1780102AB85C30191EE
:1048C000E00024237822114600900248FEF77AFA8D
:1048D00005B0F0BD7008002000000020020000209C
:1048E00060000020D3D1CD0021F00042A2F160523F
:1048F000B2F5801F01F0004328BFD2F17F6C0BD9C5
:104900005FEA001C43EAC20242EB507018BF7047D6
:1049100028BF20F001007047B2F5801FBCBF1846C9
:1049200070474FEA410C1CF5001F02D2084601F007
:1049300012B870B500F08CFB00000089FFF7F6BFDD
:104940004FF00040A0F580007047000010B591EADC
:10495000030F48BF83F0004300F1FE84841A71EB1B
:10496000030C05D2121943EB0C03001B61EB0C0185
:10497000DFF824E14FEA1154A4EB135C1EEA430F65
:1049800018BF9EEA445F73D023EA0E03DCF1200EC9
:1049900021EA045143F4801332D322FA0CFE10EBC7
:1049A0000E0023FA0CFE41EB0E01CCF1200E03FAAF
:1049B0000EFE10EB0E0051F10001B1F5801FCCF19D
:1049C000200E32D201EB045112FA0EF2BDE8104073
:1049D00058BF7047401C38BF5FEA420218BF70479B
:1049E000002814BF20F0010041F100014FEA41030B
:1049F00013F5001F38BF7047A1F1C04100F076BB2E
:104A0000012A43EB0302ACF1200CDCF11F0E32BF94
:104A10004FF0000E23FA0CF310EB030041EB0451AE
:104A2000B4EB115FD0D0A1EB045101F5801149081E
:104A30005FEA300001EB04510ED350F1000038BFA3
:104A400012FA0EFE08D1BDE81040C9E7401C38BF7D
:104A50005FEA4202CAD1C3E7BDE810404FEA410312
:104A600013F5001F38BF7047A1F1C04100F03EBBF5
:104A70009EEA445F08D011EA5E0FBDE8104004BF13
:104A800001F0004100207047BDE8104070B500F013
:104A9000DFFA00BF64FBBE3E0000E0FF02494FF0BA
:104AA000000000F0DCBF00BF0000F87F491058BFD5
:104AB000C1F140415B1058BFC3F140438B42EFF35B
:104AC000008070472DE9C04130B4DFF8A0C23CEA55
:104AD000111418BF3CEA131400F0EC8081EA0305BE
:104AE0001CEA111444EAD57418BF1CEA131500F02F
:104AF000C780A4EB05044FF0004545EAC12145EA13
:104B0000C32341EA505143EA525304F17F7499425E
:104B100004F500344FEAC0204FEAC22208BF904299
:104B200000F09C804FEA13650FF24016765D4FEA65
:104B3000134506FB05F7C7F1807706FB07F74FEA39
:104B4000D737A7FB03687642C8F58038A7FB06CEA7
:104B500038BFA8F1010807FB08E64FF0000EA6FBDE
:104B6000028CE6FB03CEDCF1000CCEF1004E38BF28
:104B7000AEF1010EA6FB0C584FF000074FF00005F8
:104B8000E6FB0E87A1FB08C6A0FB07CE16EB0E06C0
:104B900045F10005E1FB076515F1E04E7EBFA4F588
:104BA00080345FEA46066D4116F1800745F1000545
:104BB0004FEA17274FEA066647EA0567A6F1DE4681
:104BC000B6F1805F4FEA15251FD9384624F0010C55
:104BD00005EBC471BCF1FE6F01EB0C1102D8F0BC07
:104BE000BDE8008124425CBF01F5801E9EEAC47FBF
:104BF00002D4F0BCBDE80081244238D4F0BCA1F15D
:104C0000C041BDE8004100F071BA4FEAD22242EA49
:104C100043524FEAD323A7FB02864FEAD02040EA53
:104C2000415007FB03661EEA0E0F4FEAD12105FB38
:104C3000026658BFA6EB0056B6EB00564FEA520E7E
:104C40004EEAC37E18EB0E0E56EB530EBDD518EB95
:104C500002085E417F1C55F10005B6E74FF4801550
:104C60004FF000074FF000064FF00008ADE7F0BC32
:104C70004FF0000001F1C04101F00041BDE80081AA
:104C800011EA0C1F0CEA131500D00CE013EA0C1FFC
:104C900000F025804FF00000F0BC81EA030101F034
:104CA0000041BDE80081F0BCBDE8004181EA03019C
:104CB00000F01CBAF0BCBDE8004170B500F0C8F9C6
:104CC000097EFC3E00F007B881EA03014FF00000C6
:104CD00001F00041704781EA030100F007BAF0BC1F
:104CE000BDE800414FF0000021497047FFFDFBF98E
:104CF000F7F5F4F2F0EEEDEBE9E8E6E4E3E1E0DE0F
:104D0000DDDBDAD8D7D5D4D3D1D0CFCDCCCBCAC880
:104D1000C7C6C5C4C2C1C0BFBEBDBCBBBAB9B8B7A7
:104D2000B6B5B4B3B2B1B0AFAEADACABAAA9A8A89A
:104D3000A7A6A5A4A3A3A2A1A09F9F9E9D9C9C9B68
:104D40009A99999897979695959493939291919013
:104D50008F8F8E8E8D8C8C8B8B8A898988888787A4
:104D60008685858484838382828181800000FF0719
:104D70000000F87F4FEA41034FEA5353A3F58063E5
:104D8000D3F11E03C8BFD3F1210C0CDD4FF000425C
:104D900042EAC12242EA505232FA03FC8CEAE17C38
:104DA000ACEBE1707047102BC4BF0020704703F5D7
:104DB000787CBCF1FF3F04D06FF0004282EA210012
:104DC000704770B500F044F9499224800020704784
:104DD000F2E700004FEA1153A3F58063D3F11E03FD
:104DE000A8BFD3F1200C08DB4FF0004242EAC122F9
:104DF00052EA505232FA03F0704709420BD4102B9A
:104E0000C4BF0020704703F5787CBCF1FF3F05D09C
:104E10004FF0FF3070474FF00000704770B500F062
:104E200017F900BF4992248000207047F0E710F086
:104E3000004248BF4042B0FA80F310FA03F10AD0B2
:104E4000C3F11D0303F580634FEA415002EB0352A7
:104E500002EBD12170474FF000007047B0FA80F3A9
:104E600010FA03F10AD0C3F11D0303F580634FEA82
:104E700041504FEA035202EBD12170474FF000003E
:104E80007047000051EA030C17D41CF5801F58BF6F
:104E9000BCF5801F00F10680994218BF704708BF1B
:104EA0009042704707D711F5801F58BF13F5801F38
:104EB00019D499427047894270471CF5801F08D564
:104EC000BCF5801FF7D58B4218BF704708BF8242E0
:104ED00070474FF4001C1CEB410F38BF1CEB430F15
:104EE00001D28B42704770B500F0B2F892244900AD
:104EF0004FF000514FF08053FFF7D8BDDFF848C1A5
:104F000070B51CEA111E1EBF1CEA13159EEA0C0F99
:104F100095EA0C0F00F06F8081EA030423EA4C133A
:104F20004EEAD47E21EA4C1141F4801143F48013FF
:104F3000AE44A1FB024CA0FB0365AEF17F7E3619A7
:104F400055EB0C05A1FB034C4CF10003A0FB021C2C
:104F500016EB0C06654153F10003094218BF46F0F9
:104F6000010613F4007F0BD14FEA03314FEA0530FD
:104F7000340341EA155140EA16506FF003020AE08B
:104F80004FEAC3214FEAC520F40241EA555140EAF5
:104F900056506FF0020202EB2E4201EB025585EAF9
:104FA000CE710AD05FEA440C18BF24F0004450F1DF
:104FB000000041F1000120EAD47040F2FE7C62451D
:104FC00000D270BDA84214BF4FF080444FF040445F
:104FD000002E08BF0024BEF1806FA8BFA1F1C04120
:104FE000BDE8704080F282804FF0000001F1C041C6
:104FF00001F0004170479EEA0C0F0CEA131518BF30
:1050000095EA0C0F06D04FF0000081EA030E0EF077
:10501000004170BD00F01CF88900013E00F007B8A7
:1050200000F009B84FEA430C5FEA5C5C08D081EA03
:10503000030100F05BB84FEA410C5FEA5C5CF6D11B
:105040004FF00000014970470000FF070000F87FA3
:105050000EF1020E2EF0030E5EF8046B364205D4FC
:10506000012A43EB030515F5001F12D8012841EB77
:10507000010C1CF5001F0CD80ED14FEAD17C15F5A0
:10508000001F0CEB4C0C0CF1020C08BF4CEBD37C5A
:1050900004E04FF0080C01E04FEAD37C0CEB4C0528
:1050A00026FA05F606F00706B6F1040C06D20EEB5A
:1050B000860CBDE870404CF0010C6047DFE80CF056
:1050C000090B02024FF000414FF00000A1F5002152
:1050D00070BD19461046012851EB010418BFD4F5E4
:1050E000001484BF002001F0004170BD0808A0F545
:1050F00000114FEA3101704753EA010C17D41CF537
:10510000801F58BFBCF5801F00F106808B4218BF7E
:10511000704708BF8242704707D713F5801F58BFFA
:1051200011F5801F19D48B4270479B4270471CF5C4
:10513000801F08D5BCF5801FF7D5994218BF70476E
:1051400008BF904270474FF4001C1CEB430F38BF60
:105150001CEB410F01D2994270470FB40CBC03BC49
:10516000FFF7C1BE91EA030F10B581F000413FF592
:10517000F5AB83F0004300F0EFB800002DE9F041FB
:1051800001F5801CBCF5001FC0F2C3804FEA115C22
:1051900021EA0C510CF1FD0C41F480115FEA5C0C2A
:1051A0000CF5C07C01D3400049413DA4890241EA8D
:1051B000905187028E0E0A0CA45D04FB04F602FBDC
:1051C00006F6C6F14046A4FB0662F60D46EA422604
:1051D00006FB06F4A4FB01235242C3F1404338BF4F
:1051E0005B1EA6FB02420024E6FB0324D20B42EA2C
:1051F0004446A6FB0623A1FB02E2A3FB07E4A41896
:105200004FF0000252F10002E3FB01426442C2F19E
:10521000404E38BFAEF1010EA6FB04234FF0000252
:10522000E6FB0E32A2FB03464FF00004B61954F120
:105230000004E2FB0264A1FB06E6A4FB07E816EB10
:1052400008064FF0000858F10008E4FB01687642B8
:10525000C8F1405838BFA8F10108A2FB06E4A3FB3F
:1052600008E52D194FF0000454F10004E2FB085446
:10527000A1FB05E6A7FB04E818EB06084FF00006C3
:1052800056F10006E1FB048618F1200556F10006F0
:10529000A809A8F11B08B10908F03F08B8F10A0FE6
:1052A00040EA86601CD901EB0C51BDE8F08100BFDB
:1052B000FCF5EEE8E2DDD8D3CFCBC7C3C0BDB9B6AD
:1052C000B4B1AEACA9A7A5A3A19F9D9B9A989695B2
:1052D0009392908F8D8C8B89888786858483828139
:1052E000A0FB006800FB01F208EB4208B8EB87283E
:1052F00007D5341858EB0104D5D5401C51F10001F5
:10530000D1E7341A78EB0104CDD4401E71F10001CD
:10531000C9E75FEA4C0C5FEA9C5C0DD105D34FF006
:10532000000001F00041BDE8F081BDE8F04170B53A
:10533000FFF78EFE6DDBFFBEBDE8F0414FF00000D1
:10534000004970470000F87F10B591EA030F48BF8D
:1053500083F000433FF502AB841A71EB030C07D2D4
:1053600012198CF0004C43EB0C03001B61EB0C0199
:10537000DFF8A4E14FEA1154A4EB135C1EEA430FDB
:1053800018BF9EEA445F00F0B08023EA6E035242E9
:1053900021EA0451C3EB6E0338BF5B1EDCF1200E23
:1053A00025D322FA0CFE10EB0E0043FA0CFE41EB63
:1053B0000E01CCF1200E03FA0EFE10EB0E0051F19F
:1053C0000001CCF1200E29D412FA0EF201EB0451A7
:1053D000BDE8104058BF7047401C1CBFB2F1004FE1
:1053E000704700280CBF491C20F00100704712EBE9
:1053F000020E43EB030218BF4FF0010E4EEA4202C9
:10540000ACF1200CDCF11E0E54D943FA0CFE10EB6B
:105410000E0051F1FF31CCF11E0ED5D50EF1010E6B
:1054200012FA0EFE404141EB010101EB445C5FEAE0
:105430005C5C10D910EBDE7001EB045138BFBEF19B
:10544000004FBDE8104018BF704700280CBF491C32
:1054500020F00100704730D24FEAD42C11F5001132
:1054600024F400641BD0B1FA81F20B3AA41AA41EF2
:10547000D2F12003914030FA03F31943904001EB3D
:10548000CC71002C01EB0451BDE81040A8BF70475F
:1054900001F1C0414FF0000001F000417047B0FA47
:1054A00080F310FA03F100D110BDE41A173C48054F
:1054B000C90AE4E701EB045110BD491001EB0451A6
:1054C000BDE810404FEA300002E04FF000017047A5
:1054D0004A0008BF0042F8D0B2F5001F28BF70474D
:1054E00001F000414FF0000070479EEA445F07D092
:1054F00011EA5E0FBDE8104004BF00210020704794
:10550000BDE8104070B5FFF7A3FD00BF40DFF63ED9
:1055100083F00041104670470000E0FF43004FEA6F
:10552000D30C4FEA3C0C43401FBF40070CF16051C5
:1055300013F0FE4F70471CF0006F03D100200CF0F9
:10554000004170470CF0004343EA507010B540EA48
:10555000CC0000F0BAF900BF000000924FEA000151
:10556000FFF7C4BD4FF000414FF00000A1F500214E
:105570007047000090EA010F48BF81F0004100F140
:105580000082421A3CBF801A89184FEAD0524FF06D
:105590007F4C1CEA410FA2EBD15318BF9CEA026F6B
:1055A00000F03B804FF0004C4CEA00204CEA012117
:1055B00021FA03FC10EB0C0C1ED202F1FF325FEA61
:1055C0001C2040EBC25038BF70471CF07F0F4FEAE1
:1055D000400C18BFBCF17F4F38BF7047C3F12003A8
:1055E000994008BF20F00100BCF17F4F38BF7047E1
:1055F000A0F1C04000F0AFB94FEA3C00000A40EB18
:10560000C25028BF1CF0FF0F4FEA400CE6D018BF75
:10561000BCF17F4F38BF7047EAE79CEA026F05D0C4
:1056200010EA5C0F08BF00F00040704710B500F0B2
:105630004CF900BF64FBBE3E401058BFC0F1404073
:10564000491058BFC1F140418142EFF300807047DB
:1056500050EA010C00F113801CF5000F58BFBCF597
:10566000000F01D48842704707D710F5000F58BFCC
:1056700011F5000F15D488427047894270471CF518
:10568000000F04D5BCF5000FF7D5814270474FF0ED
:10569000807C1CEB400F38BF1CEB410F01D28142D4
:1056A000704710B500F011F9922449004FF00050F6
:1056B0004FF08051FFF7C0BF41000B0ED3F19E02A7
:1056C00008D950F400034FEA032323FA02F048BF3D
:1056D0004042704710B500F0F8F800BF49922480AE
:1056E000002070476FF0004282EA200070470000FF
:1056F000C10DD1F19E0206DB4FEA002343F00043C7
:1057000023FA02F07047004207D54FEA4001B1F199
:10571000FE4F02D24FF00000704710B500F0D5F8F0
:1057200049922480002070476FEA200070470000F3
:1057300010F0004148BF4042B0FA80F310FA03F283
:10574000C3F19D030BD051EAC35101EB1220530664
:1057500038BF704700F1010008BF20F0010070471A
:1057600050EA010C00F113801CF5000F58BFBCF586
:10577000000F01D48842704707D710F5000F58BFBB
:1057800011F5000F15D488427047894270471CF507
:10579000000F04D5BCF5000FF7D5814270474FF0DC
:1057A000807C1CEB400F38BF1CEB410F01D28142C3
:1057B000704710B500F089F8922449004FF000506E
:1057C0004FF08051FFF738BF4FF47F0C1CEAD01226
:1057D0001EBF1CEAD11392EA0C0F93EA0C0F00F0E3
:1057E000478090EA010F48BF42F480724FF0004CAE
:1057F0004CEA00204CEA012102EB0302A0FB01135A
:10580000A2F50002002918BF43F001035B0028BF86
:105810004FEA330342EB22425FEA132C4CEBC250B7
:105820002EBFBCEB436FB2F57C0F70474FEA036CA1
:10583000BCF1004F08BF20F00100B2F57C0F38BF6B
:1058400070470BD582F0FF0212F5803FC8BF70474A
:1058500000F1C040D8BF00F00040704700F5000CD8
:105860005FEA4C0C48BF7047B0F1C04000F073B81D
:1058700090EA010F0CEAD11348BF42F480726245EE
:1058800038BF634504D280EA010000F00040704751
:1058900010B500F01AF800BF8900013E00F007B80B
:1058A00000F009B85FEA410C5FEA1C6C08D080EA9E
:1058B000010000F050B85FEA400C5FEA1C6CF6D1C2
:1058C0004FF00040A0F5800070470EF1020E2EF060
:1058D000030E5EF8044B244204D44FEA4102B2F1B5
:1058E0007F4F11D84FEA4003B3F17F4F0CD80ED150
:1058F0004FEAD07CB2F17F4F0CEB4C0C0CF1020C58
:1059000008BF4CEBD17C04E04FF0080C01E04FEAFB
:10591000D17C0CEB4C0324FA03F404F00704B4F13B
:10592000040C06D20EEB840CBDE810404CF0010CC8
:105930006047DFE80CF0070802024FF00040A0F5D6
:10594000800010BD0846420018BFD2F1807288BFA7
:1059500000F0004010BDFF2141EAD050C005704763
:1059600080F0004090EA010F7FF50BAE81F000411E
:1059700000F007B890EA010F48BF81F000413FF501
:1059800000AE421A04D882F00042A0EB020011449B
:105990004FEAD0524FF07F4C1CEA410FA2EBD1539B
:1059A00018BF9CEA026F4AD04FF0004C4CEA00202E
:1059B0004CEA012121FA03FCB0EB0C0C0FD412F0DD
:1059C000FE0F36D05FEA4C001DD5001240EBC250EE
:1059D00038BF70471CF03F0F18BF70470BE0A2F1B3
:1059E00001025FEA1C2040EBC25038BF70471CF038
:1059F0007F0F18BF7047C3F12003994014BF401EAA
:105A000020F00100704780084FEA122308BF70475A
:105A1000B0FA80FCA2EB0C02CCF1280C60FA0CF07E
:105A200093EA122F04BF00EBC25070474FEAC370D5
:105A30007047130A5FEADC1008BF7047F6E79CEA7C
:105A4000026F04D010EA5C0F08BF0020704710B549
:105A5000FFF73BFF40DFF63E81F0004070470CF05F
:105A60000F03092B08BF082000F059800A2B0BD028
:105A7000082B18BF704708BF1CF0400F0AD04FF02A
:105A800000004FF0000170471CF0400F18BF4FF0AE
:105A9000004070471CF0100F08D020F0704300F059
:105AA0007F4242EAD3014FEA4370704700F0604002
:105AB00021F07F4242EA000201F07F4040EA72702A
:105AC00070474FF0FF0C4CF4E06C1CEA11531CBF04
:105AD0009CEA030C9445C2BFDA4201EB02517047C5
