:020000040800F2
:10000000900700209101000807180008CF1500088C
:10001000051800082F050008591900080000000005
:100020000000000000000000000000000B180008A5
:100030003105000800000000091800080D1800082C
:10004000AB010008AB010008AB010008AB010008E0
:10005000AB010008AB01000833050008AB01000844
:10006000AB010008AB010008AB010008AB010008C0
:10007000AB010008AB010008AB010008AB010008B0
:10008000AB010008AB010008AB010008AB010008A0
:10009000AB010008AB010008AB010008AB01000890
:1000A000AB010008AB010008AB010008AB01000880
:1000B000AB010008AB01000859180008AB010008AB
:1000C000AB010008AB010008AB010008AB01000860
:1000D000AB010008AB010008AB010008AB01000850
:1000E000AB010008AB010008AB01000800F002F80A
:1000F00000F03FF80AA090E8000C82448344AAF183
:100100000107DA4501D100F034F8AFF2090EBAE880
:100110000F0013F0010F18BFFB1A43F0010318473B
:100120008C1C0000AC1C0000103A24BF78C878C1B9
:10013000FAD8520724BF30C830C144BF04680C60ED
:10014000704700000023002400250026103A28BF35
:1001500078C1FBD8520728BF30C148BF0B60704739
:10016000642900F07D80002070471FB51FBD10B5C9
:1001700010BD00F0A2F91146FFF7F7FF01F0F6FD00
:1001800000F0C0F903B4FFF7F2FF03BC00F0C8F9B8
:100190000948804709480047FEE7FEE7FEE7FEE71B
:1001A000FEE7FEE7FEE7FEE7FEE7FEE70448054957
:1001B000054A064B7047000011180008ED000008C2
:1001C0009001002090070020900300209003002061
:1001D0000FB41CB5074B06AA7B44694600900598EE
:1001E00000F053F90020694600F062F91CBC5DF88C
:1001F00014FB0000D50200002DE9F0410E46044634
:10020000002020622046E168884730B3252805D0C9
:10021000D4E901219047206A401CF2E7E1682046BA
:1002200000278847050018D0A5F14100192802D8F9
:1002300020354FF400673246294620462760FFF7F5
:100240008FFF40B1012804D0F61D26F007060836BE
:10025000D8E7361DD6E72846DAE7206ABDE8F08100
:100260002DE9F0410646002410687529314616A58F
:1002700010D0AFF30080002802DA404213A507E057
:1002800031688A0701D512A502E0490704D511A5F6
:10029000012401E0AFF3008000210A2206F12407C7
:1002A00009E0B0FBF2FCB0FBF2F302FB1C003030C3
:1002B00078541846491C0028F3D123462A46304674
:1002C000BDE8F04100F083B8000000002D00000000
:1002D0002B0000002000000010B5431C02E010F8C5
:1002E000011B71B18107FAD14FF0013202C88C1A9B
:1002F0008C4314EAC211F9D0C01A0A0603D0C01EFA
:1003000010BDC01A10BD0A0401D0801E10BD090224
:10031000FCD0401E10BD10B5203AC0F00B80B1E8F3
:100320001850203AA0E81850B1E81850A0E818502A
:10033000BFF4F5AF5FEA027C24BFB1E81850A0E833
:10034000185044BF18C918C0BDE810405FEA827C4D
:1003500024BF51F8043B40F8043B08BF7047D20764
:1003600028BF31F8023B48BF11F8012B28BF20F805
:10037000023B48BF00F8012B70474FF0000200B568
:10038000134694469646203922BFA0E80C50A0E8B8
:100390000C50B1F12001BFF4F7AF090728BFA0E866
:1003A0000C5048BF0CC05DF804EB890028BF40F832
:1003B000042B08BF704748BF20F8022B11F0804F74
:1003C00018BF00F8012B70477047704770472DE940
:1003D000F0470D4699469246044600F1240801680C
:1003E000880604D5E06921F01001216000E00120B9
:1003F000A84201DD471B00E00027A1697A1902EB42
:100400000900081AA0612078C00602D42046AFF384
:100410000080002608E0D4E901211AF80600904780
:10042000206A401C761C20624E45F4DB2078C00612
:100430000AD52046AFF3008006E0D4E90121302040
:100440009047206A401C2062381EA7F10107F4DCA7
:1004500007E0D4E9012118F805009047206A401C04
:100460002062281EA5F10105F3DC2046AFF30080D1
:100470002078000602D50220BDE8F0870120FBE7C6
:1004800001694A1C02610878704700B58FB0CDE958
:1004900001310021059105497944CDE90310114648
:1004A0006846FFF7A9FE0FB000BD0000E5FFFFFFA3
:1004B0000A6802F8010B0A607047754600F02CF8D4
:1004C000AE4605006946534620F00700854618B041
:1004D00020B5FFF76BFEBDE820404FF000064FF05F
:1004E00000074FF000084FF0000B21F00701AC4669
:1004F000ACE8C009ACE8C009ACE8C009ACE8C00988
:100500008D46704710B50446AFF300802046BDE825
:100510001040FFF737BE0000004870473001002050
:1005200001491820ABBEFEE7260002007047FEE737
:100530007047012000F020B87047000070B50446F5
:1005400000F022F90546601C02D0044800780444FB
:1005500000F01AF9401BA042FAD370BD0C00002035
:10056000012801D000BF70474FF48051014800F0CE
:10057000FFB80000000C0140044910B50A680242AF
:1005800002D00860FFF7ECFF10BD0000140401402A
:100590002DE9F84FDFF8B891002409F1040A0AF1B7
:1005A000040B23460F270BF1040EC9E00125A540DB
:1005B0002A40AA427DD1674ED1F804C0ACEB0608B0
:1005C000B44532D014DCBCF1030F3AD009DCBCF1E5
:1005D000000F2AD0BCF1010F1CD0BCF1020F31D1A9
:1005E0001DE0BCF1110F17D0BCF1120F2AD119E098
:1005F000B8F5881F19D006DCB8F5803F15D0B8F5DE
:10060000801F1FD111E0B8F5001F0ED0B8F5041FF0
:1006100018D10AE0CB6815E0CB681B1D12E0CB684F
:1006200008330FE0CB680C330CE08B682BB1012B47
:100630004FF0080303D0456104E0042302E00561A4
:1006400000E00023FF2A01D8064601E000F104067D
:100650004FEA840501D9A5F12005D6F8008007FAF4
:1006600005FC28EA0C0803FA05F548EA0508C6F86F
:1006700000804D68ED0062D5374DAE6946F0010649
:10068000AE61AD6924F0030605F001050095334D18
:1006900006EB050CDCF80850A607360F07FA06F83B
:1006A00025EA0805DFF8B880404503D14FF000087F
:1006B00017E044E0DFF8AC80404502D14FF001087C
:1006C0000FE0DFF8A480404502D14FF0020808E0B7
:1006D000DFF89880404502D14FF0030801E04FF069
:1006E000040808FA06F848EA0508CCF808804D68BE
:1006F000D9F80060ED034D4601D5164300E096435E
:100700002E604D68DAF80060AD03554601D51643FA
:1007100000E096432E604D68DBF80060ED025D4618
:1007200001D5164300E096432E604D68DEF8006068
:10073000AD02754601D5164300E096432E60641C59
:100740000D682A46E5407FF431AFBDE8F88F000020
:1007500000040140000011100010024000000140A0
:1007600000080140000C014000100140001401404D
:10077000C2680A4201D041617047016170470AB105
:10078000016170470904FBE7014880687047000079
:100790000C00002002488168027811448160704793
:1007A0000C000020074810B5016841F010010160FD
:1007B000032000F075F8002000F006F800F024F89F
:1007C000002010BD0020024070B50D4D04464FF4CE
:1007D0007A712878B1FBF0F00A490968B1FBF0F0B2
:1007E00000F0ECFA48B9102C07D200222146501E26
:1007F00000F036F800206C6070BD012070BD000074
:100800000C000020180000200C4808B5816941F058
:1008100001018161816901F001010091C16941F02B
:100820008051C161C06900F0805000900448416867
:1008300021F0E06141F00071416008BD001002400C
:1008400000000140002809DB00F01F020121914057
:100850004009800000F1E020C0F80011704700005E
:10086000F0B40E4B1B680C46C3F30223C3F107051B
:10087000042D00D90425191D072901D2002300E009
:10088000DB1E012606FA05F1491E214099409E40D3
:10089000761E16403143F0BC01F058BA0CED00E072
:1008A000064900F0070208684FF6FF03184040EAC7
:1008B0000220034A10430860704700000CED00E07E
:1008C0000000FA052DE9F0470F46050061D0434EC0
:1008D000306800F00700B84209D2306820F0070005
:1008E00038433060306800F00700B84251D12868C2
:1008F0003B4C810712D5400703D5606840F4E060A7
:1009000060602878000703D5606840F4605060603C
:100910006068A96820F0F000084360602878C0078C
:1009200028D06868012810D02168022810D08907D3
:1009300000292EDA616821F0030101436160FFF7AD
:1009400023FF804641F288390DE021688903EFE7F3
:100950008901EDE7FFF718FFA0EB0801494502D92F
:100960000320BDE8F0876068696800F00C00B0EB18
:10097000810FEFD1306800F00700B8420BD9306822
:1009800020F0070038433060306800F00700B842BC
:1009900001D00120E5E72878400705D56068E968BF
:1009A00020F4E060084360602878000706D560689E
:1009B000296920F4605040EAC100606000F038F816
:1009C0006168084AC1F30311515CC84006490860D8
:1009D00006480068FFF7F8FE0020C2E7002002404A
:1009E00000100240921D0008180000201000002096
:1009F0000448054900684968044AC1F30221515C72
:100A0000C84070471800002000100240A21D0008D6
:100A10000448054900684968044AC1F3C221515C91
:100A2000C84070471800002000100240A21D0008B6
:100A300012A185B00FC98DE80F0014A0144A0068F8
:100A400004905168134811F00C0312D0042B10D0FD
:100A5000082B0ED1C1F38343C9031DF803000AD547
:100A6000516804AAC1F34041515C0A4A5043B0FBAB
:100A7000F1F005B0704708494843FAE7020304055E
:100A8000060708090A0B0C0D0E0F101001020000DA
:100A90000010024000127A0000093D002DE9F84FD5
:100AA000040070D02078C04DC00749D06868C0F3FA
:100AB0008100012807D06868C0F38100022809D1AD
:100AC0006868C00306D52868800339D560680028A7
:100AD000E7D035E06068B0F5803F0BD010B1B0F5DD
:100AE000A02F11D0286820F480302860286820F4D6
:100AF000802002E0286840F480302860606890B16F
:100B0000FFF742FE06460AE0286840F4802028608D
:100B1000F0E700BFFFF738FE801B642873D8286811
:100B20008003F7D50CE0FFF72FFE064605E000BF77
:100B3000FFF72AFE801B6428F0D828688003F7D4CA
:100B400020789A4E80074FF001094FF0000839D500
:100B5000686810F00C0F07D06868C0F381000228A5
:100B600009D16868C00306D42868800714D52069B5
:100B7000012808D110E02069B0B1C6F80090FFF755
:100B800003FE074605E00AE1FFF7FEFDC01B022851
:100B9000C4D828688007F7D52868616920F0F80074
:100BA00040EAC10028600DE0C6F80080FFF7ECFDC8
:100BB000074604E0FFF7E8FDC01B022823D8286899
:100BC0008007F7D4207800072CD57948A169D9B1DE
:100BD000C0F80090FFF7D8FD074604E0FFF7D4FD0A
:100BE000C01B02280FD8686A8007F7D571484FF4F8
:100BF000FA510068B0FBF1F0009000BF0098411E70
:100C00000091FAD20EE080E0C0F80080FFF7BCFD52
:100C1000074604E0FFF7B8FDC01B022875D8686AD4
:100C20008007F7D42078400760D5E8690027C00026
:100C300008D4E86940F08050E861E869012700F0D5
:100C4000805000905C480168C90513D40168834650
:100C500041F480710160FFF797FD824606E000BF16
:100C6000FFF792FDA0EB0A0064284ED8DBF80000E5
:100C7000C005F5D5E06801280AD008B1052813D0D1
:100C8000286A20F001002862286A20F0040002E0AF
:100C9000286A40F001002862E06841F2883B98B180
:100CA000FFF772FD82460BE0286A40F004002862DC
:100CB000EEE700BFFFF768FDA0EB0A0159455AD8DF
:100CC000286A8007F6D50CE0FFF75EFD824605E056
:100CD000FFF75AFDA0EB0A0159454CD8286A800756
:100CE000F6D41FB1E86920F08050E861E06988B36C
:100CF0006968C1F38101022944D00228C6F86080E6
:100D000004D0FFF741FD044638E034E0FFF73CFD36
:100D1000074604E0FFF738FDC01B02282BD82868DF
:100D20008001F7D4206AB0F5803F05D16868A168DA
:100D300020F4003008436860D4E90801084369687A
:100D400021F4741108436860C6F86090FFF71CFD39
:100D5000044606E025E000BFFFF716FD001B022851
:100D600009D828688001F7D51BE000BFFFF70CFD0C
:100D7000001B022802D90320BDE8F88F28688001F3
:100D8000F4D40EE00128F7D06868226A00F48031BC
:100D9000914204D1616A00F47010884201D00120B0
:100DA000EAE70020E8E700000010024000004242AD
:100DB00080044242180000200070004010B5401E20
:100DC000B0F1807F01D3012010BD4FF0E0246061BD
:100DD0000F21601700F0BAFF0020A06107202061FA
:100DE000002010BD7047704770B590F83C20012A74
:100DF00019D0012400F83C4F0222427050F83C3CCC
:100E00005A689D6822F070060A684968324325F0E6
:100E1000800529435A6050F83C2C916044700021B1
:100E20000170084670BD022070BD10B5040003D0EB
:100E300094F83D0010B107E0012010BD002084F8B7
:100E40003C00204600F00CF8022084F83D00211DF3
:100E5000206800F007FD012084F83D00002010BD4F
:100E600008B5114A01681148914208D1C16941F0A1
:100E70000201C161C06900F00200009008BD0C4A87
:100E80009142FBD1C16941F00401C161C0690022F6
:100E900000F00400009011461E20FFF7E1FCBDE8C1
:100EA00008401E20FFF7CEBC0004004000100240A6
:100EB000000800400168CA6842F00102CA60006888
:100EC000816801F00701062903D0016841F00101A2
:100ED00001600020704770B5044690F83C0001287E
:100EE00017D0012584F83C50022084F83D0020688A
:100EF000826822F0770222F47F42826008685028DC
:100F000030D00DDC20284DD005DC98B310283BD123
:100F100048E0022070BD302844D0402834D139E068
:100F2000602828D0702806D0B0F5805F2CD0B0F5AE
:100F3000005F29D10AE0CB68D1E90121206800F0E7
:100F4000D4FC2068816841F0770109E0CB68D1E9E1
:100F50000121206800F0C9FC2068816841F48041CB
:100F6000816011E0CA684968206800F03DFE5021A8
:100F7000206807E016E0CA684968206800F045FE6E
:100F80006021206800F028FE84F83D50002084F89D
:100F90003C0070BDCA684968206800F025FE402109
:100FA0002068EFE7226801461046EBE72DE9F041A3
:100FB0000D46040003D094F83D0018B108E001206C
:100FC000BDE8F081002084F83C00204600F03AF8AB
:100FD000022084F83D002068816844F207029143B2
:100FE0008160211D206800F03DFC226890689169B5
:100FF000166A2B68AF69034340F20330814341EA2C
:101000000721A868EF6908434FF6FC418843E96867
:1010100040EA0720014328692F6A000140EA0730AF
:10102000084369686D6926F0220646EA05152943DA
:1010300093602268906120680162012084F83D007D
:101040000020BDE700B585B000210091019102911B
:1010500003910068B0F1804F16D10C48C16941F08E
:101060000101C161C16901F001010491816941F08F
:10107000040181618069694600F004000490032046
:1010800000900348FFF784FA05B000BD001002404D
:101090000008014010B50446006891B1042904D04D
:1010A0000122002100F014FC206801225FF00401FD
:1010B00000F00EFC2068016841F001010160002091
:1010C00010BD01220021F3E7704770B504460068A7
:1010D00001694FF00005C943890715D4C168C943A8
:1010E000890711D4E91E01610120207720688069F9
:1010F0008007204602D0FFF7E7FF04E000F0BEF8CB
:10110000204600F040F9257720680169C943490766
:1011100017D4C168C943490713D46FF004010161B2
:10112000022020772068806910F4407F204602D09A
:10113000FFF7CAFF04E000F0A1F8204600F023F911
:10114000257720680169C943090716D4C168C943D6
:10115000090712D46FF0080101610420207720688C
:10116000C0698007204602D0FFF7AEFF04E000F020
:1011700085F8204600F007F9257720680169C94302
:10118000C90617D4C168C943C90613D46FF010014A
:101190000161082020772068C06910F4407F204654
:1011A00002D0FFF791FF04E000F068F8204600F05D
:1011B000EAF8257720680169C943C90708D1C168E1
:1011C000C943C90704D1891E0161204600F022F9F4
:1011D00020680169C943090609D4C168C9430906E1
:1011E00005D46FF0800101612046FFF7FBFD206808
:1011F0000169C943490609D4C168C943490605D4F0
:101200006FF040010161204600F01AF92068016981
:10121000C94389060BD4C168C943890607D46FF056
:10122000200101612046BDE87040FFF7DCBD70BDC4
:1012300000B585B0002100910191029103910068F1
:101240000B49884211D10B48816941F00801816145
:101250008069694600F00800049002200090019027
:10126000012003900448FFF793F905B000BD00008A
:101270000004004000100240000C0140704770B5AF
:10128000044690F83C000D4601280DD0012684F854
:101290003C60022084F83D0042B1042A18D0082A9C
:1012A0002AD00C2A4DD139E0022070BD206800F010
:1012B0001DFC2068816941F0080181612068816915
:1012C00021F004018161206881692A69114311E0DC
:1012D000206800F015FB2068816941F4006181619C
:1012E0002068816921F480618161206881692A69AF
:1012F00041EA0221816124E0206800F01FFC20689F
:10130000C16941F00801C1612068C16921F004018F
:10131000C1612068C1692A69114311E0206800F0A9
:1013200039FC2068C16941F40061C1612068C1696C
:1013300021F48061C1612068C1692A6941EA022102
:10134000C16184F83D60002084F83C0070BD10B598
:10135000040003D094F83D0010B107E0012010BD57
:10136000002084F83C00204600F00CF8022084F8AD
:101370003D00211D206800F075FA012084F83D0031
:10138000002010BD7047704710B504460068012268
:1013900000F09EFA09492068884203D1416C41F46B
:1013A000004141642068816801F00701062903D0EB
:1013B000016841F001010160002010BD002C0140D6
:1013C00010B504460068002200F082FA104B41F28A
:1013D000111120688A10984209D1036A0B4206D184
:1013E000036A134203D1436C23F40043436420682F
:1013F000036A0B4206D1016A114203D1016821F050
:1014000001010160012084F83D00002010BD0000B2
:10141000002C014010B508490068096888420AD1CB
:10142000064C2088401C80B22080142803D100F094
:10143000C1FA0020208010BDB0000020080000206C
:10144000704770B5040004D094F83900002510B13D
:1014500006E0012070BD84F83850204600F022F8E4
:10146000242084F839002068C16821F40051C1604B
:10147000204600F0DDFB2068016921F49041016104
:101480002068416921F02A0141612068C16841F466
:101490000051C160E563202084F8390084F83A00E7
:1014A000002070BD30B585B00024009401940294F2
:1014B000039400681449884223D11448C16941F457
:1014C0000031C161C16901F400310491816941F0C9
:1014D0000401816180690E4D00F004000490042035
:1014E0000090022001900320039069462846FFF7F0
:1014F0004FF80820CDE90004694628460294FFF71A
:1015000047F805B030BD0000004400400010024024
:10151000000801402DE9F843044690F839001F46C1
:1015200016460D46202850D1A5B19EB194F838003A
:1015300001284AD0012084F838004FF00008C4F890
:101540003C80212084F83900FFF71EF9A6848146EB
:10155000E68426E00120BDE8F883E08C401EE084AC
:10156000A0684B46B0F5805F4FF000024FF080015D
:101570002046009703D000F0B7FBE8B90DE000F07B
:10158000B3FBC8B928882168C0F308004860206907
:1015900008B16D1C05E0AD1C03E0216815F8010BD6
:1015A0004860E08C0028D8D14B46002240212046DC
:1015B000009700F099FB08B10320CCE7202084F8C5
:1015C000390084F838800020C5E70220C3E7FEE731
:1015D000F0B585B00024204800940194029403944F
:1015E000816941F020018161816901F0200104914C
:1015F000816941F004018161816901F00401049174
:10160000816941F0080181618069144F00F0080090
:101610004FF480560490002231463846FFF7AFF869
:1016200001250F480095CDE9010469463846FEF7CB
:10163000AFFF0220CDE90240CDE90065694638469A
:10164000FEF7A6FF002211460620FFF709F9062043
:10165000FFF7F8F805B0F0BD00100240000C0140A3
:101660000000211010B58CB024216846FEF785FEDD
:101670000024154809944FF080410A94C0E90014F1
:101680006421C0E90241046184610320CDE90004C2
:101690000120CDE902040F210491CDE90540CDE9F7
:1016A000074169460848FFF781FC08B1FEF744FF8F
:1016B000099409A904480A94FFF796FB002801D071
:1016C000FEF73AFF0CB010BD3000002010B58EB010
:1016D00000240794089409940A940B941C216846EA
:1016E0000C94FEF74AFE1E481C4901604721C0E9E0
:1016F0000114C460802104618161FFF796FB08B189
:10170000FEF71AFF4FF48050079007A91448FFF71F
:10171000E2FB08B1FEF710FF1148FFF718FE08B111
:10172000FEF70AFF0B940BA90D480C94FFF75CFB26
:1017300008B1FEF701FF6020CDE900040420049009
:101740000C22694602940648FFF799FD08B1FEF79E
:10175000F3FE0348FFF76CFD0EB010BD000400401F
:101760007000002010B586B0002417480094019442
:101770000294039404941349059401604721C0E93D
:10178000011440F2E731C0E903148461FFF74DFB17
:1017900008B1FEF7D1FE4FF48050009069460A4828
:1017A000FFF799FB08B1FEF7C7FE049404A90648A9
:1017B0000594FFF719FB002801D0FEF7BDFE06B027
:1017C00010BD000000080040B00000200C4810B51B
:1017D0000A4901604FF4E1314160002181600C222F
:1017E000C160C0E904128161C161FFF72AFE0028CF
:1017F00003D0BDE81040FEF79FBE10BD004400407E
:10180000F0000020FEE7704770477047FEF7C2BF48
:101810000D48016841F00101016041680B4A114027
:10182000416001680A4A11400160016821F4802189
:101830000160416821F4FE0141604FF41F018160A5
:101840000449C00308607047001002400000FFF820
:10185000FFFFF6FE08ED00E00148FFF736BC000090
:10186000B0000020F0B50268164B174C174D4FF032
:101870008047984205D0B84203D0A04201D0A84288
:1018800003D122F070064A683243984205D0B8422C
:1018900003D0A04201D0A84203D122F44074CA6808
:1018A00022434C6922F08002224302608A68C262AD
:1018B0000A688262984201D109690163012141618C
:1018C000F0BD0000002C0140000400400008004072
:1018D00010B501F01F030121046A99408C43046292
:1018E000016A9A401143016210BD10B5846842EA52
:1018F000032224F47F440A432243826010BD000087
:1019000030B5026A22F010020262026A43688469FA
:101910000D6824F4E64444EA05248D6822F0200290
:1019200042EA05120B4DA8420ED1CD6822F080028A
:1019300042EA05124D6923F4406343EA85038D6949
:1019400022F0400243EA8503436084614968816371
:10195000026230BD002C0140FEE7000070B54FF47C
:101960007A70FEF7EBFD3C210F48FFF793FB0F4821
:10197000FFF7A0FA01220E4D140321462846FEF778
:10198000FEFE002221462846FEF7F9FE6420FEF7FF
:10199000D5FD012221462846FEF7F1FEBDE8704044
:1019A0006420FEF7CBBD000030000020B000002016
:1019B000000C0140124810B50068A0B0416A1148FF
:1019C0008C003D2212C010490FA8FEF7A4FC0E485F
:1019D00090F83D008DF879000CABA2B240F2E731EF
:1019E0000C2083E80700302213A96846FEF793FC19
:1019F0000FAC94E80F0000F030F820B010BD0000EC
:101A000030000020000000207000002030B58FB0B2
:101A100028216846FEF7B1FC14210AA8FEF7ADFCA8
:101A200001210804CDE9001000240294022504914C
:101A3000CDE907504FF4E01009906846FFF72EF803
:101A40000F20CDE90A056802CDE90C4002210AA861
:101A50000E94FEF737FF0FB030BD0FB470B588B0ED
:101A60000CA8DDE91C4621461E9DFFF7A9FC0CA829
:101A70000F96FFF76CFC6020CDE900050020029076
:101A80000490224669460CA8FFF7F9FB21460CA8F2
:101A9000FFF77AFC08B070BC5DF814FB10B50D4878
:101AA0000DA1D0E900230E48FEF792FB0C48FEF78B
:101AB00013FC82B20A230A490A48FFF72BFD4FF4B0
:101AC00080510948FEF754FEBDE810403220FEF771
:101AD00035BD00000000002025642C25640D0A009F
:101AE0001C000020F0000020000C014030B5026A0C
:101AF00022F001020262026A4368846924F07305DD
:101B00000C682C4322F002058A682A430A4DA84239
:101B10000BD122F00805CA6823F440732A434D69AB
:101B200022F004021D438B692B43436084614968A2
:101B30004163026230BD0000002C014030B5026AF2
:101B400022F480720262036A4268C46923F400735B
:101B500024F073050C682C438D6843EA05230C4D73
:101B6000A8420ED1CD6823F4006343EA05234D69F2
:101B700022F4405242EA05128D6923F4806342EA5E
:101B800005124260C4614968C163036230BD000050
:101B9000002C014030B5026A22F480520262046ACD
:101BA0004268C3690D6823F4E64343EA05238D6860
:101BB00024F4005444EA0534064DA84204D14D698A
:101BC00022F4804242EA85124260C361496801649E
:101BD000046230BD002C0140826822F070020A438A
:101BE00042F007018160704710B5036A046A24F06F
:101BF00001040462846924F0F00444EA021423F02E
:101C00000A020A438461026210BD10B5036A23F020
:101C1000100303628369046A23F4704343EA0232C7
:101C200024F0A00343EA01118261016210BD0000AB
:101C30002DE9F041044600680169E26821F4405151
:101C4000114301612169A068084361690843216863
:101C5000CA6841F20C639A430243CA602068416932
:101C6000A26921F44071114341611E492068642535
:101C70003226884202D1FEF7CBFE01E0FEF7B8FE25
:101C800000EBC00101EB001160686FF018078000E5
:101C9000B1FBF0F2B2FBF5F2B1FBF0F37A4303EBE8
:101CA0008202B1FBF0F306EB0212B2FBF5F2B3FBDA
:101CB000F5F302F0F00202EB0312B1FBF0F3B1FB1B
:101CC000F0F0B0FBF5F0784303EB800006EB00107A
:101CD000B0FBF5F0216800F00F0010448860BDE80B
:101CE000F0810000003801402DE9F0419846174688
:101CF0000E460446069D1DE0681C1BD02DB1FEF764
:101D000043FDA0EB0800A84214D92068C16821F463
:101D1000D071C1602068416921F00101416120203A
:101D200084F8390084F83A00002084F83800032051
:101D3000BDE8F0812068006836EA000004D0002089
:101D4000B842D9D00020F3E70120F9E70907090ECE
:101D5000002804DB00F1E02080F80014704700F058
:101D60000F0000F1E02080F8141D7047FEF71AFD07
:101D7000FFF74CFEFFF72CFCFFF728FDFFF7A6FC52
:101D8000FFF770FCFFF7EEFCFFF7E8FDFFF786FEBC
:101D9000FCE7000000000000000001020304060749
:101DA000080900000000010203040000CC1D000827
:101DB000000000201C00000028010008E81D0008A9
:101DC0001C0000207407000044010008000000000F
:101DD00000000000000000000100000010000000F2
:081DE000000000000024F400E3
:04000005080000ED02
:00000001FF
