:020000040800F2
:10000000A804002001010008430D0008450C000869
:10001000410D00086D010008950D0008000000006A
:10002000000000000000000000000000470D000874
:100030006F01000800000000450D0008490D000890
:100040001B0100081B0100081B0100081B01000820
:100050001B0100081B0100081B0100081B01000810
:100060001B0100081B0100081B0100081B01000800
:100070001B0100081B0100081B0100081B010008F0
:100080001B0100081B0100081B0100081B010008E0
:100090001B0100081B0100081B0100081B010008D0
:1000A0001B0100081B0100081B0100081B010008C0
:1000B0001B0100081B0100081B0100081B010008B0
:1000C0001B0100081B0100081B0100081B010008A0
:1000D0001B0100081B0100081B0100081B01000890
:1000E0001B0100081B0100081B010008DFF80CD0F1
:1000F00000F02AF800480047DF0E0008A80400209E
:100100000648804706480047FEE7FEE7FEE7FEE7B1
:10011000FEE7FEE7FEE7FEE7FEE7FEE74D0D00081F
:10012000ED000008D2B201E000F8012B491EFBD21D
:1001300070470022F6E710B513460A4604461946F2
:10014000FFF7F0FF204610BD064C074D06E0E068C3
:1001500040F0010394E8070098471034AC42F6D30E
:10016000FFF7C8FF140F0008340F0008FEE77047C0
:10017000704700002DE9F84FDFF8B891002409F12D
:10018000040A0AF1040B23460F270BF1040EC9E001
:100190000125A5402A40AA427DD1674ED1F804C06E
:1001A000ACEB0608B44532D014DCBCF1030F3AD0F6
:1001B00009DCBCF1000F2AD0BCF1010F1CD0BCF14E
:1001C000020F31D11DE0BCF1110F17D0BCF1120F9D
:1001D0002AD119E0B8F5881F19D006DCB8F5803FA0
:1001E00015D0B8F5801F1FD111E0B8F5001F0ED053
:1001F000B8F5041F18D10AE0CB6815E0CB681B1DC9
:1002000012E0CB6808330FE0CB680C330CE08B684E
:100210002BB1012B4FF0080303D0456104E0042308
:1002200002E0056100E00023FF2A01D8064601E054
:1002300000F104064FEA840501D9A5F12005D6F89E
:10024000008007FA05FC28EA0C0803FA05F548EADD
:100250000508C6F800804D68ED0062D5374DAE69DF
:1002600046F00106AE61AD6924F0030605F0010514
:100270000095334D06EB050CDCF80850A607360F49
:1002800007FA06F825EA0805DFF8B880404503D1EB
:100290004FF0000817E044E0DFF8AC80404502D1A1
:1002A0004FF001080FE0DFF8A480404502D14FF085
:1002B000020808E0DFF89880404502D14FF00308BB
:1002C00001E04FF0040808FA06F848EA0508CCF8FF
:1002D00008804D68D9F80060ED034D4601D51643FE
:1002E00000E096432E604D68DAF80060AD03554695
:1002F00001D5164300E096432E604D68DBF80060A0
:10030000ED025D4601D5164300E096432E604D6830
:10031000DEF80060AD02754601D5164300E0964355
:100320002E60641C0D682A46E5407FF431AFBDE8BD
:10033000F88F00000004014000001110001002407E
:100340000000014000080140000C01400010014085
:10035000001401400AB1016170470904FBE7000085
:1003600001488068704700000000002070B504005C
:100370001BD094F83D00002520B984F83C5020465D
:1003800000F0AEF8242084F83D002068016821F0D8
:100390000101016000F0F2F94D4A6168914201D813
:1003A0004C4900E04C49884201D2012070BD4B49C4
:1003B0002368B0FBF1F15E6826F03F060E435E60F5
:1003C0006368934206D94FF4967359434FF47A7396
:1003D000B1FBF3F12368491C1E6A26F03F06314346
:1003E00019626168914210D84900401EB0FBF1F2D9
:1003F000521CC2F30B02042A01D2042022E0B0FBFB
:10040000F1F0401CC0F30B001CE0A368F3B301EB58
:10041000C10202EB0116421EB2FBF6F2521C42F47C
:100420008042120549D093B301EBC10202EB0111E6
:10043000401EB0FBF1F0401CC0F30B0040F48040C4
:1004400040F400402168CA694CF6FF739A43104398
:10045000C861D4E90701084321680A6822F0C00294
:1004600010430860D4E9030101432068826848F220
:10047000FF339A4311438160D4E9050108432168A1
:10048000CA6822F0FF021043C86001E00EE016E0E7
:100490002068016841F0010101602564202084F892
:1004A0003D00256384F83E50002070BD01EB4106FD
:1004B000421EB2FBF6F2521CB3E70120C2E701EB89
:1004C0004101401EB0FBF1F0401CC0F30B00B7E748
:1004D000A086010080841E0000093D0040420F00FC
:1004E00010B586B00021009101910291039100683E
:1004F0000F4988421AD10F4CA06940F00800A06152
:10050000A069694600F008000490C0200090122005
:100510000190032003900848FFF72CFEE06940F4A7
:100520000010E061E06900F40010049006B010BD16
:100530000054004000100240000C01400248816855
:10054000027811448160704700000020074810B510
:10055000016841F010010160032000F067F80020FD
:1005600000F006F800F024F8002010BD0020024042
:1005700070B50D4D04464FF47A712878B1FBF0F058
:100580000A490968B1FBF0F000F0DEFA48B9102C16
:1005900007D200222146501E00F028F800206C608F
:1005A00070BD012070BD0000000000200C00002084
:1005B0000C4808B5816941F001018161816901F050
:1005C00001010091C16941F08051C161C06900F031
:1005D000805000900448416821F0E06141F00071D2
:1005E000416008BD0010024000000140F0B40E4B15
:1005F0001B680C46C3F30223C3F10705042D00D981
:100600000425191D072901D2002300E0DB1E012665
:1006100006FA05F1491E214099409E40761E16407B
:100620003143F0BC00F03CBC0CED00E0064900F0AA
:10063000070208684FF6FF03184040EA0220034A09
:1006400010430860704700000CED00E00000FA0560
:100650002DE9F0470F46050061D0434E306800F0A9
:100660000700B84209D2306820F0070038433060F4
:10067000306800F00700B84251D128683B4C810730
:1006800012D5400703D5606840F4E06060602878C8
:10069000000703D5606840F4605060606068A96836
:1006A00020F0F000084360602878C00728D0686810
:1006B000012810D02168022810D0890700292EDADD
:1006C000616821F0030101436160FFF749FE804644
:1006D00041F288390DE021688903EFE78901EDE7F0
:1006E000FFF73EFEA0EB0801494502D90320BDE813
:1006F000F0876068696800F00C00B0EB810FEFD103
:10070000306800F00700B8420BD9306820F00700CD
:1007100038433060306800F00700B84201D0012053
:10072000E5E72878400705D56068E96820F4E060CF
:10073000084360602878000706D56068296920F4BE
:10074000605040EAC100606000F038F86168084A13
:10075000C1F30311515CC8400649086006480068AF
:10076000FFF706FF0020C2E7002002400010024011
:10077000FC0E00080C00002004000020044805497D
:1007800000684968044AC1F30221515CC8407047BF
:100790000C000020001002400C0F0008044805491E
:1007A00000684968044AC1F3C221515CC8407047DF
:1007B0000C000020001002400C0F000812A185B0B0
:1007C0000FC98DE80F0014A0144A00680490516806
:1007D000134811F00C0312D0042B10D0082B0ED1AB
:1007E000C1F38343C9031DF803000AD5516804AA65
:1007F000C1F34041515C0A4A5043B0FBF1F005B0EF
:10080000704708494843FAE7020304050607080948
:100810000A0B0C0D0E0F1010010200000010024018
:1008200000127A0000093D002DE9F84F040070D055
:100830002078C04DC00749D06868C0F38100012806
:1008400007D06868C0F38100022809D16868C00336
:1008500006D52868800339D560680028E7D035E0E0
:100860006068B0F5803F0BD010B1B0F5A02F11D06B
:10087000286820F480302860286820F4802002E076
:10088000286840F480302860606890B1FFF768FD08
:1008900006460AE0286840F480202860F0E700BFA0
:1008A000FFF75EFD801B642873D828688003F7D5A6
:1008B0000CE0FFF755FD064605E000BFFFF750FDD1
:1008C000801B6428F0D828688003F7D420789A4EDB
:1008D00080074FF001094FF0000839D5686810F023
:1008E0000C0F07D06868C0F38100022809D168683E
:1008F000C00306D42868800714D52069012808D1D0
:1009000010E02069B0B1C6F80090FFF729FD074656
:1009100005E00AE1FFF724FDC01B0228C4D82868BF
:100920008007F7D52868616920F0F80040EAC10027
:1009300028600DE0C6F80080FFF712FD074604E0CE
:10094000FFF70EFDC01B022823D828688007F7D4C4
:10095000207800072CD57948A169D9B1C0F800905A
:10096000FFF7FEFC074604E0FFF7FAFCC01B022875
:100970000FD8686A8007F7D571484FF4FA510068BC
:10098000B0FBF1F0009000BF0098411E0091FAD238
:100990000EE080E0C0F80080FFF7E2FC074604E0CC
:1009A000FFF7DEFCC01B022875D8686A8007F7D401
:1009B0002078400760D5E8690027C00008D4E869BE
:1009C00040F08050E861E869012700F08050009015
:1009D0005C480168C90513D40168834641F48071FD
:1009E0000160FFF7BDFC824606E000BFFFF7B8FCE0
:1009F000A0EB0A0064284ED8DBF80000C005F5D54E
:100A0000E06801280AD008B1052813D0286A20F030
:100A100001002862286A20F0040002E0286A40F001
:100A200001002862E06841F2883B98B1FFF798FC2A
:100A300082460BE0286A40F004002862EEE700BF1F
:100A4000FFF78EFCA0EB0A0159455AD8286A8007A7
:100A5000F6D50CE0FFF784FC824605E0FFF780FC4A
:100A6000A0EB0A0159454CD8286A8007F6D41FB17B
:100A7000E86920F08050E861E06988B36968C1F3F3
:100A80008101022944D00228C6F8608004D0FFF713
:100A900067FC044638E034E0FFF762FC074604E0F8
:100AA000FFF75EFCC01B02282BD828688001F7D412
:100AB000206AB0F5803F05D16868A16820F4003055
:100AC00008436860D4E908010843696821F4741197
:100AD00008436860C6F86090FFF742FC044606E0F1
:100AE00025E000BFFFF73CFC001B022809D828685E
:100AF0008001F7D51BE000BFFFF732FC001B022886
:100B000002D90320BDE8F88F28688001F4D40EE0F4
:100B10000128F7D06868226A00F48031914204D13C
:100B2000616A00F47010884201D00120EAE70020D9
:100B3000E8E7000000100240000042428004424208
:100B40000C0000200070004010B5401EB0F1807F06
:100B500001D3012010BD4FF0E02460610F21601728
:100B600000F09EF90020A06107202061002010BD48
:100B700070B5040004D094F83900002510B106E0E7
:100B8000012070BD84F83850204600F023F824205E
:100B900084F839002068C16821F40051C160204602
:100BA00000F022F92068016921F490410161206878
:100BB000416921F02A0141612068C16841F4005176
:100BC000C160E563202084F8390084F83A000020F1
:100BD00070BD000030B585B00024009401940294EB
:100BE000039400681449884223D11448C16941F430
:100BF0000031C161C16901F400310491816941F0A2
:100C00000401816180690E4D00F00400049004200D
:100C10000090022001900320039069462846FFF7C8
:100C2000A9FA0820CDE90004694628460294FFF796
:100C3000A1FA05B030BD00000044004000100240A1
:100C400000080140FEE7000070B586B000241C4893
:100C50000094019402940394816941F01001816130
:100C6000816901F010010491816941F020018161E5
:100C7000816901F020010491816941F004018161E1
:100C8000816901F004010491816941F008018161E9
:100C900080690C4E00F008004FF4005504900022CB
:100CA00029463046FFF756FB01210095CDE9011496
:100CB000039169463046FFF75DFA06B070BD00004B
:100CC00000100240001001400D4810B50B490160B2
:100CD0000C49416000214FF480428160C0E9031259
:100CE00041618161C1610162FFF740FB002803D0CF
:100CF000BDE81040FFF73CBA10BD000000540040B2
:100D000010000020400D03000C4810B50A49016096
:100D10004FF416514160002181600C22C160C0E98E
:100D200004128161C161FFF723FF002803D0BDE8F1
:100D30001040FFF71DBA10BD0044004064000020C1
:100D4000FEE7704770477047FFF7F8BB0D48016832
:100D500041F00101016041680B4A114041600168A6
:100D60000A4A11400160016821F480210160416854
:100D700021F4FE0141604FF41F0181600449C0036A
:100D800008607047001002400000FFF8FFFFF6FE09
:100D900008ED00E0FEE7704730B58FB028216846C7
:100DA000FFF7C7F914210AA8FFF7C3F901210804C6
:100DB000CDE900100024029402250491CDE90750EA
:100DC0004FF4E01009906846FFF72EFD0F20CDE9A3
:100DD0000A056802CDE90C4002210AA80E94FFF72B
:100DE00037FC0FB030BD70472DE9F0410446006874
:100DF0000169E26821F44051114301612169A06851
:100E00000843616908432168CA6841F20C639A4348
:100E10000243CA6020684169A26921F4407111430C
:100E200041611E49206864253226884202D1FFF7BD
:100E3000B5FC01E0FFF7A2FC00EBC00101EB0011E3
:100E400060686FF018078000B1FBF0F2B2FBF5F2BA
:100E5000B1FBF0F37A4303EB8202B1FBF0F306EB54
:100E60000212B2FBF5F2B3FBF5F302F0F00202EB73
:100E70000312B1FBF0F3B1FBF0F0B0FBF5F07843F7
:100E800003EB800006EB0010B0FBF5F0216800F0EA
:100E90000F0010448860BDE8F08100000038014078
:100EA0000907090E002804DB00F1E02080F8001497
:100EB000704700F00F0000F1E02080F8141D70472B
:100EC00002E008C8121F08C1002AFAD17047704713
:100ED000002001E001C1121F002AFBD17047FFF77B
:100EE00035FBFFF759FFFFF7AFFEFFF7EDFEFFF70A
:100EF0000BFFFFF750FFFFF776FFFCE70000000055
:100F000000000000010203040607080900000000B9
:100F100001020304340F000800000020100000004C
:100F2000C00E0008440F00081000002098040000C4
:100F3000D00E0008010000001000000000000000BA
:040F40000024F40095
:04000005080000ED02
:00000001FF
